:020000040800F2
:100000000000022035080008C5060008CB060008DD
:10001000D1060008D7060008DD0600080000000031
:10002000000000000000000000000000E3060008DF
:10003000F106000800000000FF0600080D07000898
:10004000850800088508000885080008850800085C
:10005000850800088508000885080008850800084C
:10006000850800088508000885080008850800083C
:10007000850800088508000885080008850800082C
:10008000850800088508000885080008850800081C
:10009000850800088508000885080008850800080C
:1000A00085080008850800088508000885080008FC
:1000B00085080008850800088508000885080008EC
:1000C00085080008850800088508000885080008DC
:1000D0008508000885080008850800081907000839
:1000E00085080008850800088508000885080008BC
:1000F00085080008850800088508000885080008AC
:10010000850800088508000885080008850800089B
:10011000850800088508000885080008850800088B
:10012000850800088508000885080008850800087B
:10013000850800088508000885080008850800086B
:10014000850800088508000885080008850800085B
:10015000850800088508000885080008850800084B
:10016000850800088508000885080008850800083B
:1001700085080008850800088508000800000000C0
:0801800085080008850800084D
:1001880010B5054C237833B9044B13B10448AFF3C9
:1001980000800123237010BD0C0000200000000027
:1001A800202A000808B5034B1BB103490348AFF3E5
:1001B800008008BD0000000010000020202A000870
:1001C80053B94AB9002908BF00281CBF4FF0FF31B6
:1001D8004FF0FF3000F070B9ADF1080C6DE904CEB6
:1001E80000F006F8DDF804E0DDE9022304B070470A
:1001F8002DE9F047089E0D4604460F46002B4AD1CC
:100208008A42944665D9B2FA82F343B102FA03FCF2
:10021800C3F120029F4020FA02F217439C404FEAA4
:100228001C4E1FFA8CF5B7FBFEF1220C0EFB117762
:1002380042EA074201FB05F090420AD91CEB020290
:1002480001F1FF3780F01C81904240F21981023998
:100258006244121AA4B2B2FBFEF00EFB102244EA6A
:10026800024400FB05F5A5420AD91CEB040400F181
:10027800FF3280F00781A54240F2048164440238CD
:1002880040EA0140641B00211EB1DC400023C6E99E
:100298000043BDE8F0878B4208D9002E00F0ED80BE
:1002A8000021C6E900050846BDE8F087B3FA83F1E6
:1002B800002949D1AB4202D3824200F2F880841A65
:1002C80065EB030201201746002EE2D0C6E900477D
:1002D800DFE702B9FFDEB2FA82F3002B40F090802C
:1002E8008A1A4FEA1C471FFA8CFE0121B2FBF7F568
:1002F80007FB1520220C42EA00420EFB05F0904253
:1003080008D91CEB020205F1FF3802D2904200F234
:10031800CB804546121AA4B2B2FBF7F007FB1022B5
:1003280044EA02440EFB00FEA64508D91CEB04046F
:1003380000F1FF3202D2A64500F2BB801046A4EBC2
:100348000E0440EA05409FE7C1F120078B4022FADE
:1003580007FC4CEA030C05FA01F420FA07F3FD4008
:100368004FEA1C492343B5FBF9F81FFA8CFE09FB39
:1003780018551C0C44EA054408FB0EF5A54202FA80
:1003880001F200FA01F00BD91CEB040408F1FF3A62
:1003980080F08880A54240F28580A8F10208644474
:1003A800641B9DB2B4FBF9F309FB134445EA04440A
:1003B80003FB0EFEA64508D91CEB040403F1FF3528
:1003C8006CD2A6456AD9023B644443EA0843A3FBBE
:1003D8000295A4EB0E04AC42C846AE4656D353D0A1
:1003E80056B1B0EB080264EB0E0404FA07F7CA40F2
:1003F800CC401743C6E9007418460021BDE8F087D1
:10040800C3F1200102FA03FC20FA01F225FA01F1F6
:100418009D402A434FEA1C471FFA8CFEB1FBF7F0B8
:1004280007FB1015110C41EA054100FB0EF58D4242
:1004380004FA03F408D91CEB010100F1FF382FD2AC
:100448008D422DD902386144491B92B2B1FBF7F5B0
:1004580007FB151142EA014205FB0EF1914208D94A
:100468001CEB020205F1FF3816D2914214D9023D65
:100478006244521A45EA004138E73146304608E7F7
:100488003946E6E61046FBE64845A9D2B9EB02082C
:1004980065EB0C0E013BA3E74546EAE72B4694E7DC
:1004A8004046D1E7D0467BE7023D624432E7084642
:1004B8000AE76444023842E7704700BF80B483B05B
:1004C80000AF00237B60104B1B6B0F4A43F0800387
:1004D80013630D4B1B6B03F080037B607B68002369
:1004E8003B60094B1B6B084A43F008031363064B38
:1004F8001B6B03F008033B603B6800BF0C37BD462D
:100508005DF8047B704700BF0038024080B500AF3B
:1005180002F0E4F900F010F8FFF7D0FF00F014F94A
:1005280000F074F801220249024801F05CFAFEE783
:10053800280000202C00002080B594B000AF07F1FF
:10054800200330220021184602F03AFA07F10C0382
:1005580000221A605A609A60DA601A610023BB6050
:10056800284B1B6C274A43F080531364254B1B6CA4
:1005780003F08053BB60BB6800237B60224B1B6881
:10058800214A43F4804313601F4B1B6803F48043E4
:100598007B607B6801233B624FF480337B620223DC
:1005A800BB634FF48003FB6304233B64A8237B6491
:1005B8000223BB640423FB6407F12003184600F000
:1005C8009FFC0346002B01D000F04AF80F23FB6084
:1005D80002233B6100237B614FF4A053BB614FF4BE
:1005E8008053FB6107F10C030521184600F000FF5A
:1005F8000346002B01D000F033F800BF5037BD464A
:1006080080BD00BF003802400070004080B500AFD8
:1006180000220021272000F00EFA272000F027FAF8
:1006280000BF80BD80B582B000AF78607B681B6872
:10063800084A93420AD101220749084801F0D3F930
:100648000A2301220449054801F042F900BF08378E
:10065800BD4680BD00480040280000202C00002036
:1006680080B400AF72B600BFFEE7000080B483B06C
:1006780000AF00237B60104B5B6C0F4A43F4804350
:1006880053640D4B5B6C03F480437B607B680023F1
:100698003B60094B1B6C084A43F080531364064BBC
:1006A8001B6C03F080533B603B6800BF0C37BD46B2
:1006B8005DF8047B704700BF0038024080B400AF8B
:1006C800FEE780B400AFFEE780B400AFFEE780B479
:1006D80000AFFEE780B400AFFEE780B400AF00BF14
:1006E800BD465DF8047B704780B400AF00BFBD46CF
:1006F8005DF8047B704780B400AF00BFBD465DF86D
:10070800047B704780B500AF02F03AF900BF80BDA6
:1007180080B500AF024801F08BF900BF80BD00BF73
:100728002C00002080B400AF064BD3F88830054A6F
:1007380043F47003C2F8883000BFBD465DF8047BFF
:10074800704700BF00ED00E080B500AF114B124AC2
:100758001A60104B4FF4E1325A600E4B00229A6037
:100768000C4B0022DA600B4B00221A61094B0C2259
:100778005A61084B00229A61064B0022DA6105484B
:1007880001F056F80346002B01D0FFF769FF00BFC0
:1007980080BD00BF2C0000200048004080B58AB012
:1007A80000AF786007F1140300221A605A609A605B
:1007B800DA601A617B681B68194A93422CD10023BE
:1007C8003B61184B1B6C174A43F480231364154B89
:1007D8001B6C03F480233B613B690023FB60114BD6
:1007E8001B6B104A43F0080313630E4B1B6B03F09B
:1007F8000803FB60FB684FF440737B610223BB6115
:100808000023FB6103233B6207237B6207F1140388
:100818001946054800F0D8F900BF2837BD4680BD05
:100828000048004000380240000C0240DFF834D095
:10083800FFF778FF0C480D490D4A002302E0D45811
:10084800C4500433C4188C42F9D30A4A0A4C002312
:1008580001E013600432A242FBD302F0B9F8FFF7BB
:1008680055FE704700000220000000200C00002008
:10087800602A00080C00002078000020FEE7000035
:1008880080B485B000AF78607B6803F00703FB6035
:100898000C4BDB68BB60BA684FF6FF031340BB60C4
:1008A800FB681A02BB68134343F0BF6343F4003389
:1008B800BB60044ABB68D36000BF1437BD465DF80F
:1008C800047B704700ED00E080B400AF044BDB68A8
:1008D8001B0A03F007031846BD465DF8047B704702
:1008E80000ED00E080B483B000AF0346FB7197F9D8
:1008F8000730002B0BDBFB7903F01F02074997F940
:1009080007305B09012000FA02F241F8232000BFFA
:100918000C37BD465DF8047B704700BF00E100E07E
:1009280080B483B000AF03463960FB7197F9073094
:10093800002B0ADB3B68DAB20C4997F90730120141
:10094800D2B20B4483F800230AE03B68DAB20849C4
:10095800FB7903F00F03043B1201D2B20B441A7661
:1009680000BF0C37BD465DF8047B704700E100E02E
:1009780000ED00E080B489B000AFF860B9607A603B
:10098800FB6803F00703FB61FB69C3F10703042B52
:1009980028BF0423BB61FB690433062B02D9FB691A
:1009A800033B00E000237B614FF0FF32BB6902FA92
:1009B80003F3DA43BB681A407B699A404FF0FF3172
:1009C8007B6901FA03F3D9437B680B40134318464C
:1009D8002437BD465DF8047B7047000080B582B0BF
:1009E80000AF78607B68013BB3F1807F01D30123BE
:1009F8000FE00A4A7B68013B53600F214FF0FF303C
:100A0800FFF78EFF054B00229A60044B07221A60FD
:100A1800002318460837BD4680BD00BF10E000E03F
:100A280080B582B000AF78607868FFF729FF00BF13
:100A38000837BD4680BD80B586B000AF0346B960B3
:100A48007A60FB7300237B61FFF73EFF78617A6869
:100A5800B9687869FFF78EFF024697F90F3011469B
:100A68001846FFF75DFF00BF1837BD4680BD80B54B
:100A780082B000AF0346FB7197F907301846FFF7BD
:100A880031FF00BF0837BD4680BD80B582B000AFDA
:100A980078607868FFF7A2FF034618460837BD4616
:100AA80080BD80B584B000AF78607B689B6DFB60CB
:100AB80001F07AFFB8607B6893F83530DBB2022B1F
:100AC80008D07B6880225A657B68002283F834202E
:100AD800012352E07B681B681A687B681B6822F058
:100AE80016021A607B681B685A697B681B6822F0CB
:100AF80080025A617B681B6C002B03D17B689B6C5E
:100B0800002B07D07B681B681A687B681B6822F07B
:100B180008021A607B681B681A687B681B6822F0E9
:100B280001021A6013E001F03FFF0246BB68D31AC6
:100B3800052B0CD97B6820225A657B68032283F831
:100B480035207B68002283F83420032315E07B6876
:100B58001B681B6803F00103002BE4D17B68DB6D85
:100B68003F229A40FB689A607B68012283F835200F
:100B78007B68002283F83420002318461037BD46CE
:100B880080BD80B483B000AF78607B6893F835305F
:100B9800DBB2022B04D07B6880225A6501230CE06B
:100BA8007B68052283F835207B681B681A687B6898
:100BB8001B6822F001021A60002318460C37BD4654
:100BC8005DF8047B7047000080B489B000AF78609E
:100BD800396000237B6100233B610023BB61002354
:100BE800FB616BE10122FB6902FA03F37B613B685D
:100BF8001B687A6913403B613A697B699A4240F005
:100C08005A813B685B6803F00303012B05D03B68FE
:100C18005B6803F00303022B30D17B689B68BB61E0
:100C2800FB695B00032202FA03F3DB43BA69134052
:100C3800BB613B68DA68FB695B0002FA03F3BA69D7
:100C48001343BB617B68BA699A607B685B68BB6168
:100C58000122FB6902FA03F3DB43BA691340BB6163
:100C68003B685B681B0903F00102FB6902FA03F3A6
:100C7800BA691343BB617B68BA695A603B685B68B1
:100C880003F00303032B17D07B68DB68BB61FB69A8
:100C98005B00032202FA03F3DB43BA691340BB612A
:100CA8003B689A68FB695B0002FA03F3BA6913436D
:100CB800BB617B68BA69DA603B685B6803F0030371
:100CC800022B23D1FB69DA087B68083253F82230FB
:100CD800BB61FB6903F007039B000F2202FA03F3D1
:100CE800DB43BA691340BB613B681A69FB6903F0CF
:100CF80007039B0002FA03F3BA691343BB61FB695C
:100D0800DA087B680832B96943F822107B681B68E7
:100D1800BB61FB695B00032202FA03F3DB43BA6998
:100D28001340BB613B685B6803F00302FB695B002F
:100D380002FA03F3BA691343BB617B68BA691A60A4
:100D48003B685B6803F44033002B00F0B480002359
:100D5800FB60604B5B6C5F4A43F4804353645D4BBC
:100D68005B6C03F48043FB60FB685B4AFB699B0890
:100D7800023352F82330BB61FB6903F003039B0085
:100D88000F2202FA03F3DB43BA691340BB617B68A5
:100D9800524A93422BD07B68514A934225D07B68B4
:100DA800504A93421FD07B684F4A934219D07B68C0
:100DB8004E4A934213D07B684D4A93420DD07B68CC
:100DC8004C4A934207D07B684B4A934201D1072390
:100DD8000EE008230CE006230AE0052308E00423BC
:100DE80006E0032304E0022302E0012300E00023DD
:100DF800FA6902F0030292009340BA691343BB6197
:100E08003549FB699B080233BA6941F823203B4BFB
:100E18009B68BB613B69DB43BA691340BB613B68B4
:100E28005B6803F48013002B03D0BA693B69134352
:100E3800BB61324ABB699360304BDB68BB613B697D
:100E4800DB43BA691340BB613B685B6803F400137A
:100E5800002B03D0BA693B691343BB61274ABB69BE
:100E6800D360264B5B68BB613B69DB43BA691340BF
:100E7800BB613B685B6803F40033002B03D0BA699D
:100E88003B691343BB611D4ABB6953601B4B1B681D
:100E9800BB613B69DB43BA691340BB613B685B6874
:100EA80003F48033002B03D0BA693B691343BB6159
:100EB800124ABB691360FB690133FB61FB690F2BA5
:100EC8007FF690AE00BF00BF2437BD465DF8047BB7
:100ED800704700BF0038024000380140000002405F
:100EE8000004024000080240000C024000100240CA
:100EF8000014024000180240001C0240003C01405F
:100F080080B586B000AF78607B68002B01D10123E3
:100F180067E27B681B6803F00103002B75D0884BE0
:100F28009B6803F00C03042B0CD0854B9B6803F0E3
:100F38000C03082B12D1824B5B6803F48003B3F5D2
:100F4800800F0BD17E4B1B6803F40033002B5BD062
:100F58007B685B68002B57D1012342E27B685B68A2
:100F6800B3F5803F06D1764B1B68754A43F480334E
:100F780013601DE07B685B68B3F5A02F0CD1704B44
:100F88001B686F4A43F4802313606D4B1B686C4ADF
:100F980043F4803313600BE0694B1B68684A23F401
:100FA80080331360664B1B68654A23F48023136003
:100FB8007B685B68002B13D001F0F6FC386108E011
:100FC80001F0F2FC02463B69D31A642B01D90323D2
:100FD80007E25B4B1B6803F40033002BF0D014E0EE
:100FE80001F0E2FC386108E001F0DEFC02463B69F2
:100FF800D31A642B01D90323F3E1514B1B6803F483
:101008000033002BF0D100E000BF7B681B6803F0C1
:101018000203002B63D04A4B9B6803F00C03002BA0
:101028000BD0474B9B6803F00C03082B1CD1444B97
:101038005B6803F48003002B16D1414B1B6803F057
:101048000203002B05D07B68DB68012B01D001234C
:10105800C7E13B4B1B6823F0F8027B681B69DB0088
:10106800374913430B603AE07B68DB68002B20D0DC
:10107800344B01221A6001F097FC386108E001F056
:1010880093FC02463B69D31A022B01D90323A8E13A
:101098002B4B1B6803F00203002BF0D0284B1B6876
:1010A80023F0F8027B681B69DB00254913430B60BA
:1010B80015E0244B00221A6001F076FC386108E044
:1010C80001F072FC02463B69D31A022B01D90323B3
:1010D80087E11B4B1B6803F00203002BF0D17B68F0
:1010E8001B6803F00803002B36D07B685B69002B74
:1010F80016D0154B01221A6001F056FC386108E041
:1011080001F052FC02463B69D31A022B01D9032392
:1011180067E10B4B5B6F03F00203002BF0D01BE081
:10112800094B00221A6001F03FFC38610EE001F023
:101138003BFC02463B69D31A022B07D9032350E133
:101148000038024000004742800E4742884B5B6FE0
:1011580003F00203002BEAD17B681B6803F0040349
:10116800002B00F097800023FB75814B1B6C03F06C
:101178008053002B0FD10023BB607D4B1B6C7C4A36
:1011880043F0805313647A4B1B6C03F08053BB60AD
:10119800BB680123FB75774B1B6803F48073002B36
:1011A80018D1744B1B68734A43F48073136001F0C1
:1011B800FBFB386108E001F0F7FB02463B69D31AF4
:1011C800022B01D903230CE16A4B1B6803F48073DB
:1011D800002BF0D07B689B68012B06D1644B1B6FFA
:1011E800634A43F0010313671CE07B689B68052B87
:1011F8000CD15F4B1B6F5E4A43F0040313675C4BD3
:101208001B6F5B4A43F0010313670BE0584B1B6FDE
:10121800574A23F001031367554B1B6F544A23F0B9
:10122800040313677B689B68002B15D001F0BCFB97
:1012380038610AE001F0B8FB02463B69D31A41F273
:101248008832934201D90323CBE0494B1B6F03F04B
:101258000203002BEED014E001F0A6FB38610AE08F
:1012680001F0A2FB02463B69D31A41F2883293424D
:1012780001D90323B5E03E4B1B6F03F00203002B9B
:10128800EED1FB7D012B05D1394B1B6C384A23F07D
:10129800805313647B689B69002B00F0A180344B5A
:1012A8009B6803F00C03082B5CD07B689B69022BBE
:1012B80041D1314B00221A6001F076FB386108E019
:1012C80001F072FB02463B69D31A022B01D90323B2
:1012D80087E0274B1B6803F00073002BF0D17B6875
:1012E800DA697B681B6A1A437B685B6A9B011A434D
:1012F8007B689B6A5B08013B1B041A437B68DB6ABB
:101308001B061B4913434B601B4B01221A6001F05B
:101318004BFB386108E001F047FB02463B69D31AF2
:10132800022B01D903235CE0114B1B6803F0007307
:10133800002BF0D054E0104B00221A6001F034FB6F
:10134800386108E001F030FB02463B69D31A022BF2
:1013580001D9032345E0064B1B6803F00073002BFB
:10136800F0D13DE07B689B69012B07D1012338E070
:101378000038024000700040600047421B4B5B6829
:10138800FB607B689B69012B28D0FB6803F4800213
:101398007B68DB699A4221D1FB6803F03F027B68D6
:1013A8001B6A9A421AD1FA6847F6C07313407A68E2
:1013B800526A9201934211D1FB6803F440327B6870
:1013C8009B6A5B08013B1B049A4207D1FB6803F048
:1013D80070627B68DB6A1B069A4201D0012300E039
:1013E800002318461837BD4680BD00BF00380240AC
:1013F80080B584B000AF786039607B68002B01D17C
:101408000123CCE0684B1B6803F007033A689A4253
:101418000CD9654B3A68D2B21A70634B1B6803F05B
:1014280007033A689A4201D00123B8E07B681B6839
:1014380003F00203002B20D07B681B6803F0040331
:10144800002B05D0594B9B68584A43F4E0539360EE
:101458007B681B6803F00803002B05D0534B9B687F
:10146800524A43F460439360504B9B6823F0F00268
:101478007B689B684D4913438B607B681B6803F04E
:101488000103002B44D07B685B68012B07D1474BD5
:101498001B6803F40033002B19D101237FE07B681C
:1014A8005B68022B03D07B685B68032B07D13F4B3B
:1014B8001B6803F00073002B09D101236FE03B4B3D
:1014C8001B6803F00203002B01D1012367E0374BAF
:1014D8009B6823F003027B685B68344913438B6085
:1014E80001F062FAF8600AE001F05EFA0246FB6871
:1014F800D31A41F28832934201D903234FE02B4B90
:101508009B6803F00C027B685B689B009A42EBD1F6
:10151800254B1B6803F007033A689A420CD2224B0A
:101528003A68D2B21A70204B1B6803F007033A6876
:101538009A4201D0012332E07B681B6803F0040360
:10154800002B08D0194B9B6823F4E0527B68DB68BA
:10155800164913438B607B681B6803F00803002B54
:1015680009D0124B9B6823F460427B681B69DB003F
:101578000E4913438B6000F021F802460B4B9B6821
:101588001B0903F00F030A49CB5C22FA03F3094A4B
:101598001360094B1B68184601F0C2F9002318466E
:1015A8001037BD4680BD00BF003C024000380240F5
:1015B800382A000800000020040000202DE9B04F60
:1015C80094B000AF00237B640023FB6400233B64DA
:1015D8000023BB64794B9B6803F00C03082B0DD0E8
:1015E800082B00F2E180002B02D0042B03D0DBE0B3
:1015F800734BBB64DBE0734BBB64D8E06F4B5B6839
:1016080003F03F037B646D4B5B6803F48003002B9E
:1016180063D06A4B5B689B090022BB63FA63BB6BB0
:10162800C3F308033B6300237B63D7E90C452246D9
:101638002B464FF000004FF00001590141EAD261FA
:10164800500102460B462146511A3961294663EB7F
:1016580001037B614FF000024FF00003D7E904ABB0
:1016680059468B01514643EA916351468A015146D6
:10167800B2EB0108594663EB01094FF000024FF045
:1016880000034FEAC90343EA58734FEAC802904679
:101698009946234618EB0303BB602B4649EB03032B
:1016A800FB604FF000024FF00003D7E902452946DE
:1016B8004B02214643EAD15321464A0210461946B5
:1016C8007B6C0022BB62FA62D7E90A23FEF778FD39
:1016D80002460B461346FB6458E0384B5B689B098F
:1016E800002218461146C0F308033B6200237B62C0
:1016F800D7E9088942464B464FF000004FF00001F9
:10170800590141EAD261500102460B464146B2EB0B
:10171800010A494663EB010B4FF000024FF000034A
:101728004FEA8B1343EA9A634FEA8A12B2EB0A0430
:1017380063EB0B054FF000024FF00003EB0043EAA8
:101748005473E20014461D464346E3183B604B467B
:1017580045EB03037B604FF000024FF00003D7E92D
:10176800004529468B02214643EA915321468A02C5
:10177800104619467B6C0022BB61FA61D7E9062343
:10178800FEF71EFD02460B461346FB640B4B5B68D7
:101798001B0C03F0030301335B003B64FA6C3B6CE6
:1017A800B2FBF3F3BB6402E0054BBB6400BFBB6C48
:1017B80018465037BD46BDE8B08F00BF003802401C
:1017C8000024F40000127A0080B400AF034B1B68B9
:1017D8001846BD465DF8047B704700BF0000002036
:1017E80080B500AFFFF7F0FF0246054B9B689B0AE8
:1017F80003F007030349CB5C22FA03F3184680BDC4
:1018080000380240482A000880B500AFFFF7DCFF27
:101818000246054B9B685B0B03F007030349CB5C4F
:1018280022FA03F3184680BD00380240482A00080F
:1018380080B582B000AF78607B68002B01D10123AE
:1018480042E07B6893F84130DBB2002B06D17B681D
:10185800002283F840207868FEF7A0FF7B682422E6
:1018680083F841207B681B68DA687B681B6822F470
:101878000052DA60786800F0BDFD7B681B681A6961
:101888007B681B6822F490421A617B681B685A695E
:101898007B681B6822F02A025A617B681B68DA6839
:1018A8007B681B6842F40052DA607B6800225A6445
:1018B8007B68202283F841207B68202283F842201D
:1018C8007B6800225A63002318460837BD4680BD4E
:1018D80080B58AB002AFF860B9603B601346FB8000
:1018E80000237B61FB6893F84130DBB2202B75D174
:1018F800BB68002B02D0FB88002B01D101236EE0CE
:10190800FB6800225A64FB68212283F8412001F019
:101918004BF87861FB68FA889A84FB68FA88DA845D
:10192800FB689B68B3F5805F08D1FB681B69002BD7
:1019380004D10023FB61BB68BB6103E0BB68FB61AA
:101948000023BB612EE03B6800937B690022802165
:10195800F86800F01FFB0346002B05D0FB68202227
:1019680083F8412003233AE0FB69002B0BD1BB69C4
:101978001B881A46FB681B68C2F308025A60BB69D9
:101988000233BB6107E0FB691A78FB681B685A6081
:10199800FB690133FB61FB68DB8C9BB2013B9AB2AC
:1019A800FB68DA84FB68DB8C9BB2002BCBD13B68ED
:1019B80000937B6900224021F86800F0EBFA0346A7
:1019C800002B05D0FB68202283F84120032306E082
:1019D800FB68202283F84120002300E002231846F8
:1019E8002037BD4680BD80B584B000AFF860B960CF
:1019F8001346FB80FB6893F84230DBB2202B12D1F0
:101A0800BB68002B02D0FB88002B01D101230BE01F
:101A1800FB6800221A63FB881A46B968F86800F068
:101A280012FB034600E0022318461037BD4680BD6E
:101A380080B5BAB000AF78607B681B681B68C7F8D0
:101A4800E4307B681B68DB68C7F8E0307B681B689C
:101A58005B69C7F8DC300023C7F8D8300023C7F823
:101A6800D430D7F8E43003F00F03C7F8D830D7F8EC
:101A7800D830002B0FD1D7F8E43003F02003002B27
:101A880009D0D7F8E03003F02003002B03D07868A2
:101A980000F0F2FB5BE2D7F8D830002B00F0DE80D4
:101AA800D7F8DC3003F00103002B06D1D7F8E0307B
:101AB80003F49073002B00F0D180D7F8E43003F0E2
:101AC8000103002B0BD0D7F8E03003F48073002B10
:101AD80005D07B685B6C43F001027B685A64D7F8D9
:101AE800E43003F00403002B0BD0D7F8DC3003F00C
:101AF8000103002B05D07B685B6C43F002027B6816
:101B08005A64D7F8E43003F00203002B0BD0D7F85F
:101B1800DC3003F00103002B05D07B685B6C43F0DD
:101B280004027B685A64D7F8E43003F00803002BFA
:101B380011D0D7F8E03003F02003002B05D1D7F8F7
:101B4800DC3003F00103002B05D07B685B6C43F0AD
:101B580008027B685A647B685B6C002B00F0F2819A
:101B6800D7F8E43003F02003002B08D0D7F8E03092
:101B780003F02003002B02D0786800F07DFB7B681F
:101B88001B685B6903F04003402B0CBF0123002353
:101B9800DBB2C7F8D4307B685B6C03F00803002B1A
:101BA80003D1D7F8D430002B4FD0786800F085FAED
:101BB8007B681B685B6903F04003402B41D17B685D
:101BC8001B681433C7F89C30D7F89C3053E8003FA3
:101BD800C7F89830D7F8983023F04003C7F8D030CA
:101BE8007B681B681433D7F8D020C7F8A820C7F83B
:101BF800A430D7F8A410D7F8A82041E80023C7F8E4
:101C0800A030D7F8A030002BD9D17B68DB6B002B34
:101C180013D07B68DB6B7E4A1A657B68DB6B1846E2
:101C2800FEF7AFFF0346002B16D07B68DB6B1B6DFE
:101C38007A68D26B104698470EE0786800F094F9FD
:101C48000AE0786800F090F906E0786800F08CF90E
:101C58007B6800225A6475E100BF73E17B681B6BE7
:101C6800012B40F04F81D7F8E43003F01003002B2C
:101C780000F04881D7F8E03003F01003002B00F0A3
:101C880041810023BB607B681B681B68BB607B6865
:101C98001B685B68BB60BB687B681B685B6903F09B
:101CA8004003402B40F0B6807B68DB6B1B685B68A9
:101CB800A7F8BE30B7F8BE30002B00F045817B682E
:101CC8009B8DB7F8BE209A4280F03E817B68B7F8BA
:101CD800BE20DA857B68DB6BDB69B3F5807F00F0BB
:101CE80088807B681B680C33C7F88830D7F8883041
:101CF80053E8003FC7F88430D7F8843023F4807362
:101D0800C7F8B8307B681B680C33D7F8B820C7F819
:101D18009420C7F89030D7F89010D7F8942041E86D
:101D28000023C7F88C30D7F88C30002BD9D17B68CA
:101D38001B6814337B677B6F53E8003F3B673B6F3F
:101D480023F00103C7F8B4307B681B681433D7F855
:101D5800B420C7F88020FB67F96FD7F8802041E8E6
:101D68000023BB67BB6F002BE1D17B681B68143372
:101D78003B663B6E53E8003FFB65FB6D23F0400379
:101D8800C7F8B0307B681B681433D7F8B020FA6600
:101D9800BB66B96EFA6E41E800237B667B6E002B4A
:101DA800E3D17B68202283F842207B6800221A63F3
:101DB8007B681B680C33FB64FB6C53E8003FBB6417
:101DC800BB6C23F01003C7F8AC307B681B680C337E
:101DD800D7F8AC20BA657B65796DBA6D41E8002308
:101DE8003B653B6D002BE3D17B68DB6B1846FEF748
:101DF80058FE7B6802225A637B689A8D7B68DB8D6C
:101E08009BB2D31A9BB21946786800F0B7F89BE0EA
:101E1800892100087B689A8D7B68DB8D9BB2D31A79
:101E2800A7F8CE307B68DB8D9BB2002B00F08E804C
:101E3800B7F8CE30002B00F089807B681B680C3324
:101E4800BB63BB6B53E8003F7B637B6B23F49073EE
:101E5800C7F8C8307B681B680C33D7F8C8207A6489
:101E68003B64396C7A6C41E80023FB63FB6B002B05
:101E7800E3D17B681B6814337B627B6A53E8003FBD
:101E88003B623B6A23F00103C7F8C4307B681B68D8
:101E98001433D7F8C4203A63FB62F96A3A6B41E815
:101EA8000023BB62BB6A002BE3D17B68202283F846
:101EB80042207B6800221A637B681B680C333B61F5
:101EC8003B6953E8003FFB60FB6823F01003C7F849
:101ED800C0307B681B680C33D7F8C020FA61BB613F
:101EE800B969FA6941E800237B617B69002BE3D17A
:101EF8007B6802225A63B7F8CE301946786800F03A
:101F08003DF823E0D7F8E43003F08003002B09D034
:101F1800D7F8E03003F08003002B03D0786800F096
:101F280043F914E0D7F8E43003F04003002B0ED057
:101F3800D7F8E03003F04003002B08D0786800F0B1
:101F480083F904E000BF02E000BF00E000BFE8370B
:101F5800BD4680BD80B483B000AF786000BF0C3749
:101F6800BD465DF8047B704780B483B000AF7860ED
:101F780000BF0C37BD465DF8047B704780B483B062
:101F880000AF78600B467B8000BF0C37BD465DF81C
:101F9800047B704780B586B000AFF860B9603B60DD
:101FA8001346FB713BE03B6AB3F1FF3F37D000F0CB
:101FB800FBFC02463B68D31A3A6A9A4202D33B6A50
:101FC800002B01D103233AE0FB681B68DB6803F0B0
:101FD8000403002B23D0BB68802B20D0BB68402B88
:101FE8001DD0FB681B681B6803F00803082B16D17B
:101FF80000237B61FB681B681B687B61FB681B68AF
:102008005B687B617B69F86800F057F8FB68082219
:102018005A64FB68002283F8402001230FE0FB6824
:102028001B681A68BB681340BA689A420CBF012340
:102038000023DBB21A46FB799A42B4D00023184633
:102048001837BD4680BD80B485B000AFF860B96070
:102058001346FB80FB68BA689A62FB68FA889A851F
:10206800FB68FA88DA85FB6800225A64FB6822223A
:1020780083F84220FB681B69002B07D0FB681B68AC
:10208800DA68FB681B6842F48072DA60FB681B68D8
:102098005A69FB681B6842F001025A61FB681B68B9
:1020A800DA68FB681B6842F02002DA6000231846F1
:1020B8001437BD465DF8047B704780B495B000AF17
:1020C80078607B681B680C337B637B6B53E8003F4D
:1020D8003B633B6B23F49073FB647B681B680C3396
:1020E800FA6C3A64FB63F96B3A6C41E80023BB6312
:1020F800BB6B002BE5D17B681B6814333B623B6AE2
:1021080053E8003FFB61FB6923F00103BB647B6874
:102118001B681433BA6CFA62BB62B96AFA6A41E89E
:1021280000237B627B6A002BE5D17B681B6B012B4C
:1021380019D17B681B680C33FB60FB6853E8003FD0
:10214800BB60BB6823F010037B647B681B680C339F
:102158007A6CBA617B617969BA6941E800233B61AD
:102168003B69002BE5D17B68202283F842207B68FD
:1021780000221A6300BF5437BD465DF8047B7047E0
:1021880080B584B000AF78607B689B6BFB60FB68B0
:102198000022DA85FB680022DA84F868FFF7E4FE9B
:1021A80000BF1037BD4680BD80B485B000AF7860F1
:1021B8007B6893F84130DBB2212B3ED17B689B686A
:1021C800B3F5805F14D17B681B69002B10D17B6845
:1021D8001B6AFB60FB681B881A467B681B68C2F396
:1021E80008025A607B681B6A9A1C7B681A6208E0BE
:1021F8007B681B6A591C7A6811621A787B681B68AD
:102208005A607B68DB8C9BB2013B9BB27A681946AB
:10221800D184002B0FD17B681B68DA687B681B6848
:1022280022F08002DA607B681B68DA687B681B68CA
:1022380042F04002DA60002300E002231846143717
:10224800BD465DF8047B704780B582B000AF78600A
:102258007B681B68DA687B681B6822F04002DA60DA
:102268007B68202283F841207868FFF773FE0023FB
:1022780018460837BD4680BD80B58CB000AF786081
:102288007B6893F84230DBB2222B40F0AE807B684B
:102298009B68B3F5805F17D17B681B69002B13D14E
:1022A8000023FB627B689B6ABB627B681B685B6878
:1022B8009BB2C3F308039AB2BB6A1A807B689B6A15
:1022C8009A1C7B689A6226E07B689B6AFB62002303
:1022D800BB627B689B68B3F5805F07D07B689B68AF
:1022E800002B0AD17B681B69002B06D17B681B6811
:1022F8005B68DAB2FB6A1A7008E07B681B685B6887
:10230800DBB203F07F03DAB2FB6A1A707B689B6A60
:102318005A1C7B689A627B68DB8D9BB2013B9BB23F
:102328007A681946D185002B5DD17B681B68DA680D
:102338007B681B6822F02002DA607B681B68DA6819
:102348007B681B6822F48072DA607B681B685A69B4
:102358007B681B6822F001025A617B68202283F89F
:1023680042207B6800225A637B681B6B012B35D1A6
:102378007B6800221A637B681B680C337B617B696E
:1023880053E8003F3B613B6923F010037B627B68A5
:102398001B680C337A6A3A62FB61F9693A6A41E868
:1023A8000023BB61BB69002BE5D17B681B681B68F8
:1023B80003F01003102B0AD10023FB607B681B6815
:1023C8001B68FB607B681B685B68FB60FB687B685D
:1023D8009B8D19467868FFF7D1FD02E07868FEF713
:1023E80021F9002302E0002300E0022318463037D9
:1023F800BD4680BD2DE9B04FC0B000AFC7F8F400AE
:10240800D7F8F4301B681B6923F44050D7F8F43030
:10241800D968D7F8F4301A6840EA01031361D7F88D
:10242800F4309A68D7F8F4301B691A43D7F8F430B7
:102438005B691A43D7F8F430DB691343C7F8F830FF
:10244800D7F8F4301B68DB6823F4164121F00C013F
:10245800D7F8F4301A68D7F8F8300B43D360D7F8B8
:10246800F4301B685B6923F44070D7F8F43099693D
:10247800D7F8F4301A6840EA01035361D7F8F4300A
:102488001A688F4B9A4205D0D7F8F4301A688D4BEA
:102498009A4204D1FFF7B8F9C7F8FC0003E0FFF748
:1024A8009FF9C7F8FC00D7F8F430DB69B3F5004FA3
:1024B80040F00C81D7F8FC300022C7F8E830C7F8A4
:1024C800EC20D7E93A4522462B469118B9655B417D
:1024D800FB65D7E91623214612EB0108294643EB91
:1024E80001094FF000024FF000034FEAC90343EA25
:1024F80058734FEAC80290469946234618EB0303DF
:10250800C7F8E0302B4649EB0303C7F8E430D7F8A7
:10251800F4305B680022C7F8D830C7F8DC20D7E968
:1025280036120B46DB183B65134642EB03037B650B
:10253800D7E91423D7E93801FDF742FE02460B46D6
:10254800614BA3FB02235B091C01D7F8FC30002276
:10255800C7F8D030C7F8D420D7E9348942464B466B
:102568009118B9645B41FB64D7E91223414612EB29
:10257800010A494643EB010B4FF000024FF00003FC
:102588004FEACB0343EA5A734FEACA0292469B4684
:1025980043461AEB0303C7F8C8304B464BEB03031B
:1025A800C7F8CC30D7F8F4305B680022C7F8C030E1
:1025B800C7F8C420D7E930120B46DB183B64134632
:1025C80042EB03037B64D7E91023D7E93201FDF717
:1025D800F7FD02460B4611463B4BA3FB01235B0963
:1025E800642202FB03F3CB1ADB0003F13202364B01
:1025F800A3FB02235B095B0003F4F8731C44D7F8C0
:10260800FC300022C7F8B830C7F8BC20D7E92E89BB
:1026180042464B469118B9635B41FB63D7E90E23E9
:1026280041465118396349464B417B634FF00002DC
:102638004FF00003D7E90CAB5946CB00514643EAAB
:1026480051735146CA0010461946034642469B1824
:10265800C7F8B0304B460A4642EB0303C7F8B4301C
:10266800D7F8F4305B680022C7F8A830C7F8AC2068
:10267800D7E92A120B46DB18BB62134642EB030369
:10268800FB62D7E90A23D7E92C01FDF799FD024639
:102698000B460D4BA3FB02135B09642101FB03F3FB
:1026A800D31ADB003233084AA2FB03235B0903F089
:1026B8000702D7F8F4301B6822449A6006E100BF8D
:1026C80000100140001401401F85EB51D7F8FC3081
:1026D8000022C7F8A030C7F8A420D7E928894246C5
:1026E8004B46911839625B417B62D7E90823414622
:1026F8005418494643EB01054FF000024FF0000320
:10270800EB0043EA5473E20014461D464346E318BF
:10271800C7F898304B4645EB0303C7F89C30D7F809
:10272800F4305B680022C7F89030C7F894204FF067
:1027380000024FF00003D7E9244529468B002146C3
:1027480043EA917321468A00D7E92601FDF738FD4F
:1027580002460B46604BA3FB02235B091C01D7F81A
:10276800FC300022C7F88830C7F88C20D7E92289C6
:1027780042464B469118B9615B41FB61D7E9062394
:1027880041465118396149464B417B614FF000027F
:102798004FF00003D7E904AB5946CB00514643EA52
:1027A80051735146CA0010461946034642469B18C3
:1027B800C7F880304B460A4642EB0303C7F884301B
:1027C800D7F8F4305B680022BB67FA674FF0000265
:1027D8004FF00003D7E91E8949468B00414643EA7A
:1027E800917341468A00D7E92001FDF7E9FC0246CA
:1027F8000B461146384BA3FB01235B09642202FBFD
:1028080003F3CB1A1B013233334AA2FB03235B09C0
:1028180003F0F0031C44D7F8FC3000223B677A67CA
:10282800D7E91C8942464B469118B9605B41FB6069
:10283800D7E9022341465118396049464B417B602C
:102848004FF000024FF00003D7E900AB5946CB0028
:10285800514643EA51735146CA0010461946034689
:1028680042469B18BB664B460A4642EB0303FB668F
:10287800D7F8F4305B6800223B667A664FF00002B6
:102888004FF00003D7E9188949468B00414643EACF
:10289800917341468A00D7E91A01FDF791FC024677
:1028A8000B460D4BA3FB02135B09642101FB03F3E9
:1028B800D31A1B013233084AA2FB03235B0903F036
:1028C8000F02D7F8F4301B6822449A6000BF07F55E
:1028D8008077BD46BDE8B08F1F85EB5180B500AF4E
:1028E8000E4B1B680D4A43F4007313600B4B1B68B7
:1028F8000A4A43F480631360084B1B68074A43F491
:10290800807313600320FEF78BF80F2000F008F89F
:10291800FDF7ACFE0023184680BD00BF003C024016
:1029280080B582B000AF7860124B1A68124B1B78E2
:1029380019464FF47A73B3FBF1F3B2FBF3F318467D
:10294800FEF7A3F80346002B01D001230EE07B68B5
:102958000F2B0AD8002279684FF0FF30FEF76BF88A
:10296800064A7B681360002300E0012318460837F5
:10297800BD4680BD000000200800002004000020A3
:1029880080B400AF064B1B781A46064B1B681344ED
:10299800044A136000BFBD465DF8047B704700BF62
:1029A800080000207400002080B400AF034B1B68AF
:1029B8001846BD465DF8047B704700BF74000020D0
:1029C80002440346934200D1704703F8011BF9E71C
:1029D80070B50D4D0D4C641BA4100026A64209D1FC
:1029E8000B4D0C4C00F018F8641BA4100026A642EE
:1029F80005D170BD55F8043B98470136EEE755F808
:102A0800043B98470136F2E7582A0008582A00087C
:102A1800582A00085C2A0008F8B500BFF8BC08BCB2
:102A28009E467047F8B500BFF8BC08BC9E46704784
:102A38000000000000000000010203040607080966
:082A480000000000010203047C
:082A5000A8D7FF7F0100000080
:042A5800AD010008C4
:042A5C0089010008E4
:0C2A60000024F400100000000100000041
:0400000508000835B2
:00000001FF
