:020000040800F2
:10000000000002202D080008D1060008D7060008CD
:10001000DD060008E3060008E9060008000000000D
:10002000000000000000000000000000EF060008D3
:10003000FD060008000000000B0700081907000873
:100040007D0800087D0800087D0800087D0800087C
:100050007D0800087D0800087D0800087D0800086C
:100060007D0800087D0800087D0800087D0800085C
:100070007D0800087D0800087D0800087D0800084C
:100080007D0800087D0800087D0800087D0800083C
:100090007D0800087D0800087D0800087D0800082C
:1000A0007D0800087D0800087D0800087D0800081C
:1000B0007D0800087D0800087D0800087D0800080C
:1000C0007D0800087D0800087D0800087D080008FC
:1000D0007D0800087D0800087D0800087D080008EC
:1000E0007D0800087D0800087D0800087D080008DC
:1000F0007D0800087D0800087D0800087D080008CC
:100100007D0800087D0800087D0800087D080008BB
:100110007D0800087D0800087D0800087D080008AB
:100120007D0800087D0800087D0800087D0800089B
:100130007D0800087D0800087D0800087D0800088B
:100140007D0800087D0800087D0800087D0800087B
:100150007D0800087D0800087D0800087D0800086B
:100160007D0800087D0800087D0800087D0800085B
:100170007D0800087D0800087D08000800000000D8
:080180007D0800087D0800085D
:1001880010B5054C237833B9044B13B10448AFF3C9
:1001980000800123237010BD0C0000200000000027
:1001A8006821000808B5034B1BB103490348AFF3A6
:1001B800008008BD00000000100000206821000831
:1001C80053B94AB9002908BF00281CBF4FF0FF31B6
:1001D8004FF0FF3000F070B9ADF1080C6DE904CEB6
:1001E80000F006F8DDF804E0DDE9022304B070470A
:1001F8002DE9F047089E0D4604460F46002B4AD1CC
:100208008A42944665D9B2FA82F343B102FA03FCF2
:10021800C3F120029F4020FA02F217439C404FEAA4
:100228001C4E1FFA8CF5B7FBFEF1220C0EFB117762
:1002380042EA074201FB05F090420AD91CEB020290
:1002480001F1FF3780F01C81904240F21981023998
:100258006244121AA4B2B2FBFEF00EFB102244EA6A
:10026800024400FB05F5A5420AD91CEB040400F181
:10027800FF3280F00781A54240F2048164440238CD
:1002880040EA0140641B00211EB1DC400023C6E99E
:100298000043BDE8F0878B4208D9002E00F0ED80BE
:1002A8000021C6E900050846BDE8F087B3FA83F1E6
:1002B800002949D1AB4202D3824200F2F880841A65
:1002C80065EB030201201746002EE2D0C6E900477D
:1002D800DFE702B9FFDEB2FA82F3002B40F090802C
:1002E8008A1A4FEA1C471FFA8CFE0121B2FBF7F568
:1002F80007FB1520220C42EA00420EFB05F0904253
:1003080008D91CEB020205F1FF3802D2904200F234
:10031800CB804546121AA4B2B2FBF7F007FB1022B5
:1003280044EA02440EFB00FEA64508D91CEB04046F
:1003380000F1FF3202D2A64500F2BB801046A4EBC2
:100348000E0440EA05409FE7C1F120078B4022FADE
:1003580007FC4CEA030C05FA01F420FA07F3FD4008
:100368004FEA1C492343B5FBF9F81FFA8CFE09FB39
:1003780018551C0C44EA054408FB0EF5A54202FA80
:1003880001F200FA01F00BD91CEB040408F1FF3A62
:1003980080F08880A54240F28580A8F10208644474
:1003A800641B9DB2B4FBF9F309FB134445EA04440A
:1003B80003FB0EFEA64508D91CEB040403F1FF3528
:1003C8006CD2A6456AD9023B644443EA0843A3FBBE
:1003D8000295A4EB0E04AC42C846AE4656D353D0A1
:1003E80056B1B0EB080264EB0E0404FA07F7CA40F2
:1003F800CC401743C6E9007418460021BDE8F087D1
:10040800C3F1200102FA03FC20FA01F225FA01F1F6
:100418009D402A434FEA1C471FFA8CFEB1FBF7F0B8
:1004280007FB1015110C41EA054100FB0EF58D4242
:1004380004FA03F408D91CEB010100F1FF382FD2AC
:100448008D422DD902386144491B92B2B1FBF7F5B0
:1004580007FB151142EA014205FB0EF1914208D94A
:100468001CEB020205F1FF3816D2914214D9023D65
:100478006244521A45EA004138E73146304608E7F7
:100488003946E6E61046FBE64845A9D2B9EB02082C
:1004980065EB0C0E013BA3E74546EAE72B4694E7DC
:1004A8004046D1E7D0467BE7023D624432E7084642
:1004B8000AE76444023842E7704700BF80B483B05B
:1004C80000AF00237B60104B1B6B0F4A43F0800387
:1004D80013630D4B1B6B03F080037B607B68002369
:1004E8003B60094B1B6B084A43F008031363064B38
:1004F8001B6B03F008033B603B6800BF0C37BD462D
:100508005DF8047B704700BF0038024080B582B0B8
:1005180000AF01F087FD00F03FF8FFF7CFFF00F0D4
:100528000FF901224021184800F028FC012220215F
:10053800164800F023FC01220121144800F01EFC9B
:1005480001224FF48051124800F018FC01224FF4A8
:1005580000510F4800F012FC01224FF480410C4872
:1005680000F00CFC6123FB71F91D0A2301220948E4
:1005780001F091F90346002BF6D1F91D0A23012257
:10058800044801F0FDF8EFE70008024000040240CB
:10059800000C02402800002080B594B000AF07F19D
:1005A800200330220021184601F0AEFD07F10C03AC
:1005B80000221A605A609A60DA601A610023BB60F0
:1005C800284B1B6C274A43F080531364254B1B6C44
:1005D80003F08053BB60BB6800237B60224B1B6821
:1005E800214A43F4804313601F4B1B6803F4804384
:1005F8007B607B6801233B624FF480337B6202237C
:10060800BB634FF48003FB6304233B64A8237B6430
:100618000223BB640423FB6407F12003184600F09F
:10062800C7FB0346002B01D000F020F80F23FB6026
:1006380002233B6100237B614FF4A053BB614FF45D
:100648008053FB6107F10C030521184600F028FED2
:100658000346002B01D000F009F800BF5037BD4613
:1006680080BD00BF003802400070004080B400AF79
:1006780072B600BFFEE7000080B483B000AF00236D
:100688007B60104B5B6C0F4A43F4804353640D4B03
:100698005B6C03F480437B607B6800233B60094B01
:1006A8001B6C084A43F080531364064B1B6C03F021
:1006B80080533B603B6800BF0C37BD465DF8047B48
:1006C800704700BF0038024080B400AFFEE780B436
:1006D80000AFFEE780B400AFFEE780B400AFFEE7EE
:1006E80080B400AFFEE780B400AF00BFBD465DF840
:1006F800047B704780B400AF00BFBD465DF8047B43
:10070800704780B400AF00BFBD465DF8047B7047FA
:1007180080B500AF01F0D8FC00BF80BD80B400AF49
:10072800064BD3F88830054A43F47003C2F8883082
:1007380000BFBD465DF8047B704700BF00ED00E0D8
:1007480080B500AF114B124A1A60104B4FF4E132DA
:100758005A600E4B00229A600C4B0022DA600B4B59
:1007680000221A61094B0C225A61084B00229A6137
:10077800064B0022DA61054800F0B2FF0346002B61
:1007880001D0FFF773FF00BF80BD00BF2800002025
:100798000048004080B58AB000AF786007F11403C4
:1007A80000221A605A609A60DA601A617B681B68D6
:1007B800194A93422CD100233B61184B1B6C174AF2
:1007C80043F480231364154B1B6C03F480233B61B3
:1007D8003B690023FB60114B1B6B104A43F0080375
:1007E80013630E4B1B6B03F00803FB60FB684FF4AD
:1007F80040737B610223BB610023FB6103233B62DF
:1008080007237B6207F114031946054800F01AF91B
:1008180000BF2837BD4680BD004800400038024070
:10082800000C0240DFF834D0FFF778FF0C480D4980
:100838000D4A002302E0D458C4500433C4188C4233
:10084800F9D30A4A0A4C002301E013600432A24299
:10085800FBD301F061FCFFF759FE7047000002204E
:10086800000000200C000020A82100080C00002037
:1008780074000020FEE7000080B485B000AF786007
:100888007B6803F00703FB600C4BDB68BB60BA684E
:100898004FF6FF031340BB60FB681A02BB681343A3
:1008A80043F0BF6343F40033BB60044ABB68D360C2
:1008B80000BF1437BD465DF8047B704700ED00E0CB
:1008C80080B400AF044BDB681B0A03F0070318462B
:1008D800BD465DF8047B704700ED00E080B483B04E
:1008E80000AF03463960FB7197F90730002B0ADB2C
:1008F8003B68DAB20C4997F907301201D2B20B44BF
:1009080083F800230AE03B68DAB20849FB7903F070
:100918000F03043B1201D2B20B441A7600BF0C3706
:10092800BD465DF8047B704700E100E000ED00E0A3
:1009380080B489B000AFF860B9607A60FB6803F0F2
:100948000703FB61FB69C3F10703042B28BF0423DA
:10095800BB61FB690433062B02D9FB69033B00E04A
:1009680000237B614FF0FF32BB6902FA03F3DA43DD
:10097800BB681A407B699A404FF0FF317B6901FAE6
:1009880003F3D9437B680B40134318462437BD460D
:100998005DF8047B7047000080B582B000AF7860D6
:1009A8007B68013BB3F1807F01D301230FE00A4A42
:1009B8007B68013B53600F214FF0FF30FFF78EFF3C
:1009C800054B00229A60044B07221A600023184640
:1009D8000837BD4680BD00BF10E000E080B582B09A
:1009E80000AF78607868FFF747FF00BF0837BD465B
:1009F80080BD80B586B000AF0346B9607A60FB73EE
:100A080000237B61FFF75CFF78617A68B9687869D1
:100A1800FFF78EFF024697F90F3011461846FFF789
:100A28005DFF00BF1837BD4680BD80B582B000AFFE
:100A380078607868FFF7B0FF034618460837BD4668
:100A480080BD000080B489B000AF786039600023B1
:100A58007B6100233B610023BB610023FB616BE1E9
:100A68000122FB6902FA03F37B613B681B687A6920
:100A780013403B613A697B699A4240F05A813B686E
:100A88005B6803F00303012B05D03B685B6803F048
:100A98000303022B30D17B689B68BB61FB695B0059
:100AA800032202FA03F3DB43BA691340BB613B68D4
:100AB800DA68FB695B0002FA03F3BA691343BB61A6
:100AC8007B68BA699A607B685B68BB610122FB69D5
:100AD80002FA03F3DB43BA691340BB613B685B6806
:100AE8001B0903F00102FB6902FA03F3BA69134315
:100AF800BB617B68BA695A603B685B6803F00303B3
:100B0800032B17D07B68DB68BB61FB695B000322A2
:100B180002FA03F3DB43BA691340BB613B689A6886
:100B2800FB695B0002FA03F3BA691343BB617B6894
:100B3800BA69DA603B685B6803F00303022B23D1D0
:100B4800FB69DA087B68083253F82230BB61FB691D
:100B580003F007039B000F2202FA03F3DB43BA6991
:100B68001340BB613B681A69FB6903F007039B00EC
:100B780002FA03F3BA691343BB61FB69DA087B68BD
:100B88000832B96943F822107B681B68BB61FB69AE
:100B98005B00032202FA03F3DB43BA691340BB612B
:100BA8003B685B6803F00302FB695B0002FA03F32E
:100BB800BA691343BB617B68BA691A603B685B68B2
:100BC80003F44033002B00F0B4800023FB60604B3B
:100BD8005B6C5F4A43F4804353645D4B5B6C03F486
:100BE8008043FB60FB685B4AFB699B08023352F851
:100BF8002330BB61FB6903F003039B000F2202FA59
:100C080003F3DB43BA691340BB617B68524A9342E2
:100C18002BD07B68514A934225D07B68504A934237
:100C28001FD07B684F4A934219D07B684E4A934243
:100C380013D07B684D4A93420DD07B684C4A93424F
:100C480007D07B684B4A934201D107230EE0082363
:100C58000CE006230AE0052308E0042306E003234A
:100C680004E0022302E0012300E00023FA6902F015
:100C7800030292009340BA691343BB613549FB698B
:100C88009B080233BA6941F823203B4B9B68BB6140
:100C98003B69DB43BA691340BB613B685B6803F49B
:100CA8008013002B03D0BA693B691343BB61324AF6
:100CB800BB699360304BDB68BB613B69DB43BA6956
:100CC8001340BB613B685B6803F40013002B03D03F
:100CD800BA693B691343BB61274ABB69D360264B9A
:100CE8005B68BB613B69DB43BA691340BB613B6826
:100CF8005B6803F40033002B03D0BA693B691343E4
:100D0800BB611D4ABB6953601B4B1B68BB613B69D8
:100D1800DB43BA691340BB613B685B6803F480330B
:100D2800002B03D0BA693B691343BB61124ABB6904
:100D38001360FB690133FB61FB690F2B7FF690AEF3
:100D480000BF00BF2437BD465DF8047B704700BF75
:100D58000038024000380140000002400004024010
:100D680000080240000C024000100240001402403B
:100D780000180240001C0240003C014080B483B0CF
:100D880000AF78600B467B8013467B707B78002B26
:100D980003D07A887B689A6103E07B881A047B68B1
:100DA8009A6100BF0C37BD465DF8047B70470000B0
:100DB80080B586B000AF78607B68002B01D1012335
:100DC80067E27B681B6803F00103002B75D0884B32
:100DD8009B6803F00C03042B0CD0854B9B6803F035
:100DE8000C03082B12D1824B5B6803F48003B3F524
:100DF800800F0BD17E4B1B6803F40033002B5BD0B4
:100E08007B685B68002B57D1012342E27B685B68F3
:100E1800B3F5803F06D1764B1B68754A43F480339F
:100E280013601DE07B685B68B3F5A02F0CD1704B95
:100E38001B686F4A43F4802313606D4B1B686C4A30
:100E480043F4803313600BE0694B1B68684A23F452
:100E580080331360664B1B68654A23F48023136054
:100E68007B685B68002B13D001F042F9386108E019
:100E780001F03EF902463B69D31A642B01D90323DA
:100E880007E25B4B1B6803F40033002BF0D014E03F
:100E980001F02EF9386108E001F02AF902463B69B1
:100EA800D31A642B01D90323F3E1514B1B6803F4D4
:100EB8000033002BF0D100E000BF7B681B6803F013
:100EC8000203002B63D04A4B9B6803F00C03002BF2
:100ED8000BD0474B9B6803F00C03082B1CD1444BE9
:100EE8005B6803F48003002B16D1414B1B6803F0A9
:100EF8000203002B05D07B68DB68012B01D001239E
:100F0800C7E13B4B1B6823F0F8027B681B69DB00D9
:100F1800374913430B603AE07B68DB68002B20D02D
:100F2800344B01221A6001F0E3F8386108E001F05F
:100F3800DFF802463B69D31A022B01D90323A8E143
:100F48002B4B1B6803F00203002BF0D0284B1B68C7
:100F580023F0F8027B681B69DB00254913430B600B
:100F680015E0244B00221A6001F0C2F8386108E04D
:100F780001F0BEF802463B69D31A022B01D90323BC
:100F880087E11B4B1B6803F00203002BF0D17B6841
:100F98001B6803F00803002B36D07B685B69002BC5
:100FA80016D0154B01221A6001F0A2F8386108E04A
:100FB80001F09EF802463B69D31A022B01D903239C
:100FC80067E10B4B5B6F03F00203002BF0D01BE0D3
:100FD800094B00221A6001F08BF838610EE001F02D
:100FE80087F802463B69D31A022B07D9032350E13D
:100FF8000038024000004742800E4742884B5B6F32
:1010080003F00203002BEAD17B681B6803F004039A
:10101800002B00F097800023FB75814B1B6C03F0BD
:101028008053002B0FD10023BB607D4B1B6C7C4A87
:1010380043F0805313647A4B1B6C03F08053BB60FE
:10104800BB680123FB75774B1B6803F48073002B87
:1010580018D1744B1B68734A43F48073136001F012
:1010680047F8386108E001F043F802463B69D31AB3
:10107800022B01D903230CE16A4B1B6803F480732C
:10108800002BF0D07B689B68012B06D1644B1B6F4B
:10109800634A43F0010313671CE07B689B68052BD8
:1010A8000CD15F4B1B6F5E4A43F0040313675C4B24
:1010B8001B6F5B4A43F0010313670BE0584B1B6F30
:1010C800574A23F001031367554B1B6F544A23F00B
:1010D800040313677B689B68002B15D001F008F8A0
:1010E80038610AE001F004F802463B69D31A41F27C
:1010F8008832934201D90323CBE0494B1B6F03F09D
:101108000203002BEED014E000F0F2FF38610AE091
:1011180000F0EEFF02463B69D31A41F2883293424F
:1011280001D90323B5E03E4B1B6F03F00203002BEC
:10113800EED1FB7D012B05D1394B1B6C384A23F0CE
:10114800805313647B689B69002B00F0A180344BAB
:101158009B6803F00C03082B5CD07B689B69022B0F
:1011680041D1314B00221A6000F0C2FF386108E01B
:1011780000F0BEFF02463B69D31A022B01D90323B4
:1011880087E0274B1B6803F00073002BF0D17B68C6
:10119800DA697B681B6A1A437B685B6A9B011A439E
:1011A8007B689B6A5B08013B1B041A437B68DB6A0C
:1011B8001B061B4913434B601B4B01221A6000F0AE
:1011C80097FF386108E000F093FF02463B69D31AA5
:1011D800022B01D903235CE0114B1B6803F0007359
:1011E800002BF0D054E0104B00221A6000F080FF72
:1011F800386108E000F07CFF02463B69D31A022BF5
:1012080001D9032345E0064B1B6803F00073002B4C
:10121800F0D13DE07B689B69012B07D1012338E0C1
:101228000038024000700040600047421B4B5B687A
:10123800FB607B689B69012B28D0FB6803F4800264
:101248007B68DB699A4221D1FB6803F03F027B6827
:101258001B6A9A421AD1FA6847F6C07313407A6833
:10126800526A9201934211D1FB6803F440327B68C1
:101278009B6A5B08013B1B049A4207D1FB6803F099
:1012880070627B68DB6A1B069A4201D0012300E08A
:10129800002318461837BD4680BD00BF00380240FD
:1012A80080B584B000AF786039607B68002B01D1CD
:1012B8000123CCE0684B1B6803F007033A689A42A5
:1012C8000CD9654B3A68D2B21A70634B1B6803F0AD
:1012D80007033A689A4201D00123B8E07B681B688B
:1012E80003F00203002B20D07B681B6803F0040383
:1012F800002B05D0594B9B68584A43F4E053936040
:101308007B681B6803F00803002B05D0534B9B68D0
:10131800524A43F460439360504B9B6823F0F002B9
:101328007B689B684D4913438B607B681B6803F09F
:101338000103002B44D07B685B68012B07D1474B26
:101348001B6803F40033002B19D101237FE07B686D
:101358005B68022B03D07B685B68032B07D13F4B8C
:101368001B6803F00073002B09D101236FE03B4B8E
:101378001B6803F00203002B01D1012367E0374B00
:101388009B6823F003027B685B68344913438B60D6
:1013980000F0AEFEF8600AE000F0AAFE0246FB6824
:1013A800D31A41F28832934201D903234FE02B4BE1
:1013B8009B6803F00C027B685B689B009A42EBD148
:1013C800254B1B6803F007033A689A420CD2224B5C
:1013D8003A68D2B21A70204B1B6803F007033A68C8
:1013E8009A4201D0012332E07B681B6803F00403B2
:1013F800002B08D0194B9B6823F4E0527B68DB680C
:10140800164913438B607B681B6803F00803002BA5
:1014180009D0124B9B6823F460427B681B69DB0090
:101428000E4913438B6000F021F802460B4B9B6872
:101438001B0903F00F030A49CB5C22FA03F3094A9C
:101448001360094B1B68184600F00EFE002318466F
:101458001037BD4680BD00BF003C02400038024046
:101468008021000800000020040000202DE9B04F72
:1014780094B000AF00237B640023FB6400233B642B
:101488000023BB64794B9B6803F00C03082B0DD039
:10149800082B00F2E180002B02D0042B03D0DBE004
:1014A800734BBB64DBE0734BBB64D8E06F4B5B688A
:1014B80003F03F037B646D4B5B6803F48003002BF0
:1014C80063D06A4B5B689B090022BB63FA63BB6B02
:1014D800C3F308033B6300237B63D7E90C4522462B
:1014E8002B464FF000004FF00001590141EAD2614C
:1014F800500102460B462146511A3961294663EBD1
:1015080001037B614FF000024FF00003D7E904AB01
:1015180059468B01514643EA916351468A01514627
:10152800B2EB0108594663EB01094FF000024FF096
:1015380000034FEAC90343EA58734FEAC8029046CA
:101548009946234618EB0303BB602B4649EB03037C
:10155800FB604FF000024FF00003D7E9024529462F
:101568004B02214643EAD15321464A021046194606
:101578007B6C0022BB62FA62D7E90A23FEF720FEE1
:1015880002460B461346FB6458E0384B5B689B09E0
:10159800002218461146C0F308033B6200237B6211
:1015A800D7E9088942464B464FF000004FF000014A
:1015B800590141EAD261500102460B464146B2EB5D
:1015C800010A494663EB010B4FF000024FF000039C
:1015D8004FEA8B1343EA9A634FEA8A12B2EB0A0482
:1015E80063EB0B054FF000024FF00003EB0043EAFA
:1015F8005473E20014461D464346E3183B604B46CD
:1016080045EB03037B604FF000024FF00003D7E97E
:10161800004529468B02214643EA915321468A0216
:10162800104619467B6C0022BB61FA61D7E9062394
:10163800FEF7C6FD02460B461346FB640B4B5B6880
:101648001B0C03F0030301335B003B64FA6C3B6C37
:10165800B2FBF3F3BB6402E0054BBB6400BFBB6C99
:1016680018465037BD46BDE8B08F00BF003802406D
:101678000024F40000127A0080B400AF034B1B680A
:101688001846BD465DF8047B704700BF0000002087
:1016980080B500AFFFF7F0FF0246054B9B689B0A39
:1016A80003F007030349CB5C22FA03F3184680BD15
:1016B800003802409021000880B500AFFFF7DCFF3A
:1016C8000246054B9B685B0B03F007030349CB5CA1
:1016D80022FA03F3184680BD003802409021000822
:1016E80080B582B000AF78607B68002B01D1012300
:1016F80042E07B6893F84130DBB2002B06D17B686F
:10170800002283F840207868FFF744F87B68242299
:1017180083F841207B681B68DA687B681B6822F4C1
:101728000052DA60786800F009FA7B681B681A6969
:101738007B681B6822F490421A617B681B685A69AF
:101748007B681B6822F02A025A617B681B68DA688A
:101758007B681B6842F40052DA607B6800225A6496
:101768007B68202283F841207B68202283F842206E
:101778007B6800225A63002318460837BD4680BD9F
:1017880080B58AB002AFF860B9603B601346FB8051
:1017980000237B61FB6893F84130DBB2202B75D1C5
:1017A800BB68002B02D0FB88002B01D101236EE01F
:1017B800FB6800225A64FB68212283F8412000F06C
:1017C80097FC7861FB68FA889A84FB68FA88DA845F
:1017D800FB689B68B3F5805F08D1FB681B69002B29
:1017E80004D10023FB61BB68BB6103E0BB68FB61FC
:1017F8000023BB612EE03B6800937B6900228021B7
:10180800F86800F0DFF80346002B05D0FB682022BB
:1018180083F8412003233AE0FB69002B0BD1BB6915
:101828001B881A46FB681B68C2F308025A60BB692A
:101838000233BB6107E0FB691A78FB681B685A60D2
:10184800FB690133FB61FB68DB8C9BB2013B9AB2FD
:10185800FB68DA84FB68DB8C9BB2002BCBD13B683E
:1018680000937B6900224021F86800F0ABF803463A
:10187800002B05D0FB68202283F84120032306E0D3
:10188800FB68202283F84120002300E00223184649
:101898002037BD4680BD80B58AB002AFF860B96018
:1018A8003B601346FB8000237B61FB6893F8423062
:1018B800DBB2202B40F08180BB68002B02D0FB8874
:1018C800002B01D1012379E0FB6800225A64FB68F0
:1018D800222283F84220FB6800221A6300F008FCE9
:1018E8007861FB68FA889A85FB68FA88DA85FB686C
:1018F8009B68B3F5805F08D1FB681B69002B04D196
:101908000023FB61BB68BB6103E0BB68FB6100238C
:10191800BB6147E03B6800937B6900222021F8689F
:1019280000F050F80346002B05D0FB68202283F80E
:101938004220032342E0FB69002B0CD1FB681B68A3
:101948005B689BB2C3F308039AB2BB691A80BB6990
:101958000233BB611FE0FB689B68B3F5805F07D06B
:10196800FB689B68002B0AD1FB681B69002B06D11A
:10197800FB681B685B68DAB2FB691A7008E0FB68F1
:101988001B685B68DBB203F07F03DAB2FB691A708D
:10199800FB690133FB61FB68DB8D9BB2013B9AB2AB
:1019A800FB68DA85FB68DB8D9BB2002BB2D1FB6844
:1019B800202283F84220002300E002231846203723
:1019C800BD4680BD80B586B000AFF860B9603B60A9
:1019D8001346FB713BE03B6AB3F1FF3F37D000F0A1
:1019E80087FB02463B68D31A3A6A9A4202D33B6A9B
:1019F800002B01D103233AE0FB681B68DB6803F086
:101A08000403002B23D0BB68802B20D0BB68402B5D
:101A18001DD0FB681B681B6803F00803082B16D150
:101A280000237B61FB681B681B687B61FB681B6884
:101A38005B687B617B69F86800F01DF8FB68082229
:101A48005A64FB68002283F8402001230FE0FB68FA
:101A58001B681A68BB681340BA689A420CBF012316
:101A68000023DBB21A46FB799A42B4D00023184609
:101A78001837BD4680BD80B495B000AF78607B68EC
:101A88001B680C337B637B6B53E8003F3B633B6B0A
:101A980023F49073FB647B681B680C33FA6C3A641C
:101AA800FB63F96B3A6C41E80023BB63BB6B002B0B
:101AB800E5D17B681B6814333B623B6A53E8003FFF
:101AC800FB61FB6923F00103BB647B681B6814336B
:101AD800BA6CFA62BB62B96AFA6A41E800237B62AF
:101AE8007B6A002BE5D17B681B6B012B19D17B68C6
:101AF8001B680C33FB60FB6853E8003FBB60BB68A6
:101B080023F010037B647B681B680C337A6CBA6122
:101B18007B617969BA6941E800233B613B69002B25
:101B2800E5D17B68202283F842207B6800221A6373
:101B380000BF5437BD465DF8047B70472DE9B04FB0
:101B4800C0B000AFC7F8F400D7F8F4301B681B69C1
:101B580023F44050D7F8F430D968D7F8F4301A682D
:101B680040EA01031361D7F8F4309A68D7F8F430E3
:101B78001B691A43D7F8F4305B691A43D7F8F43075
:101B8800DB691343C7F8F830D7F8F4301B68DB6813
:101B980023F4164121F00C01D7F8F4301A68D7F86D
:101BA800F8300B43D360D7F8F4301B685B6923F433
:101BB8004070D7F8F4309969D7F8F4301A6840EAD9
:101BC80001035361D7F8F4301A688F4B9A4205D055
:101BD800D7F8F4301A688D4B9A4204D1FFF76CFDA0
:101BE800C7F8FC0003E0FFF753FDC7F8FC00D7F87F
:101BF800F430DB69B3F5004F40F00C81D7F8FC30C6
:101C08000022C7F8E830C7F8EC20D7E93A45224661
:101C18002B469118B9655B41FB65D7E91623214628
:101C280012EB0108294643EB01094FF000024FF07F
:101C380000034FEAC90343EA58734FEAC8029046C3
:101C48009946234618EB0303C7F8E0302B4649EBC7
:101C58000303C7F8E430D7F8F4305B680022C7F80C
:101C6800D830C7F8DC20D7E936120B46DB183B65BD
:101C7800134642EB03037B65D7E91423D7E9380100
:101C8800FEF79EFA02460B46614BA3FB02235B0953
:101C98001C01D7F8FC300022C7F8D030C7F8D42090
:101CA800D7E9348942464B469118B9645B41FB64D5
:101CB800D7E91223414612EB010A494643EB010BCF
:101CC8004FF000024FF000034FEACB0343EA5A7388
:101CD8004FEACA0292469B4643461AEB0303C7F8EB
:101CE800C8304B464BEB0303C7F8CC30D7F8F43079
:101CF8005B680022C7F8C030C7F8C420D7E93012A3
:101D08000B46DB183B64134642EB03037B64D7E9BD
:101D18001023D7E93201FEF753FA02460B46114663
:101D28003B4BA3FB01235B09642202FB03F3CB1AA1
:101D3800DB0003F13202364BA3FB02235B095B0095
:101D480003F4F8731C44D7F8FC300022C7F8B83005
:101D5800C7F8BC20D7E92E8942464B469118B9638B
:101D68005B41FB63D7E90E23414651183963494665
:101D78004B417B634FF000024FF00003D7E90CABF7
:101D88005946CB00514643EA51735146CA001046A2
:101D98001946034642469B18C7F8B0304B460A46D8
:101DA80042EB0303C7F8B430D7F8F4305B6800227D
:101DB800C7F8A830C7F8AC20D7E92A120B46DB18B9
:101DC800BB62134642EB0303FB62D7E90A23D7E958
:101DD8002C01FEF7F5F902460B460D4BA3FB021347
:101DE8005B09642101FB03F3D31ADB003233084A91
:101DF800A2FB03235B0903F00702D7F8F4301B6842
:101E080022449A6006E100BF00100140001401401E
:101E18001F85EB51D7F8FC300022C7F8A030C7F86F
:101E2800A420D7E9288942464B46911839625B417C
:101E38007B62D7E9082341465418494643EB01051C
:101E48004FF000024FF00003EB0043EA5473E20046
:101E580014461D464346E318C7F898304B4645EBF1
:101E68000303C7F89C30D7F8F4305B680022C7F842
:101E78009030C7F894204FF000024FF00003D7E9E4
:101E8800244529468B00214643EA917321468A005E
:101E9800D7E92601FEF794F902460B46604BA3FBEF
:101EA80002235B091C01D7F8FC300022C7F88830F0
:101EB800C7F88C20D7E9228942464B469118B96168
:101EC8005B41FB61D7E90623414651183961494610
:101ED8004B417B614FF000024FF00003D7E904ABA0
:101EE8005946CB00514643EA51735146CA00104641
:101EF8001946034642469B18C7F880304B460A46A7
:101F080042EB0303C7F88430D7F8F4305B6800224B
:101F1800BB67FA674FF000024FF00003D7E91E894C
:101F280049468B00414643EA917341468A00D7E906
:101F38002001FEF745F902460B461146384BA3FB34
:101F480001235B09642202FB03F3CB1A1B01323322
:101F5800334AA2FB03235B0903F0F0031C44D7F8C0
:101F6800FC3000223B677A67D7E91C8942464B461A
:101F78009118B9605B41FB60D7E9022341465118CB
:101F8800396049464B417B604FF000024FF0000337
:101F9800D7E900AB5946CB00514643EA5173514645
:101FA800CA0010461946034642469B18BB664B4674
:101FB8000A4642EB0303FB66D7F8F4305B6800225D
:101FC8003B667A664FF000024FF00003D7E91889A4
:101FD80049468B00414643EA917341468A00D7E956
:101FE8001A01FEF7EDF802460B460D4BA3FB021350
:101FF8005B09642101FB03F3D31A1B013233084A3E
:10200800A2FB03235B0903F00F02D7F8F4301B6827
:1020180022449A6000BF07F58077BD46BDE8B08FBF
:102028001F85EB5180B500AF0E4B1B680D4A43F47A
:10203800007313600B4B1B680A4A43F480631360F8
:10204800084B1B68074A43F4807313600320FEF7AC
:10205800C5FC0F2000F008F8FEF70EFB0023184619
:1020680080BD00BF003C024080B582B000AF786000
:10207800124B1A68124B1B7819464FF47A73B3FB4C
:10208800F1F3B2FBF3F31846FEF7CFFC0346002B3F
:1020980001D001230EE07B680F2B0AD80022796853
:1020A8004FF0FF30FEF7A5FC064A7B68136000235B
:1020B80000E0012318460837BD4680BD0000002017
:1020C800080000200400002080B400AF064B1B78F5
:1020D8001A46064B1B681344044A136000BFBD46EA
:1020E8005DF8047B704700BF0800002070000020E6
:1020F80080B400AF034B1B681846BD465DF8047BEF
:10210800704700BF7000002002440346934200D18C
:10211800704703F8011BF9E770B50D4D0D4C641BB2
:10212800A4100026A64209D10B4D0C4C00F018F85B
:10213800641BA4100026A64205D170BD55F8043BC7
:1021480098470136EEE755F8043B98470136F2E721
:10215800A0210008A0210008A0210008A42100084F
:10216800F8B500BFF8BC08BC9E467047F8B500BF7C
:08217800F8BC08BC9E4670474C
:102180000000000000000000010203040607080927
:0821900000000000010203043D
:0821980060E0FF7F0100000080
:0421A000AD01000885
:0421A40089010008A5
:0C21A8000024F400100000000100000002
:040000050800082DBA
:00000001FF
