:020000040800F2
:100000000000022055130008A5100008AB100008DE
:10001000B1100008B7100008BD1000080000000073
:10002000000000000000000000000000C3100008F5
:10003000D110000800000000DF100008ED100008DB
:10004000A5130008A5130008A5130008A5130008B0
:10005000A5130008A5130008A5130008A5130008A0
:10006000A5130008A5130008A5130008A513000890
:10007000A5130008A5130008A5130008A513000880
:10008000A5130008A5130008A5130008A513000870
:10009000A5130008A5130008A5130008A513000860
:1000A000A5130008A5130008A5130008A513000850
:1000B000A5130008A5130008A5130008A513000840
:1000C000A5130008A5130008A5130008A513000830
:1000D000A5130008A5130008A5130008A513000820
:1000E000A5130008A5130008A5130008A513000810
:1000F000A5130008A5130008A5130008A513000800
:10010000A5130008A5130008A5130008A5130008EF
:10011000A5130008A5130008A5130008A5130008DF
:10012000A5130008A5130008A5130008A5130008CF
:10013000A5130008A5130008A5130008A5130008BF
:10014000A5130008A5130008A5130008A5130008AF
:10015000A5130008A5130008A5130008A51300089F
:10016000A5130008A5130008A5130008A51300088F
:10017000A5130008A5130008A5130008000000003F
:08018000A5130008A5130008F7
:1001900010B5054C237833B9044B13B10448AFF3C1
:1001A00000800123237010BDD40100200000000056
:1001B000B854000808B5034B1BB103490348AFF31B
:1001C000008008BD00000000D8010020B8540008DD
:1001D00081F0004102E000BF83F0004330B54FEAF8
:1001E00041044FEA430594EA050F08BF90EA020F65
:1001F0001FBF54EA000C55EA020C7FEA645C7FEAF8
:10020000655C00F0E2804FEA5454D4EB5555B8BF1A
:100210006D420CDD2C4480EA020281EA030382EA8B
:10022000000083EA010180EA020281EA0303362D1D
:1002300088BF30BD11F0004F4FEA01314FF4801CF0
:100240004CEA113102D0404261EB410113F0004F02
:100250004FEA03334CEA133302D0524263EB4303B9
:1002600094EA050F00F0A780A4F10104D5F1200E57
:100270000DDB02FA0EFC22FA05F2801841F10001B2
:1002800003FA0EF2801843FA05F359410EE0A5F186
:1002900020050EF1200E012A03FA0EFC28BF4CF0B7
:1002A000020C43FA05F3C01851EBE37101F000456D
:1002B00007D54FF0000EDCF1000C7EEB00006EEB7A
:1002C0000101B1F5801F1BD3B1F5001F0CD3490804
:1002D0005FEA30004FEA3C0C04F101044FEA44525B
:1002E00012F5800F80F09A80BCF1004F08BF5FEAE2
:1002F000500C50F1000041EB045141EA050130BDC2
:100300005FEA4C0C404141EB0101013C28BFB1F5D3
:10031000801FE9D291F0000F04BF01460020B1FA1E
:1003200081F308BF2033A3F10B03B3F120020CDAF1
:100330000C3208DD02F1140CC2F10C0201FA0CF0CF
:1003400021FA02F10CE002F11402D8BFC2F1200C34
:1003500001FA02F120FA0CFCDCBF41EA0C019040EA
:10036000E41AA2BF01EB0451294330BD6FEA040433
:100370001F3C1CDA0C340EDC04F11404C4F120021E
:1003800020FA04F001FA02F340EA030021FA04F330
:1003900045EA030130BDC4F10C04C4F1200220FA87
:1003A00002F001FA04F340EA0300294630BD21FAC5
:1003B00004F0294630BD94F0000F83F4801306BF8B
:1003C00081F480110134013D4EE77FEA645C18BF7F
:1003D0007FEA655C29D094EA050F08BF90EA020F16
:1003E00005D054EA000C04BF1946104630BD91EA0E
:1003F000030F1EBF0021002030BD5FEA545C05D111
:100400004000494128BF41F0004130BD14F580044F
:100410003CBF01F5801130BD01F0004545F0FE41C3
:1004200041F470014FF0000030BD7FEA645C1ABFF8
:10043000194610467FEA655C1CBF0B46024650EA2F
:10044000013406BF52EA033591EA030F41F400215B
:1004500030BD00BF90F0000F04BF0021704730B5E1
:100460004FF4806404F132044FF000054FF00001B6
:1004700050E700BF90F0000F04BF0021704730B577
:100480004FF4806404F1320410F0004548BF40424C
:100490004FF000013EE700BF42004FEAE2014FEAA1
:1004A00031014FEA02701FBF12F07F4393F07F4F7C
:1004B00081F06051704732F07F4208BF704793F07F
:1004C0007F4F04BF41F40021704730B54FF4607492
:1004D00001F0004521F000411CE700BF50EA010295
:1004E00008BF704730B54FF000050AE050EA01023E
:1004F00008BF704730B511F0004502D5404261EBAE
:1005000041014FF4806404F132045FEA915C3FF4EE
:10051000D8AE4FF003025FEADC0C18BF03325FEA8B
:10052000DC0C18BF033202EBDC02C2F1200300FA3C
:1005300003FC20FA02F001FA03FE40EA0E0021FA61
:1005400002F11444BDE600BF53B94AB9002908BFFF
:1005500000281CBF4FF0FF314FF0FF3000F070B9A2
:10056000ADF1080C6DE904CE00F006F8DDF804E00A
:10057000DDE9022304B070472DE9F047089E0D46DF
:1005800004460F46002B4AD18A42944665D9B2FAF6
:1005900082F343B102FA03FCC3F120029F4020FA28
:1005A00002F217439C404FEA1C4E1FFA8CF5B7FB32
:1005B000FEF1220C0EFB117742EA074201FB05F027
:1005C00090420AD91CEB020201F1FF3780F01C8136
:1005D000904240F2198102396244121AA4B2B2FB6D
:1005E000FEF00EFB102244EA024400FB05F5A54292
:1005F0000AD91CEB040400F1FF3280F00781A54208
:1006000040F204816444023840EA0140641B002146
:100610001EB1DC400023C6E90043BDE8F0878B42F1
:1006200008D9002E00F0ED800021C6E9000508463B
:10063000BDE8F087B3FA83F1002949D1AB4202D378
:10064000824200F2F880841A65EB0302012017460B
:10065000002EE2D0C6E90047DFE702B9FFDEB2FABA
:1006600082F3002B40F090808A1A4FEA1C471FFA51
:100670008CFE0121B2FBF7F507FB1520220C42EAA4
:1006800000420EFB05F0904208D91CEB020205F176
:10069000FF3802D2904200F2CB804546121AA4B233
:1006A000B2FBF7F007FB102244EA02440EFB00FE07
:1006B000A64508D91CEB040400F1FF3202D2A6457E
:1006C00000F2BB801046A4EB0E0440EA05409FE711
:1006D000C1F120078B4022FA07FC4CEA030C05FA13
:1006E00001F420FA07F3FD404FEA1C492343B5FB10
:1006F000F9F81FFA8CFE09FB18551C0C44EA054456
:1007000008FB0EF5A54202FA01F200FA01F00BD93E
:100710001CEB040408F1FF3A80F08880A54240F207
:100720008580A8F102086444641B9DB2B4FBF9F310
:1007300009FB134445EA044403FB0EFEA64508D911
:100740001CEB040403F1FF356CD2A6456AD9023BC9
:10075000644443EA0843A3FB0295A4EB0E04AC42B5
:10076000C846AE4656D353D056B1B0EB080264EB40
:100770000E0404FA07F7CA40CC401743C6E90074D8
:1007800018460021BDE8F087C3F1200102FA03FCFE
:1007900020FA01F225FA01F19D402A434FEA1C4755
:1007A0001FFA8CFEB1FBF7F007FB1015110C41EAA4
:1007B000054100FB0EF58D4204FA03F408D91CEB49
:1007C000010100F1FF382FD28D422DD9023861444A
:1007D000491B92B2B1FBF7F507FB151142EA014242
:1007E00005FB0EF1914208D91CEB020205F1FF381E
:1007F00016D2914214D9023D6244521A45EA004190
:1008000038E73146304608E73946E6E61046FBE66B
:100810004845A9D2B9EB020865EB0C0E013BA3E7F2
:100820004546EAE72B4694E74046D1E7D0467BE7CA
:10083000023D624432E708460AE76444023842E770
:10084000704700BF00000000000000000000000032
:1008500001F0FF01102A2BDB10F0070F08D010F871
:10086000013B013A8B422DD010F0070F42B3F6D175
:10087000F0B441EA012141EA014122F007047FF08E
:1008800000070023F0E80256083C85EA010586EAE5
:10089000010685FA47F5A3FA87F586FA47F6A5FA21
:1008A00087F68EB9EED1F0BC01F0FF0102F007022D
:1008B00032B110F8013B013A83EA010313B1F8D1D8
:1008C0000020704701387047002D06BF35460338B9
:1008D000073815F0010F07D1013015F4807F02BFF2
:1008E000013015F4C03F0130F0BC0138704700BF43
:1008F000034613F8012B002AFBD1181A0138704760
:1009000070B54FF0FF0C4CF4E06C1CEA11541DBFA5
:100910001CEA135594EA0C0F95EA0C0F00F0DEF870
:100920002C4481EA030621EA4C5123EA4C5350EA55
:10093000013518BF52EA033541F4801143F48013A6
:1009400038D0A0FB02CE4FF00005E1FB02E506F037
:100950000042E0FB03E54FF00006E1FB03569CF08C
:10096000000F18BF4EF0010EA4F1FF04B6F5007F92
:1009700064F5407404D25FEA4E0E6D4146EB060604
:1009800042EAC62141EA55514FEAC52040EA5E508D
:100990004FEACE2EB4F1FD0C88BFBCF5E06F1ED837
:1009A000BEF1004F08BF5FEA500E50F1000041EB6E
:1009B000045170BD06F0004646EA010140EA02001B
:1009C00081EA0301B4EB5C04C2BFD4EB0C0541EA3D
:1009D000045170BD41F480114FF0000E013C00F352
:1009E000AB8014F1360FDEBF002001F0004170BD76
:1009F000C4F10004203C35DA0C341BDC04F114048F
:100A0000C4F1200500FA05F320FA04F001FA05F21A
:100A100040EA020001F0004221F0004110EBD370E7
:100A200021FA04F642EB06015EEA430E08BF20EA13
:100A3000D37070BDC4F10C04C4F1200500FA04F3B6
:100A400020FA05F001FA04F240EA020001F0004148
:100A500010EBD37041F100015EEA430E08BF20EABB
:100A6000D37070BDC4F1200500FA05F24EEA020E03
:100A700020FA04F301FA05F243EA020321FA04F032
:100A800001F0004121FA04F220EA020000EBD370E9
:100A90005EEA430E08BF20EAD37070BD94F0000FE9
:100AA0000FD101F00046400041EB010111F4801F1D
:100AB00008BF013CF7D041EA060195F0000F18BFCE
:100AC000704703F00046520043EB030313F4801F0A
:100AD00008BF013DF7D043EA0603704794EA0C0FC4
:100AE0000CEA135518BF95EA0C0F0CD050EA4106DA
:100AF00018BF52EA4306D1D181EA030101F0004157
:100B00004FF0000070BD50EA410606BF104619467E
:100B100052EA430619D094EA0C0F02D150EA01368A
:100B200013D195EA0C0F05D152EA03361CBF1046CB
:100B300019460AD181EA030101F0004141F0FE416A
:100B400041F470014FF0000070BD41F0FE4141F4EE
:100B5000780170BD70B54FF0FF0C4CF4E06C1CEAEE
:100B600011541DBF1CEA135594EA0C0F95EA0C0FA3
:100B700000F0A7F8A4EB050481EA030E52EA03355E
:100B80004FEA013100F088804FEA03334FF080557F
:100B900045EA131343EA12634FEA022245EA1115AC
:100BA00045EA10654FEA00260EF000419D4208BF5D
:100BB000964244F1FD0404F5407402D25B084FEA0A
:100BC0003202B61A65EB03055B084FEA32024FF4B6
:100BD00080104FF4002CB6EB020E75EB030E22BF13
:100BE000B61A754640EA0C005B084FEA3202B6EBD3
:100BF000020E75EB030E22BFB61A754640EA5C0082
:100C00005B084FEA3202B6EB020E75EB030E22BF11
:100C1000B61A754640EA9C005B084FEA3202B6EB12
:100C2000020E75EB030E22BFB61A754640EADC00D1
:100C300055EA060E18D04FEA051545EA16754FEA33
:100C400006164FEAC30343EA52734FEAC2025FEA51
:100C50001C1CC0D111F4801F0BD141EA00014FF0E0
:100C600000004FF0004CB6E711F4801F04BF0143B1
:100C70000020B4F1FD0C88BFBCF5E06F3FF6AFAECD
:100C8000B5EB030C04BFB6EB020C5FEA500C50F15D
:100C9000000041EB045170BD0EF0004E4EEA1131E0
:100CA00014EB5C04C2BFD4EB0C0541EA045170BDE7
:100CB00041F480114FF0000E013C90E645EA060E2B
:100CC0008DE60CEA135594EA0C0F08BF95EA0C0F59
:100CD0003FF43BAF94EA0C0F0AD150EA01347FF4A1
:100CE00034AF95EA0C0F7FF425AF104619462CE778
:100CF00095EA0C0F06D152EA03353FF4FDAE1046DB
:100D0000194622E750EA410618BF52EA43067FF42B
:100D1000C5AE50EA41047FF40DAF52EA43057FF4BB
:100D2000EBAE12E74FF0FF3C06E000BF4FF0010CC6
:100D300002E000BF4FF0010C4DF804CD4FEA410C2A
:100D40007FEA6C5C4FEA430C18BF7FEA6C5C1BD0F7
:100D500001B050EA410C0CBF52EA430C91EA030F78
:100D600002BF90EA020F0020704710F1000F91EAD5
:100D7000030F58BF994208BF90422CBFD8176FEAA3
:100D8000E37040F0010070474FEA410C7FEA6C5C71
:100D900002D150EA013C07D14FEA430C7FEA6C5C78
:100DA000D6D152EA033CD3D05DF8040B704700BFA4
:100DB0008446104662468C461946634600E000BFF2
:100DC00001B5FFF7B7FF002848BF10F1000F01BDC4
:100DD0004DF808EDFFF7F4FF0CBF012000205DF88F
:100DE00008FB00BF4DF808EDFFF7EAFF34BF012014
:100DF00000205DF808FB00BF4DF808EDFFF7E0FFAD
:100E000094BF012000205DF808FB00BF4DF808EDFD
:100E1000FFF7CEFF94BF012000205DF808FB00BF64
:100E20004DF808EDFFF7C4FF34BF012000205DF846
:100E300008FB00BF4FEA410C7FEA6C5C02D150EA2C
:100E4000013C0AD14FEA430C7FEA6C5C02D152EAC2
:100E5000033C02D14FF0000070474FF00100704793
:100E60004FEA410212F5001215D211D56FF47873D2
:100E7000B3EB625212D94FEAC12343F0004343EA75
:100E8000505311F0004F23FA02F018BF4042704750
:100E90004FF00000704750EA013005D111F00040DA
:100EA00008BF6FF0004070474FF00000704700BF70
:100EB00080B483B000AF00237B60104B1B6B0F4AE4
:100EC00043F0800313630D4B1B6B03F080037B60C7
:100ED0007B6800233B60094B1B6B084A43F0080307
:100EE0001363064B1B6B03F008033B603B6800BFBA
:100EF0000C37BD465DF8047B704700BF00380240E8
:100F000080B584B000AFF860B9607A607B689AB24F
:100F10000A23B968034801F0B1F97B681846103715
:100F2000BD4680BDF401002090B583B000AF01F054
:100F300061FD00F01FF8FFF7BBFF00F099F90023F7
:100F4000FB710A4B3B60FB795A1CFA711C463868EE
:100F5000FFF7A2FA02460B462146054802F008FBBD
:100F60004FF47A7001F0B8FDEDE700BFD80F4940AB
:100F7000D054000880B594B000AF07F120033022B0
:100F80000021184602F006FB07F10C0300221A604C
:100F90005A609A60DA601A610023BB60284B1B6CB0
:100FA000274A43F080531364254B1B6C03F0805396
:100FB000BB60BB6800237B60224B1B68214A43F463
:100FC000804313601F4B1B6803F480437B607B6886
:100FD00001233B624FF480337B620223BB634FF4F7
:100FE0008003FB6304233B64A8237B640223BB646C
:100FF0000423FB6407F12003184600F057FC034666
:10100000002B01D000F020F80F23FB6002233B618E
:1010100000237B614FF4A053BB614FF48053FB610D
:1010200007F10C030521184600F0B8FE0346002B1B
:1010300001D000F009F800BF5037BD4680BD00BFA9
:10104000003802400070004080B400AF72B600BFAC
:10105000FEE7000080B483B000AF00237B60104B3C
:101060005B6C0F4A43F4804353640D4B5B6C03F499
:1010700080437B607B6800233B60094B1B6C084A04
:1010800043F080531364064B1B6C03F080533B60AA
:101090003B6800BF0C37BD465DF8047B704700BF5E
:1010A0000038024080B400AFFEE780B400AFFEE736
:1010B00080B400AFFEE780B400AFFEE780B400AFBD
:1010C000FEE780B400AF00BFBD465DF8047B70470B
:1010D00080B400AF00BFBD465DF8047B704780B4AC
:1010E00000AF00BFBD465DF8047B704780B500AF20
:1010F00001F0D2FC00BF80BD80B400AF01231846D0
:10110000BD465DF8047B704780B582B000AF786063
:10111000396002F04BFA034616221A604FF0FF3393
:1011200018460837BD4680BD80B582B000AF7860F4
:101130004FF0FF317868FFF7E7FFFEE780B586B034
:1011400000AFF860B9607A6000237B610AE0AFF31A
:1011500000800146BB685A1CBA60CAB21A707B692B
:1011600001337B617A697B689A42F0DB7B681846C1
:101170001837BD4680BD80B483B000AF78604FF0B3
:10118000FF3318460C37BD465DF8047B704780B4CA
:1011900083B000AF786039603B684FF400525A600A
:1011A000002318460C37BD465DF8047B704780B4B9
:1011B00083B000AF7860012318460C37BD465DF858
:1011C000047B704780B485B000AFF860B9607A6086
:1011D000002318461437BD465DF8047B70470000B5
:1011E00080B586B000AF7860144A154BD31A7B6186
:1011F0007B693B61134B1B68002B02D1114B124AD8
:101200001A60104B1A687B6813443A699A4207D2F5
:1012100002F0CCF903460C221A604FF0FF3309E0CC
:10122000084B1B68FB60074B1A687B681344054A30
:101230001360FB6818461837BD4680BD00000220C9
:1012400000040000F00100209003002080B400AFF3
:10125000064BD3F88830054A43F47003C2F888304F
:1012600000BFBD465DF8047B704700BF00ED00E0A5
:1012700080B500AF114B124A1A60104B4FF4E132A7
:101280005A600E4B00229A600C4B0022DA600B4B26
:1012900000221A61094B0C225A61084B00229A6104
:1012A000064B0022DA61054800F098FF0346002B48
:1012B00001D0FFF7C9FE00BF80BD00BFF4010020D0
:1012C0000048004080B58AB000AF786007F1140391
:1012D00000221A605A609A60DA601A617B681B68A3
:1012E000194A93422CD100233B61184B1B6C174ABF
:1012F00043F480231364154B1B6C03F480233B6180
:101300003B690023FB60114B1B6B104A43F0080341
:1013100013630E4B1B6B03F00803FB60FB684FF479
:1013200040737B610223BB610023FB6103233B62AB
:1013300007237B6207F114031946054800F01AF9E8
:1013400000BF2837BD4680BD00480040003802403D
:10135000000C0240DFF834D0FFF778FF0C480D494D
:101360000D4A002302E0D458C4500433C4188C4200
:10137000F9D30A4A0A4C002301E013600432A24266
:10138000FBD302F019F9FFF7CFFD704700000220F0
:1013900000000020D40100207C580008D401002067
:1013A0008C030020FEE7000080B485B000AF7860B9
:1013B0007B6803F00703FB600C4BDB68BB60BA681B
:1013C0004FF6FF031340BB60FB681A02BB68134370
:1013D00043F0BF6343F40033BB60044ABB68D3608F
:1013E00000BF1437BD465DF8047B704700ED00E098
:1013F00080B400AF044BDB681B0A03F007031846F8
:10140000BD465DF8047B704700ED00E080B483B01A
:1014100000AF03463960FB7197F90730002B0ADBF8
:101420003B68DAB20C4997F907301201D2B20B448B
:1014300083F800230AE03B68DAB20849FB7903F03D
:101440000F03043B1201D2B20B441A7600BF0C37D3
:10145000BD465DF8047B704700E100E000ED00E070
:1014600080B489B000AFF860B9607A60FB6803F0BF
:101470000703FB61FB69C3F10703042B28BF0423A7
:10148000BB61FB690433062B02D9FB69033B00E017
:1014900000237B614FF0FF32BB6902FA03F3DA43AA
:1014A000BB681A407B699A404FF0FF317B6901FAB3
:1014B00003F3D9437B680B40134318462437BD46DA
:1014C0005DF8047B7047000080B582B000AF7860A3
:1014D0007B68013BB3F1807F01D301230FE00A4A0F
:1014E0007B68013B53600F214FF0FF30FFF78EFF09
:1014F000054B00229A60044B07221A60002318460D
:101500000837BD4680BD00BF10E000E080B582B066
:1015100000AF78607868FFF747FF00BF0837BD4627
:1015200080BD80B586B000AF0346B9607A60FB73BA
:1015300000237B61FFF75CFF78617A68B96878699E
:10154000FFF78EFF024697F90F3011461846FFF756
:101550005DFF00BF1837BD4680BD80B582B000AFCB
:1015600078607868FFF7B0FF034618460837BD4635
:1015700080BD000080B489B000AF7860396000237E
:101580007B6100233B610023BB610023FB616BE1B6
:101590000122FB6902FA03F37B613B681B687A69ED
:1015A00013403B613A697B699A4240F05A813B683B
:1015B0005B6803F00303012B05D03B685B6803F015
:1015C0000303022B30D17B689B68BB61FB695B0026
:1015D000032202FA03F3DB43BA691340BB613B68A1
:1015E000DA68FB695B0002FA03F3BA691343BB6173
:1015F0007B68BA699A607B685B68BB610122FB69A2
:1016000002FA03F3DB43BA691340BB613B685B68D2
:101610001B0903F00102FB6902FA03F3BA691343E1
:10162000BB617B68BA695A603B685B6803F003037F
:10163000032B17D07B68DB68BB61FB695B0003226F
:1016400002FA03F3DB43BA691340BB613B689A6853
:10165000FB695B0002FA03F3BA691343BB617B6861
:10166000BA69DA603B685B6803F00303022B23D19D
:10167000FB69DA087B68083253F82230BB61FB69EA
:1016800003F007039B000F2202FA03F3DB43BA695E
:101690001340BB613B681A69FB6903F007039B00B9
:1016A00002FA03F3BA691343BB61FB69DA087B688A
:1016B0000832B96943F822107B681B68BB61FB697B
:1016C0005B00032202FA03F3DB43BA691340BB61F8
:1016D0003B685B6803F00302FB695B0002FA03F3FB
:1016E000BA691343BB617B68BA691A603B685B687F
:1016F00003F44033002B00F0B4800023FB60604B08
:101700005B6C5F4A43F4804353645D4B5B6C03F452
:101710008043FB60FB685B4AFB699B08023352F81D
:101720002330BB61FB6903F003039B000F2202FA25
:1017300003F3DB43BA691340BB617B68524A9342AF
:101740002BD07B68514A934225D07B68504A934204
:101750001FD07B684F4A934219D07B684E4A934210
:1017600013D07B684D4A93420DD07B684C4A93421C
:1017700007D07B684B4A934201D107230EE0082330
:101780000CE006230AE0052308E0042306E0032317
:1017900004E0022302E0012300E00023FA6902F0E2
:1017A000030292009340BA691343BB613549FB6958
:1017B0009B080233BA6941F823203B4B9B68BB610D
:1017C0003B69DB43BA691340BB613B685B6803F468
:1017D0008013002B03D0BA693B691343BB61324AC3
:1017E000BB699360304BDB68BB613B69DB43BA6923
:1017F0001340BB613B685B6803F40013002B03D00C
:10180000BA693B691343BB61274ABB69D360264B66
:101810005B68BB613B69DB43BA691340BB613B68F2
:101820005B6803F40033002B03D0BA693B691343B0
:10183000BB611D4ABB6953601B4B1B68BB613B69A5
:10184000DB43BA691340BB613B685B6803F48033D8
:10185000002B03D0BA693B691343BB61124ABB69D1
:101860001360FB690133FB61FB690F2B7FF690AEC0
:1018700000BF00BF2437BD465DF8047B704700BF42
:1018800000380240003801400000024000040240DD
:1018900000080240000C0240001002400014024008
:1018A00000180240001C0240003C014080B586B098
:1018B00000AF78607B68002B01D1012367E27B6871
:1018C0001B6803F00103002B75D0884B9B6803F065
:1018D0000C03042B0CD0854B9B6803F00C03082BE6
:1018E00012D1824B5B6803F48003B3F5800F0BD1F8
:1018F0007E4B1B6803F40033002B5BD07B685B6876
:10190000002B57D1012342E27B685B68B3F5803F2F
:1019100006D1764B1B68754A43F4803313601DE093
:101920007B685B68B3F5A02F0CD1704B1B686F4AC6
:1019300043F4802313606D4B1B686C4A43F480337F
:1019400013600BE0694B1B68684A23F48033136013
:10195000664B1B68654A23F4802313607B685B68D1
:10196000002B13D001F0ACF8386108E001F0A8F8C2
:1019700002463B69D31A642B01D9032307E25B4B70
:101980001B6803F40033002BF0D014E001F098F84A
:10199000386108E001F094F802463B69D31A642BE1
:1019A00001D90323F3E1514B1B6803F40033002BEF
:1019B000F0D100E000BF7B681B6803F00203002B3E
:1019C00063D04A4B9B6803F00C03002B0BD0474BB2
:1019D0009B6803F00C03082B1CD1444B5B6803F499
:1019E0008003002B16D1414B1B6803F00203002B30
:1019F00005D07B68DB68012B01D00123C7E13B4B9D
:101A00001B6823F0F8027B681B69DB00374913432E
:101A10000B603AE07B68DB68002B20D0344B01225E
:101A20001A6001F04DF8386108E001F049F802460B
:101A30003B69D31A022B01D90323A8E12B4B1B6866
:101A400003F00203002BF0D0284B1B6823F0F802B0
:101A50007B681B69DB00254913430B6015E0244BB1
:101A600000221A6001F02CF8386108E001F028F833
:101A700002463B69D31A022B01D9032387E11B4B92
:101A80001B6803F00203002BF0D17B681B6803F096
:101A90000803002B36D07B685B69002B16D0154BF2
:101AA00001221A6001F00CF8386108E001F008F832
:101AB00002463B69D31A022B01D9032367E10B4B82
:101AC0005B6F03F00203002BF0D01BE0094B0022F8
:101AD0001A6000F0F5FF38610EE000F0F1FF0246F9
:101AE0003B69D31A022B07D9032350E10038024087
:101AF00000004742800E4742884B5B6F03F00203B1
:101B0000002BEAD17B681B6803F00403002B00F074
:101B100097800023FB75814B1B6C03F08053002BD7
:101B20000FD10023BB607D4B1B6C7C4A43F080537C
:101B300013647A4B1B6C03F08053BB60BB680123BA
:101B4000FB75774B1B6803F48073002B18D1744B23
:101B50001B68734A43F48073136000F0B1FF38616F
:101B600008E000F0ADFF02463B69D31A022B01D911
:101B700003230CE16A4B1B6803F48073002BF0D045
:101B80007B689B68012B06D1644B1B6F634A43F053
:101B9000010313671CE07B689B68052B0CD15F4B2E
:101BA0001B6F5E4A43F0040313675C4B1B6F5B4A79
:101BB00043F0010313670BE0584B1B6F574A23F0A8
:101BC00001031367554B1B6F544A23F0040313673B
:101BD0007B689B68002B15D000F072FF38610AE02B
:101BE00000F06EFF02463B69D31A41F288329342FD
:101BF00001D90323CBE0494B1B6F03F00203002BF9
:101C0000EED014E000F05CFF38610AE000F058FF0D
:101C100002463B69D31A41F28832934201D9032329
:101C2000B5E03E4B1B6F03F00203002BEED1FB7DB2
:101C3000012B05D1394B1B6C384A23F080531364B8
:101C40007B689B69002B00F0A180344B9B6803F0FC
:101C50000C03082B5CD07B689B69022B41D1314B74
:101C600000221A6000F02CFF386108E000F028FF25
:101C700002463B69D31A022B01D9032387E0274B85
:101C80001B6803F00073002BF0D17B68DA697B6876
:101C90001B6A1A437B685B6A9B011A437B689B6AD9
:101CA0005B08013B1B041A437B68DB6A1B061B496C
:101CB00013434B601B4B01221A6000F001FF386197
:101CC00008E000F0FDFE02463B69D31A022B01D961
:101CD00003235CE0114B1B6803F00073002BF0D072
:101CE00054E0104B00221A6000F0EAFE386108E070
:101CF00000F0E6FE02463B69D31A022B01D903230A
:101D000045E0064B1B6803F00073002BF0D13DE06B
:101D10007B689B69012B07D1012338E00038024022
:101D200000700040600047421B4B5B68FB607B68B3
:101D30009B69012B28D0FB6803F480027B68DB6978
:101D40009A4221D1FB6803F03F027B681B6A9A42EA
:101D50001AD1FA6847F6C07313407A68526A920142
:101D6000934211D1FB6803F440327B689B6A5B08A5
:101D7000013B1B049A4207D1FB6803F070627B6849
:101D8000DB6A1B069A4201D0012300E000231846BB
:101D90001837BD4680BD00BF0038024080B584B012
:101DA00000AF786039607B68002B01D10123CCE063
:101DB000684B1B6803F007033A689A420CD9654BDD
:101DC0003A68D2B21A70634B1B6803F007033A6893
:101DD0009A4201D00123B8E07B681B6803F002033C
:101DE000002B20D07B681B6803F00403002B05D078
:101DF000594B9B68584A43F4E05393607B681B68D7
:101E000003F00803002B05D0534B9B68524A43F460
:101E100060439360504B9B6823F0F0027B689B68A3
:101E20004D4913438B607B681B6803F00103002B53
:101E300044D07B685B68012B07D1474B1B6803F4D8
:101E40000033002B19D101237FE07B685B68022BF4
:101E500003D07B685B68032B07D13F4B1B6803F003
:101E60000073002B09D101236FE03B4B1B6803F08B
:101E70000203002B01D1012367E0374B9B6823F05D
:101E800003027B685B68344913438B6000F018FEE3
:101E9000F8600AE000F014FE0246FB68D31A41F233
:101EA0008832934201D903234FE02B4B9B6803F008
:101EB0000C027B685B689B009A42EBD1254B1B6848
:101EC00003F007033A689A420CD2224B3A68D2B226
:101ED0001A70204B1B6803F007033A689A4201D03E
:101EE000012332E07B681B6803F00403002B08D059
:101EF000194B9B6823F4E0527B68DB681649134357
:101F00008B607B681B6803F00803002B09D0124B21
:101F10009B6823F460427B681B69DB000E49134316
:101F20008B6000F021F802460B4B9B681B0903F005
:101F30000F030A49CB5C22FA03F3094A1360094BE9
:101F40001B68184600F078FD002318461037BD4680
:101F500080BD00BF003C024000380240E054000851
:101F600000000020040000202DE9B04F94B000AF25
:101F700000237B640023FB6400233B640023BB64D9
:101F8000794B9B6803F00C03082B0DD0082B00F253
:101F9000E180002B02D0042B03D0DBE0734BBB6449
:101FA000DBE0734BBB64D8E06F4B5B6803F03F032F
:101FB0007B646D4B5B6803F48003002B63D06A4B3A
:101FC0005B689B090022BB63FA63BB6BC3F3080326
:101FD0003B6300237B63D7E90C4522462B464FF039
:101FE00000004FF00001590141EAD2615001024660
:101FF0000B462146511A3961294663EB01037B6187
:102000004FF000024FF00003D7E904AB59468B01B3
:10201000514643EA916351468A015146B2EB0108A9
:10202000594663EB01094FF000024FF000034FEAFD
:10203000C90343EA58734FEAC802904699462346BB
:1020400018EB0303BB602B4649EB0303FB604FF027
:1020500000024FF00003D7E9024529464B02214612
:1020600043EAD15321464A02104619467B6C0022AE
:10207000BB62FA62D7E90A23FEF766FA02460B460C
:102080001346FB6458E0384B5B689B0900221846F6
:102090001146C0F308033B6200237B62D7E908893D
:1020A00042464B464FF000004FF00001590141EA13
:1020B000D261500102460B464146B2EB010A494645
:1020C00063EB010B4FF000024FF000034FEA8B135C
:1020D00043EA9A634FEA8A12B2EB0A0463EB0B05F8
:1020E0004FF000024FF00003EB0043EA5473E200AC
:1020F00014461D464346E3183B604B4645EB03033D
:102100007B604FF000024FF00003D7E900452946FD
:102110008B02214643EA915321468A021046194612
:102120007B6C0022BB61FA61D7E90623FEF70CFA4B
:1021300002460B461346FB640B4B5B681B0C03F01B
:10214000030301335B003B64FA6C3B6CB2FBF3F3BB
:10215000BB6402E0054BBB6400BFBB6C1846503744
:10216000BD46BDE8B08F00BF003802400024F40037
:1021700000127A0080B400AF034B1B681846BD46BE
:102180005DF8047B704700BF0000002080B500AF01
:10219000FFF7F0FF0246054B9B689B0A03F007031D
:1021A0000349CB5C22FA03F3184680BD0038024095
:1021B000F054000880B500AFFFF7DCFF0246054B86
:1021C0009B685B0B03F007030349CB5C22FA03F324
:1021D000184680BD00380240F054000880B582B037
:1021E00000AF78607B68002B01D1012342E07B685F
:1021F00093F84130DBB2002B06D17B68002283F8D4
:1022000040207868FFF75EF87B68242283F841203D
:102210007B681B68DA687B681B6822F40052DA600E
:10222000786800F073F97B681B681A697B681B6823
:1022300022F490421A617B681B685A697B681B68AC
:1022400022F02A025A617B681B68DA687B681B6887
:1022500042F40052DA607B6800225A647B682022D4
:1022600083F841207B68202283F842207B6800228B
:102270005A63002318460837BD4680BD80B58AB032
:1022800002AFF860B9603B601346FB8000237B61BE
:10229000FB6893F84130DBB2202B75D1BB68002B73
:1022A00002D0FB88002B01D101236EE0FB680022E5
:1022B0005A64FB68212283F8412000F001FC786118
:1022C000FB68FA889A84FB68FA88DA84FB689B6862
:1022D000B3F5805F08D1FB681B69002B04D1002394
:1022E000FB61BB68BB6103E0BB68FB610023BB61B2
:1022F0002EE03B6800937B6900228021F86800F0A3
:1023000048F80346002B05D0FB68202283F84120C3
:1023100003233AE0FB69002B0BD1BB691B881A46EB
:10232000FB681B68C2F308025A60BB690233BB61D9
:1023300007E0FB691A78FB681B685A60FB69013388
:10234000FB61FB68DB8C9BB2013B9AB2FB68DA84D1
:10235000FB68DB8C9BB2002BCBD13B6800937B6985
:1023600000224021F86800F014F80346002B05D045
:10237000FB68202283F84120032306E0FB6820222B
:1023800083F84120002300E0022318462037BD4691
:1023900080BD80B586B000AFF860B9603B60134681
:1023A000FB713BE03B6AB3F1FF3F37D000F088FBA5
:1023B00002463B68D31A3A6A9A4202D33B6A002B20
:1023C00001D103233AE0FB681B68DB6803F00403D8
:1023D000002B23D0BB68802B20D0BB68402B1DD0A6
:1023E000FB681B681B6803F00803082B16D1002349
:1023F0007B61FB681B681B687B61FB681B685B6813
:102400007B617B69F86800F01DF8FB6808225A645C
:10241000FB68002283F8402001230FE0FB681B6863
:102420001A68BB681340BA689A420CBF01230023A4
:10243000DBB21A46FB799A42B4D00023184618370B
:10244000BD4680BD80B495B000AF78607B681B68E6
:102450000C337B637B6B53E8003F3B633B6B23F4A4
:102460009073FB647B681B680C33FA6C3A64FB6303
:10247000F96B3A6C41E80023BB63BB6B002BE5D1E1
:102480007B681B6814333B623B6A53E8003FFB6187
:10249000FB6923F00103BB647B681B681433BA6CCF
:1024A000FA62BB62B96AFA6A41E800237B627B6A1E
:1024B000002BE5D17B681B6B012B19D17B681B6856
:1024C0000C33FB60FB6853E8003FBB60BB6823F044
:1024D00010037B647B681B680C337A6CBA617B6188
:1024E0007969BA6941E800233B613B69002BE5D17A
:1024F0007B68202283F842207B6800221A6300BF99
:102500005437BD465DF8047B704700002DE9B04F9D
:10251000C0B000AFC7F8F400D7F8F4301B681B69EF
:1025200023F44050D7F8F430D968D7F8F4301A685B
:1025300040EA01031361D7F8F4309A68D7F8F43011
:102540001B691A43D7F8F4305B691A43D7F8F430A3
:10255000DB691343C7F8F830D7F8F4301B68DB6841
:1025600023F4164121F00C01D7F8F4301A68D7F89B
:10257000F8300B43D360D7F8F4301B685B6923F461
:102580004070D7F8F4309969D7F8F4301A6840EA07
:1025900001035361D7F8F4301A688F4B9A4205D083
:1025A000D7F8F4301A688D4B9A4204D1FFF702FE37
:1025B000C7F8FC0003E0FFF7E9FDC7F8FC00D7F817
:1025C000F430DB69B3F5004F40F00C81D7F8FC30F4
:1025D0000022C7F8E830C7F8EC20D7E93A45224690
:1025E0002B469118B9655B41FB65D7E91623214657
:1025F00012EB0108294643EB01094FF000024FF0AE
:1026000000034FEAC90343EA58734FEAC8029046F1
:102610009946234618EB0303C7F8E0302B4649EBF5
:102620000303C7F8E430D7F8F4305B680022C7F83A
:10263000D830C7F8DC20D7E936120B46DB183B65EB
:10264000134642EB03037B65D7E91423D7E938012E
:10265000FDF77AFF02460B46614BA3FB02235B09A1
:102660001C01D7F8FC300022C7F8D030C7F8D420BE
:10267000D7E9348942464B469118B9645B41FB6403
:10268000D7E91223414612EB010A494643EB010BFD
:102690004FF000024FF000034FEACB0343EA5A73B6
:1026A0004FEACA0292469B4643461AEB0303C7F819
:1026B000C8304B464BEB0303C7F8CC30D7F8F430A7
:1026C0005B680022C7F8C030C7F8C420D7E93012D1
:1026D0000B46DB183B64134642EB03037B64D7E9EC
:1026E0001023D7E93201FDF72FFF02460B461146B2
:1026F0003B4BA3FB01235B09642202FB03F3CB1AD0
:10270000DB0003F13202364BA3FB02235B095B00C3
:1027100003F4F8731C44D7F8FC300022C7F8B83033
:10272000C7F8BC20D7E92E8942464B469118B963B9
:102730005B41FB63D7E90E23414651183963494693
:102740004B417B634FF000024FF00003D7E90CAB25
:102750005946CB00514643EA51735146CA001046D0
:102760001946034642469B18C7F8B0304B460A4606
:1027700042EB0303C7F8B430D7F8F4305B680022AB
:10278000C7F8A830C7F8AC20D7E92A120B46DB18E7
:10279000BB62134642EB0303FB62D7E90A23D7E986
:1027A0002C01FDF7D1FE02460B460D4BA3FB021395
:1027B0005B09642101FB03F3D31ADB003233084ABF
:1027C000A2FB03235B0903F00702D7F8F4301B6870
:1027D00022449A6006E100BF00100140001401404D
:1027E0001F85EB51D7F8FC300022C7F8A030C7F89E
:1027F000A420D7E9288942464B46911839625B41AB
:102800007B62D7E9082341465418494643EB01054A
:102810004FF000024FF00003EB0043EA5473E20074
:1028200014461D464346E318C7F898304B4645EB1F
:102830000303C7F89C30D7F8F4305B680022C7F870
:102840009030C7F894204FF000024FF00003D7E912
:10285000244529468B00214643EA917321468A008C
:10286000D7E92601FDF770FE02460B46604BA3FB3D
:1028700002235B091C01D7F8FC300022C7F888301E
:10288000C7F88C20D7E9228942464B469118B96196
:102890005B41FB61D7E9062341465118396149463E
:1028A0004B417B614FF000024FF00003D7E904ABCE
:1028B0005946CB00514643EA51735146CA0010466F
:1028C0001946034642469B18C7F880304B460A46D5
:1028D00042EB0303C7F88430D7F8F4305B6800227A
:1028E000BB67FA674FF000024FF00003D7E91E897B
:1028F00049468B00414643EA917341468A00D7E935
:102900002001FDF721FE02460B461146384BA3FB82
:1029100001235B09642202FB03F3CB1A1B01323350
:10292000334AA2FB03235B0903F0F0031C44D7F8EE
:10293000FC3000223B677A67D7E91C8942464B4648
:102940009118B9605B41FB60D7E9022341465118F9
:10295000396049464B417B604FF000024FF0000365
:10296000D7E900AB5946CB00514643EA5173514673
:10297000CA0010461946034642469B18BB664B46A2
:102980000A4642EB0303FB66D7F8F4305B6800228B
:102990003B667A664FF000024FF00003D7E91889D2
:1029A00049468B00414643EA917341468A00D7E984
:1029B0001A01FDF7C9FD02460B460D4BA3FB02139E
:1029C0005B09642101FB03F3D31A1B013233084A6C
:1029D000A2FB03235B0903F00F02D7F8F4301B6856
:1029E00022449A6000BF07F58077BD46BDE8B08FEE
:1029F0001F85EB5180B500AF0E4B1B680D4A43F4A9
:102A0000007313600B4B1B680A4A43F48063136026
:102A1000084B1B68074A43F4807313600320FEF7DA
:102A200075FD0F2000F008F8FEF714FB0023184690
:102A300080BD00BF003C024080B582B000AF78602E
:102A4000124B1A68124B1B7819464FF47A73B3FB7A
:102A5000F1F3B2FBF3F31846FEF77FFD0346002BBC
:102A600001D001230EE07B680F2B0AD80022796881
:102A70004FF0FF30FEF755FD064A7B6813600023D8
:102A800000E0012318460837BD4680BD0000002045
:102A9000080000200400002080B400AF064B1B7823
:102AA0001A46064B1B681344044A136000BFBD4618
:102AB0005DF8047B704700BF080000203C02002046
:102AC00080B400AF034B1B681846BD465DF8047B1D
:102AD000704700BF3C02002080B584B000AF786032
:102AE000FFF7EEFFB8607B68FB60FB68B3F1FF3F68
:102AF00005D00A4B1B781A46FB681344FB6000BFE5
:102B0000FFF7DEFF0246BB68D31AFA689A42F7D88D
:102B100000BF00BF1037BD4680BD00BF08000020C9
:102B20002DE9FF4755EC104B002D0E4619462B465C
:102B3000BBBF05F100431D4600232D230B700D9BE9
:102B4000DDF830A0914623F02008BCBF2246144691
:102B5000B8F1460F05D0B8F1450F00D1013602217A
:102B600000E0032103AB019302AB009345EC104B53
:102B70005346324600F0D0FDB8F1470F074602D168
:102B800019F0010F22D0B8F1460F07EB060910D15A
:102B90003B78302B0AD10022002320462946FEF73D
:102BA00017F918B9C6F10106CAF80060DAF8003062
:102BB00099440022002320462946FEF709F908B16E
:102BC000CDF80C903022039B4B4507D3039B0E9A04
:102BD000DB1B3846136004B0BDE8F087591C039135
:102BE0001A70F0E7F7B503460029B8BF494203F869
:102BF000022BB4BF2D222B22092942702ADD0DF1B0
:102C0000070217460A26944691FBF6F506FB1514B3
:102C100030340CF8014C0C46632C02F1FF3229468B
:102C2000F1DC3031ACF1020402F8011C411C2246F7
:102C3000BA420AD30DF10902A2EB0C02BC4288BFD2
:102C400000221344181A03B0F0BD12F8015B01F81A
:102C5000015FEDE7302330318370C170031DF1E770
:102C60002DE9F04F2DED028B8DB00C46DDF8608024
:102C700016461F46054600F095FCD0F800A05046C9
:102C8000FDF736FE00230A9323680593D8F8003039
:102C900094F818B0073323F0070303F10802C8F8CB
:102CA0000020D3E9008929F000430793CDF818806C
:102CB00008EE100AC4E91289DDE906019E4B4FF0C7
:102CC000FF32FEF7B7F888BBDDE906019A4B4FF0FB
:102CD000FF32FEF791F848BB0022002340464946E8
:102CE000FEF780F810B12D2384F84330934A944BBB
:102CF000BBF1470F94BF9046984603232361059B81
:102D000023F0040323604FF00009009733460BAA19
:102D10002146284600F0DAF9013040F090804FF06B
:102D2000FF300DB0BDEC028BBDE8F08F42464B4644
:102D300040464946FEF77EF840B14B46002BBCBFEB
:102D40002D2384F843307F4A7F4BD1E763680BF033
:102D5000DF0206925A1C3FD106236360059B61681F
:102D600043F48062002303930AABCDE901B309ABBE
:102D700049EC108B009322600DF123032846FFF7E6
:102D8000CFFE069B0999472B804608D1C81C02DB61
:102D90006368994241DDABF102035FFA83FBBBF14B
:102DA000650F20D801395A4604F150000991FFF708
:102DB00019FF0A9A1318012A8146236102DC22684E
:102DC000D20701D5013323619DF82330002B9CD01D
:102DD0002D2384F8433098E7069A472ABED1002B6A
:102DE000BCD10123B9E7BBF1660F18D10029636894
:102DF0000BDD216113B92268D00702D501330B44E2
:102E00002361A1654FF00009DEE713B92268D207FC
:102E100001D50233F4E70123F2E74FF0670B0A9B79
:102E2000994205DB23682161D807EAD54B1CE7E707
:102E30000029D4BFC1F1020201221344E0E7236854
:102E40005A0507D42369424631462846B84701301F
:102E50002CD164E7BBF1650F40F2E080D4E91201A8
:102E600000220023FDF7B4FF002834D0374A0123A5
:102E700031462846B84701303FF451AFDDE9092318
:102E80009A4202DB2368D80710D518EE103A524652
:102E900031462846B84701303FF441AF4FF00008B3
:102EA00004F11A090A9B013B434509DC23689B078F
:102EB00000F10781E0680B9B9842B8BF184630E7E5
:102EC00001234A4631462846B84701303FF427AF30
:102ED00008F10108E6E7099B002B39DC1B4A0123B6
:102EE00031462846B84701303FF419AFDDE90932D1
:102EF000134302D12368D907D8D518EE103A5246A9
:102F000031462846B84701303FF409AF4FF0000979
:102F100004F11A0A099B5B424B4501DC0A9B92E7CC
:102F20000123524631462846B84701303FF4F7AEF8
:102F300009F10109EEE700BFFFFFEF7FF854000839
:102F4000FC54000800550008045500080855000806
:102F50000A9AA36D9A42A8BF1A46002A914637DC06
:102F60004FF0000B29EAE97904F11A02A36D0593E9
:102F7000A3EB09035B4533DCDDE909239A423BDB24
:102F80002368DA0738D4DDE90932A2EB0309059B8F
:102F9000D21A9145A8BF9146B9F1000F35DC4FF028
:102FA000000829EAE97904F11A0ADDE909239B1AE4
:102FB000A3EB090343457FF779AF0123524631461E
:102FC0002846B84701303FF4AAAE08F10108ECE703
:102FD0001346314642462846B8470130C0D19EE6E6
:102FE0000123314628460592B84701303FF497AE99
:102FF000059A0BF1010BB9E718EE103A524631462B
:103000002846B8470130BED189E6059A4B4642446E
:1030100031462846B8470130C1D180E60A9A012AD4
:1030200001DCDB073AD50123424631462846B84742
:1030300001303FF474AE18EE103A5246314628463D
:10304000B84701303FF46BAED4E9120100220023EF
:10305000DDF828A0FDF7BCFED8B90AF1FF3308F16E
:10306000010231462846B84701300ED157E6012308
:10307000524631462846B84701303FF450AE08F179
:1030800001080A9B013B4345F1DC4B4604F1500229
:10309000DAE64FF0000804F11A0AF2E7012342468B
:1030A000DFE701234A4631462846B84701303FF45E
:1030B00036AE08F10108E3680B995B1A4345F0DC72
:1030C000F8E64FF0000804F11909F4E72DE9F0479C
:1030D000164699468A680B69DDF820809342B8BF8E
:1030E0001346336091F8432007460C460AB101337A
:1030F00033602368990642BF336802333360256822
:1031000015F0060506D104F1190AE36832689B1A26
:10311000AB4226DC94F84320131E226818BF01231B
:1031200092062BD404F1430249463846C047013089
:103130001ED02368226903F00603042B02BFE56852
:103140003368ED1AA3680CBF25EAE57500259342A4
:10315000C4BF9B1AED1800261A34B5421AD10020BC
:1031600008E00123524649463846C047013003D1A2
:103170004FF0FF30BDE8F0870135C6E7E1185A1C73
:10318000302081F84300224494F8451082F843101F
:103190000233C7E70123224649463846C04701307B
:1031A000E6D00136D9E700002DE9FF470F7E0C9DE0
:1031B000782F914680460C469A4601F1430207D883
:1031C000622F0AD8002F00F0D480582F00F0C08062
:1031D00004F1420584F842703AE0A7F16303152B2D
:1031E000F6D801A151F823F0413200085532000809
:1031F000D1310008D1310008D1310008D1310008A7
:1032000055320008D1310008D1310008D131000811
:10321000D131000859330008813200081333000807
:10322000D1310008D13100087B330008D1310008CA
:1032300081320008D1310008D13100081B33000869
:103240002B681A1D1B682A6004F1420584F842307D
:1032500001239FE020682B68070603F10401296021
:1032600001D51E6803E04606FBD5B3F90060002EC9
:1032700003DA2D23764284F843305A480A2312E0B9
:103280002B682068191D2960050601D51E6802E01B
:103290004106FBD51E8853486F2F0CBF08230A2315
:1032A000002184F843106568A560002DA2BF216845
:1032B00021F0040121600EB9002D4BD01546B6FB5C
:1032C000F3F103FB1167C75D05F8017D3746BB428B
:1032D0000E46F4D9082B0BD12368DE0708D52369E5
:1032E00061689942DEBF302305F8013C05F1FF35E6
:1032F000521B2261CDF800A04B4603AA214640464E
:10330000FFF7E4FE01304AD14FF0FF3004B0BDE8D2
:10331000F087236843F0200323603348782784F83C
:103320004570236829681F0651F8046B02D45F06B4
:1033300048BFB6B2DF0748BF43F02003296048BF4B
:1033400023601EB9236823F0200323601023A7E71E
:103350002448E4E71546BDE72B6826686169181D17
:10336000286035061B6801D5196002E07006FBD5A0
:103370001980002323611546BCE72B681A1D2A60BB
:103380001D68626800212846FDF762FA08B1401BFB
:10339000606063682361002384F84330AAE72369EF
:1033A0002A4649464046D0470130ADD023689B07A6
:1033B00013D4E068039B9842B8BF1846A6E70123E0
:1033C000324649464046D04701309DD00135E3683A
:1033D00003995B1AAB42F2DCEBE7002504F1190616
:1033E000F5E700BF0A5500081B550008002310B57B
:1033F0000446C0E90033C0E9043383608181436639
:10340000C2818361194608225C3000F0C3F80D4B7D
:1034100063620D4BA3620D4BE3620D4B23630D4BB7
:1034200024629C4206D003F16802944202D0D03359
:103430009C4205D104F15800BDE8104000F0E0B80E
:1034400010BD00BF414F0008634F00089B4F0008AC
:10345000BF4F000840020020024A0349034800F021
:1034600069B800BF0C000020E147000818000020E8
:1034700041680C4B994210B5044601D001F0B0F9F7
:10348000A168094B994202D0204601F0A9F9E168F0
:10349000064B994204D02046BDE8104001F0A0B987
:1034A00010BD00BF40020020A80200201003002031
:1034B00010B50B4B0B4C0C4A1A602046002204211D
:1034C000FFF794FF04F1680001220921FFF78EFF46
:1034D00004F1D0000222BDE810401221FFF786BFA0
:1034E000780300204002002059340008014800F011
:1034F00088B800BF7D030020014800F083B800BFFA
:103500007D03002010B50446FFF7F0FF236A1BB1CE
:10351000BDE81040FFF7F0BF044B2362044B1B686B
:10352000002BF5D1FFF7C4FFF2E700BF71340008AC
:10353000780300202DE9F843074688461446002604
:10354000D4E90195B9F1010905D52468002CF7D11A
:103550003046BDE8F883AB89012B07D9B5F90E30A9
:10356000013303D029463846C04706436835E9E7AA
:103570000FB407B5064904AB086853F8042B8168FB
:10358000019300F0E5FE03B05DF804EB04B0704772
:103590006400002002440346934200D1704703F8C0
:1035A000011BF9E70048704758010020014B1868DB
:1035B000704700BF6400002070B50D4D0D4C641BBA
:1035C000A4100026A64209D10B4D0C4C01F074FF4B
:1035D000641BA4100026A64205D170BD55F8043B1B
:1035E00098470136EEE755F8043B98470136F2E775
:1035F0007458000874580008745800087858000877
:103600007047704770472DE9F74F03690C69A34273
:1036100007467EDB013C01F1140800F1140505EBBF
:103620008403019358F8243055F8242001339A423A
:103630004FEA840B08EB8409B2FBF3F631D34FF069
:10364000000E4046AC46F24650F8042B93B206FBFF
:1036500003E34FEA124E1A0C9BB2AAEB0303DCF809
:1036600000A013FA8AF306FB0E220093009B4FEA98
:10367000124E92B2C2EB1A4202EB2342BDF8003066
:10368000814543EA02434CF8043B4FEA224ADBD22D
:1036900055F80B302BB9019B043B9D421A462CD3A5
:1036A0003C61384601F04CFB002822DB01362946FC
:1036B000002058F8042BD1F800C093B2C31A120CA2
:1036C00013FA8CF3C2EB1C4202EB23429BB243EA97
:1036D0000243C14541F8043B4FEA2240E9D255F884
:1036E000242005EB840322B9043B9D421A460AD3E9
:1036F0003C61304603B0BDE8F08F1268043B002AFD
:10370000CED1013CC9E71268043B002AF0D1013C4C
:10371000EBE70020EEE700002DE9F04F2DED048BE4
:10372000C56993B08DED020B57EC106BDDF880800E
:10373000079104460A920D9375B9102000F022FFFC
:103740000246E06120B9AE4BEF21AE4801F0B8FD72
:10375000C0E901550560C560E369196851B15A684F
:103760004A60012393408B60204601F0ADF8E36985
:1037700000221A603B1EBBBF23F0004303930023CB
:103780000122ACBFC8F80030C8F800209E4BDDF81D
:103790000C8033EA08031BD10D9A42F20F731360B9
:1037A000C8F31303334300F09385219B63B9974B10
:1037B00027E0974B00930833219A1360009813B0C9
:1037C000BDEC048BBDE8F08F904B00930333F3E71F
:1037D0009DED027B002251EC170BB0EE478AF0EE14
:1037E000678A0023FDF7F4FA814660B10D9A012340
:1037F0001360219B002B00F06885864B219A136093
:10380000013B0093DAE710AA11A92046B0EE480A5E
:10381000F0EE680A01F03AFBC8F30A558246002D23
:103820007FD018EE903AC3F3130343F07F5351EC6B
:10383000180B43F44013A5F2FF35CDF83890194624
:103840000022754BFCF7C8FC67A3D3E90023FDF702
:1038500057F867A3D3E90023FCF7C0FC06462846C7
:103860000F46FCF707FE64A3D3E90023FDF748F8F1
:1038700002460B4630463946FCF7B0FC06460F467A
:10388000FDF7EEFA00228346002330463946FDF765
:10389000A9FA48B15846FCF7EDFD32463B46FDF724
:1038A00097FA08B90BF1FF3BBBF1160F57D85B4BEA
:1038B00003EBCB03D3E9002351EC180BFDF792FA8D
:1038C00000284ED00BF1FF3B00230C93109B5B1B99
:1038D0005A1E45BFC3F1010305930023002306923E
:1038E00054BF05930693BBF1000F3CDB069BCDF85C
:1038F0002CB05B44069300230893079B092B68D8E0
:10390000052BC4BF043B0793079BA3F10203CCBF65
:1039100000250125032B00F28580DFE803F02E3B14
:103920003958DDE910531D4405F23243202BC1BF45
:10393000C3F1400308FA03F805F2124326FA03F331
:10394000D6BFC3F1200348EA030006FA03F0FCF7F0
:1039500081FD0122A1F1F873013D0E926FE7012371
:10396000B3E70C90B2E7059BA3EB0B030593CBF1F8
:103970000003089300230B93BFE7002309930A9BDE
:10398000002B52DC0123019304931A460A920BE0A8
:103990000123F3E7002309930A9B5B44019301335E
:1039A000012B0493B8BF0123E0690021042202F136
:1039B00014069E423DD94160204600F045FF00902C
:1039C000002839D1164B024640F2AF11BDE6012363
:1039D000E1E701250023079309954FF0FF33019399
:1039E000049300221223D1E761436F63A787D23F7C
:1039F000B3C8608B288AC63FFB799F501344D33FDE
:103A000039550008505500080000F07F3555000872
:103A10002C550008095500080000F83F50560008D2
:103A2000A855000801230993D7E70A9B0193049343
:103A3000BAE701315200BAE7E369009A1A60049BC1
:103A40000E2B00F2A880002D00F0A580BBF1000F26
:103A500038DDC04B0BF00F0203EBC2031BF4807F79
:103A6000D3E900674FEA2B1819D0BB4B51EC180B68
:103A7000D3E90823FDF76EF8CDE9020108F00F083D
:103A80000325DFF8D492B8F1000F0AD1DDE9020175
:103A900032463B46FDF75EF8CDE902012BE00225F8
:103AA000EFE718F0010F08D030463946D9E9002376
:103AB000FCF726FF013506460F464FEA680809F174
:103AC0000809E0E700F09F80CBF10006A14BA24F70
:103AD00006F00F0203EBC203D3E9002351EC180BED
:103AE000FCF70EFFCDE90201361100230225002E5E
:103AF0007ED1002BD0D10C9BDDE90289002B00F098
:103B00008480964B002240464946FDF76BF9002819
:103B10007BD0049B002B78D0019B002B39DD904B90
:103B2000002240464946FCF7EBFECDE90201019E2A
:103B30000BF1FF370135DDE902892846FCF79AFCD5
:103B400042464B46FCF7DCFE864B0022FCF746FB68
:103B5000A1F15073CDE902010393002E58D1824B9D
:103B6000002240464946FCF737FBDDE90223804648
:103B70008946FDF755F9002840F09682DDE90221DB
:103B8000404601F100434946FDF72CF9002840F07A
:103B900089828DED028B119B002BC0F24E81BBF10F
:103BA0000E0F00F34A816B4B03EBCB03D3E9008983
:103BB0000A9B002B80F2DC80049B002B00F3D88052
:103BC00040F06F82684B002240464946FCF798FE61
:103BD000DDE90223FDF71AF9049E3746002840F07C
:103BE0004582009D312305F8013B0BF1010B41E2B9
:103BF000F20705D5D7E90023FCF782FE0135012342
:103C00007610083773E7022575E7049E5F4692E752
:103C10000099504B9DED027B314402910999B0EE21
:103C2000479AF0EE679A03EBC60353E90223002993
:103C300044D04E490020FCF78DFF53EC192BFCF7C4
:103C4000CBFA009D41EC190B49464046FDF708F9B7
:103C50000646FCF70FFC02460B4640464946FCF779
:103C6000BBFA303605F8016B53EC192B80468946B8
:103C7000FDF7B8F8002864D142464B46374900208A
:103C8000FCF7AAFA53EC192BFDF7ACF8002840F02A
:103C9000B680029B9D423FF47CAF314B51EC190B37
:103CA0000022FCF72DFE2E4B41EC190B0022404662
:103CB0004946FCF725FE80468946C5E751EC170BBF
:103CC000FCF71EFE029B009D0F9341EC190B494629
:103CD0004046FDF7C5F80646FCF7CCFB30360246F9
:103CE0000B4640464946FCF777FA05F8016B029B04
:103CF0009D42804689464FF0000224D11B4B51EC77
:103D0000190BFCF76BFA02460B4640464946FDF795
:103D100087F8002873D153EC192B14490020FCF7C5
:103D20005BFA02460B4640464946FDF75BF8002821
:103D30003FF42FAF0F9D6B1E0F9315F8013C302BF6
:103D4000F8D0BB464AE0064BFCF7DAFD80468946D0
:103D5000BDE700BF50560008285600080000F03F9D
:103D60000000244000001C40000014400000E03F20
:103D7000DDE90267009D42464B4630463946FCF776
:103D8000E9FEFDF76DF80190FCF774FB42464B46E7
:103D9000FCF7B6FD02460B4630463946FCF71CFAE6
:103DA000019E049F303605F8016B009EAE1BB742A2
:103DB00002460B4634D1FCF711FA42464B46064602
:103DC0000F46FDF72DF8C8B942464B4630463946F6
:103DD000FCF7FEFF10B1019BDB070FD451462046D4
:103DE00000F072FD00230D9A2B700BF1010313609C
:103DF000219B002B3FF4E2AC1D60DFE45F462B46C5
:103E00001D4613F8012D392A06D1009A9A42F7D19E
:103E10000099302201370A701A7801321A7090E73F
:103E2000A34B0022FCF76CFD0022002306460F4640
:103E3000FCF7CEFF00289ED0D0E7099A002A00F0B8
:103E4000CA80079A012A00F3AD800E9A002A00F07A
:103E5000A58003F23343089E059D059A1A440592F6
:103E6000069A01211A442046069200F0E3FD074617
:103E700065B1069B002B09DDAB42059AA8BF2B4616
:103E8000D21A0592069AED1AD31A0693089BF3B13B
:103E9000099B002B00F0A380002E10DD394632462E
:103EA000204600F087FE524601460746204600F0B5
:103EB000D7FD51468046204600F006FDC246089BCD
:103EC0009A1B04D05146204600F074FE8246012120
:103ED000204600F0AFFD0B9B002B064640F381808F
:103EE0001A460146204600F065FE079B012B064658
:103EF0007ADD4FF00008336906EB8303186900F0A0
:103F00004BFDC0F12000069B184410F01F0000F08C
:103F10009480C0F12003042B40F38580059BC0F101
:103F20001C0003440593069B034405440693059B2C
:103F3000002B05DD51461A46204600F095FE8246CC
:103F4000069B002B05DD31461A46204600F08CFE0C
:103F500006460C9B002B72D03146504600F0F0FE16
:103F600000286CDA002351460A22204600F0CEFCDD
:103F7000099B0BF1FF3B8246002B00F0B081002330
:103F800039460A22204600F0C1FC019B002B07465F
:103F900000F39680079B022B59DC91E0109BC3F144
:103FA000360358E7049B5E1E089BB342BFBF089BC5
:103FB0000B9A0896F31AB4BFD2189E1B049BBCBF81
:103FC0000B920026002BB7BFDDE90423DDE90435A1
:103FD0009D1A002341E7089E059D099F48E7089A1E
:103FE00070E7079B012B19DC029BBBB9039BC3F352
:103FF00013039BB9039B23F000431B0D1B0583B1E7
:10400000059B01330593069B013306934FF001088E
:104010000B9B002B7FF46FAF012074E74FF000087B
:10402000F6E79846F4E782D0059A1C331A440592C5
:10403000069A1A441D44069279E70346F4E7049B66
:10404000002B37DC079B022B34DD049B0193019B83
:1040500063B931460522204600F058FC0146064669
:10406000504600F06DFE00283FF7BBAD0A9B009D57
:104070006FEA030B4FF000083146204600F024FCA5
:10408000002F3FF4ABAEB8F1000F05D0B84503D018
:104090004146204600F018FC3946204600F014FC4A
:1040A0009CE600263746E1E7BB46374699E500BF68
:1040B00000002440099B002B00F0C880049B019362
:1040C000002D05DD39462A46204600F0CDFD074685
:1040D000B8F1000F5BD07968204600F0B5FB0546CB
:1040E00028B9834B024640F2EF21FFF72EBB3A6915
:1040F0000232920007F10C010C3001F0D3F80122DA
:104100002946204600F0B0FD009B01330493DDE911
:10411000002313440893029B03F00103B84606935F
:104120000746049B3146013B50460193FFF76BFA6B
:104130004146029000F13009504600F001FE3A4637
:1041400005903146204600F017FEC268054602BBC6
:104150000146504600F0F4FD0246294620460992E9
:1041600000F0B2FB079B099A049D43EA0201069BFB
:10417000194310D1B9F1390F29D0059B002B02DD6D
:10418000029B03F13109019B83F8009074E73846E4
:10419000BAE70122E1E7059B002B04DB07990B43FB
:1041A00006990B4320D1002AEDDD5146012220461D
:1041B00000F05AFD3146824600F0C2FD002803DCC3
:1041C000E1D119F0010FDED0B9F1390FD8D1019A40
:1041D000392313702B461D46013B15F8012C392A53
:1041E0006CD001321A7047E7002A07DDB9F1390FA8
:1041F000EDD0019A09F1010313703DE7049B089A81
:1042000003F8019C934243D0514600230A222046E2
:1042100000F07CFBB84582464FF000034FF00A02E5
:104220004146204607D100F071FB80460746049BBB
:104230000133049375E700F069FB3946804600239B
:104240000A22204600F062FB0746F0E7049B019338
:10425000009D31465046FFF7D6F900F13009009B2A
:1042600005F8019BEA1A019B934207DD51460023A2
:104270000A22204600F04AFB8246EAE7019B002B17
:10428000C8BF1D46009BD8BF01251D444FF0000844
:1042900051460122204600F0E7FC3146824600F0FC
:1042A0004FFD002896DC02D119F0010F92D12B4668
:1042B0001D4613F8012D302AFAD0DDE6009A9A4205
:1042C00089D10BF1010B312396E70A4BFFF799BA1D
:1042D000219B002B7FF46DAA074BFFF792BA019B3D
:1042E000002BB5DC079B022B3FF7B1AEB0E700BF58
:1042F000A8550008085500082C5500089368013B94
:10430000002B10B4936008DA9469A34201DB0A29F8
:1043100003D15DF8044B00F056BE1368581C1060C2
:10432000197008465DF8044B7047F8B506460F460D
:104330001446D518AC4201D1002007E014F8011B47
:104340003A463046FFF7DAFF431CF3D1F8BD0000D0
:104350002DE9F04F0D469DB014469846064618B11B
:10436000036A0BB9FFF7CEF86B6ED90705D4AB899A
:104370009A0502D4A86DFFF744F9AB891B0701D554
:104380002B699BB92946304600F05AFE70B16B6E1E
:10439000DC0704D54FF0FF301DB0BDE8F08FAB89CE
:1043A0009805F7D4A86DFFF72DF9F3E700230993DB
:1043B00020238DF82930CDF80C803023DFF8B08130
:1043C0008DF82A304FF0010923469A4613F8012B45
:1043D0000AB1252AF9D1BAEB040B0BD05B46224671
:1043E00029463046FFF7A1FF013000F0A980099A65
:1043F0005A4409929AF80030002B00F0A180002363
:104400004FF0FF32CDE905230AF1010A0493079327
:104410008DF853301A935446052214F8011B544862
:10442000FCF716FA049AD8B9D10644BF20238DF8B8
:104430005330130744BF2B238DF853309AF80030C4
:104440002A2B15D0079A544600204FF00A0C21461B
:1044500011F8013B303B092B4DD9B0B1079214E064
:10446000A0EB080309FA03F313430493A246D2E72F
:10447000039B191D1B680391002BBBBF5B4242F0DD
:10448000020207930793B8BF049223782E2B0CD116
:1044900063782A2B34D1039B1A1D1B680392002BCF
:1044A000B8BF4FF0FF3302340593DFF8D4A0217872
:1044B00003225046FCF7CCF938B1049BA0EB0A006C
:1044C0004022824013430134049314F8011B29480D
:1044D0008DF828100622FCF7BBF900283FD0264BA8
:1044E0001BBB039B073323F0070308330393099B8C
:1044F0003B44099368E70CFB02320C460120A6E717
:1045000000230134059319464FF00A0C204610F899
:10451000012B303A092A03D9002BC6D00591C4E7F4
:104520000CFB012104460123F0E703AB00932A466C
:10453000124B04A93046FEF793FB0746781CD6D1F0
:104540006B6ED90705D4AB899A0502D4A86DFFF725
:1045500059F8AB895B063FF51DAF09981CE703AB23
:1045600000932A46054B04A93046FEF71DFEE4E7FA
:10457000B9550008C3550008612C00082B430008FA
:10458000BF550008024B0146186800F023B800BF71
:104590006400002070B50E4E0C463168054611B916
:1045A00000F05EFE30602146284600F059FE431CB4
:1045B0000AD0C41C24F00304A04207D0211A2846C4
:1045C00000F04EFE013001D14FF0FF34204670BDA7
:1045D000840300202DE9F843CD1C25F003050835A0
:1045E0000C2D38BF0C25002D074601DBA94205D94B
:1045F0000C233B6000263046BDE8F883DFF8D0800E
:1046000000F016F9D8F800301C465CBB2946384645
:10461000FFF7C0FF431C044655D1D8F8004026469A
:10462000002E45D1002C48D023683146384604EB93
:10463000030900F015FE81453FD121686D1A294616
:104640003846FFF7A7FF013037D023682B4423609B
:10465000D8F80030002B38D05A68A2422BD1002263
:104660005A600FE02268521B1FD40B2A17D9611918
:10467000A342256018BF5960636808BFC8F80010DE
:1046800062514B60384604F10B0600F0D7F826F073
:104690000706231DF21AAED09B1BA350ABE7A34223
:1046A0006268DDD1C8F80020ECE723466468ACE717
:1046B00034467668B4E71346CCE70C233B603846B3
:1046C00000F0BCF897E72560DCE75B60FFDE00BF29
:1046D000800300208A892DE9F041054610070C4629
:1046E00058D44B68002B05DC0B6C002B02DC00203F
:1046F000BDE8F081E66A002EF9D0002312F4805262
:104700002F68216A2B6032D0606DA3895A0705D5C6
:104710006368C01A636B0BB1236CC01A0023024696
:10472000E66A216A2846B047431CA38906D1296856
:104730001D292BD8294A0A41D60727D400226260B6
:10474000D9042269226004D5421C01D12B6803B927
:104750006065616B2F600029C9D004F14403994260
:1047600002D0284600F0E0FD00206063C0E701238E
:104770002846B047411CC8D12B68002BC5D01D2B43
:1047800001D0162B01D12F60B1E7A38943F040037C
:10479000A381ADE70F69002FA9D093070E6808BF6A
:1047A0004B690F6018BF0023A6EB07088B60B8F1B8
:1047B000000F9CDD216AA66A43463A462846B04768
:1047C000002806DCA38943F04003A3814FF0FF30AB
:1047D0008EE70744A8EB0008E9E700BFFEFFBFDF54
:1047E00038B50B6905460C4613B90025284638BD77
:1047F00018B1036A0BB9FEF785FEB4F90C30002B33
:10480000F3D0626ED00704D4990502D4A06DFEF7F0
:10481000F8FE28462146FFF75DFF636EDA0705467E
:10482000E4D4A3899B05E1D4A06DFEF7EBFEDDE7A0
:104830000148FEF7E6BE00BF7C0300200148FEF7FA
:10484000E1BE00BF7C03002070B5C66904460D467A
:1048500076B91020FFF796FE0246E06120B9184BAA
:1048600018486B2100F02CFDC0E901660660C660A7
:10487000E669F36883B1E369DB6853F82500B8B9EA
:10488000012101FA05F6721D9200204600F036FD66
:1048900060B1C0E901560EE021220421204600F05B
:1048A0002DFDE369F060DB68002BE4D1002070BDD2
:1048B000026843F825200023C0E90333F7E700BF6F
:1048C00039550008CA55000870B5C66905460C463A
:1048D00076B91020FFF756FE0246E86120B9094B71
:1048E00009488F2100F0ECFCC0E901660660C66053
:1048F0003CB1EB696268DB6853F82210216043F831
:10490000224070BD39550008CA5500082DE9F04114
:104910000D6907460C461E4601F1140C0020DCF818
:10492000003099B202FB01611E0C0B0C02FB063336
:1049300089B2013001EB034185424CF8041B4FEA78
:104940001346ECDC0EB3A368AB4219DC6168384651
:104950000131FFF779FF804628B902460C4B0D481C
:10496000BA2100F0ADFC2269023204F10C01920080
:104970000C3000F097FC21463846FFF7A5FF44466F
:1049800004EB850301355E6125612046BDE8F081B9
:10499000A8550008CA550008030C1B04D3B900042D
:1049A000102310F07F4F04BF0002083310F0704F47
:1049B00004BF0001043310F0404F04BF80000233F5
:1049C000002805DB10F0804F03F1010308BF20230E
:1049D000184670470023E4E7036813F007020CD081
:1049E000D90722D49A0749BF5B089B0803600122BC
:1049F0005CBF036002221046704799B209B91B0CD4
:104A00001022D9B209B908321B0A190704BF1B09C1
:104A10000432990704BF9B080232D90703D45B080C
:104A200002F1010203D00360E5E70022E3E7202260
:104A3000E1E7000010B50C460121FFF705FF024633
:104A400028B9054B054840F2451100F039FC012317
:104A50004461036110BD00BFA8550008CA55000895
:104A60002DE9F04F91460A69D9F810309A42B8BF43
:104A70000B460C46BCBF4C4699462769D9F810A096
:104A8000A368616807EB0A06B34285B0B8BF01317D
:104A9000FFF7DAFE30B90246444B45484FF4B17196
:104AA00000F00EFC00F1140505EB86082B460022F1
:104AB000434521D304F1140303EB870709F11403E1
:104AC00003EB8A0202923A1B153A22F003020432E7
:104AD00004F115018F4238BF04220192029A039318
:104AE0009A420CD8002E03DD58F8043D002B5BD011
:104AF000066105B0BDE8F08F43F8042BD8E7B3F8A2
:104B000000A0BAF1000F24D004F1140EA9464FF012
:104B1000000C5EF8042BD9F800101FFA82FB89B252
:104B20000AFB0B114FEA124BD9F8002061444FEAFF
:104B3000124C0AFB0BC202EB114289B241EA02415C
:104B4000774549F8041B4FEA124CE2D8019A45F820
:104B500002C0039AB2F802900433B9F1000F21D0D9
:104B6000296804F1140CAE464FF0000ABCF800B0FE
:104B7000BEF8022009FB0B22524489B241EA0241ED
:104B80004EF8041B5CF8041B4FEA114ABEF80010F3
:104B900009FB0A1101EB124167454FEA114AE5D8BA
:104BA000019AA950043599E7013E9BE7A8550008F2
:104BB000CA5500082DE9F843154612F003020646CF
:104BC0000F4607D0254C013A002354F82220FFF766
:104BD0009DFE0746AD103DD0F4697CB91020FFF76B
:104BE000D1FC0246F06128B91D4B1E4840F2B311BA
:104BF00000F066FBC0E901440460C460D6F81C8084
:104C0000D8F808404CB940F271213046FFF712FF46
:104C10000023C8F80800044603604FF00009EB07C2
:104C20000AD5394622463046FFF71AFF39468046F4
:104C30003046FFF749FE47466D100BD0206838B963
:104C4000224621463046FFF70BFF2060C0F8009057
:104C50000446E4E73846BDE8F88300BF185700086B
:104C600039550008CA5500082DE9F0470C46496837
:104C7000236903EB6218A368074691464FEA621A5C
:104C800008F10106B3420BDB3846FFF7DDFD0546B0
:104C900048B90246284B29484FF4EF7100F010FB49
:104CA00001315B00EEE7002300F1140100F1100276
:104CB0001846534533DB20692AEAEA7A04F11403E3
:104CC00019F01F0901EB8A0103EB800C2BD0C9F10D
:104CD000200E8A460022186800FA09F010434AF8AC
:104CE000040B53F8042B9C4522FA0EF2F3D8ACEBDC
:104CF0000403153B23F00303043304F1150084453A
:104D000038BF0423CA500AB108F10206013E3846F2
:104D10002E612146FFF7D8FD2846BDE8F08742F80E
:104D2000040F0133C5E7043953F8042B41F8042F6D
:104D30009C45F9D8EAE700BFA8550008CA55000805
:104D400030B502690C69121B0ED100F11403143145
:104D500003EB840001EB840150F8045D51F8044D2D
:104D6000A54203D005D30122104630BD8342F3D3C0
:104D7000FAE74FF0FF32F7E72DE9F84F0C46064609
:104D8000114620469046FFF7DBFF051E10D129464D
:104D90003046FFF759FD30B93A4B024640F2372111
:104DA000394800F08DFA0123C0E90435BDE8F88FD9
:104DB000A4BF4346A0463046D8F80410A6BF1C4600
:104DC00000250125FFF740FD20B92E4B024640F299
:104DD0004521E5E7D8F810702669C56004F114098B
:104DE00008F1140500F1140E05EB870C09EB86069B
:104DF00008F11002F246002159F8043B52F804BFB2
:104E000011FA8BF899B21B0CA8EB0108C3EB1B43FA
:104E100003EB28431FFA88F819144E4548EA034368
:104E20004AF8043BE8D8331B153B23F00303043353
:104E30001534A64238BF04231D4473449E462E46B3
:104E400066450ED30CF10302521B22F00302033D10
:104E5000AC4538BF0022134453F8042D7AB10761E2
:104E6000A4E756F8048B11FA88F2141404EB1844E2
:104E700092B242EA04424EF8042B2114E0E7013FCB
:104E8000EAE700BFA8550008CA5500082DE9F74316
:104E90000F46012159EC108B1646FFF7D5FC04464E
:104EA00030B90246244B254840F20F3100F008FA91
:104EB000C9F30A55C9F313032DBB0193B8F10003DD
:104EC00026D068460093FFF787FDDDE90012E8B1C0
:104ED000C0F1200302FA03F30B43C2406361019265
:104EE000019BA361002B14BF022201222261BDB1EC
:104EF000A5F2334505443D60C0F1350030602046E1
:104F000003B0BDE8F08343F48013D6E76161E7E7BF
:104F100001A8FFF761FD019B636120300122E5E7F5
:104F200004EB8203A0F2324038601869FFF734FDC9
:104F3000C0EB4210E2E700BFA8550008CA550008C0
:104F400010B50C46B1F90E1000F078F90028ABBF8F
:104F5000636DA3891B1823F48053ACBF6365A381E1
:104F600010BD2DE9F0411F468B89DB0505460C4637
:104F7000164605D5B1F90E100223002200F04CF9B7
:104F8000A389B4F90E1023F48053A38132463B4623
:104F90002846BDE8F04100F073B910B50C46B1F9F0
:104FA0000E1000F039F9431CA38915BF606523F486
:104FB000805343F48053A38118BFA38110BDB1F97E
:104FC0000E1000F0F7B8F8B50E461446054618B1B5
:104FD000036A0BB9FEF796FAA369A360A3891A07BF
:104FE00025D523691BB323682269981A6369F6B231
:104FF0008342374604DC21462846FFF7F1FBE0B93F
:10500000A368013BA36023685A1C22601E7062697A
:10501000431C9A4204D0A389DB0706D50A2E04D18B
:1050200021462846FFF7DCFB38B93846F8BD214653
:10503000284600F005F80028D5D04FF0FF37F4E7F8
:1050400038B52A4B054618680C4618B1036A0BB9E7
:10505000FEF758FAA389B4F90C20180722D4D90610
:1050600007D409232B6042F04003A3814FF0FF30A7
:1050700034E0580712D5616B41B104F14403994201
:1050800002D0284600F050F900236363A38923F07F
:105090002403A3810023636023692360A38943F071
:1050A0000803A38123694BB9A38903F42073B3F5E3
:1050B000007F03D02146284600F040F8A089B4F9CB
:1050C0000C2010F001030AD00023A36063695B4247
:1050D000A361236943B910F08000C4D138BD8107B2
:1050E00058BF6369A360F4E70020F7E7640000207D
:1050F00070B50C46B1F90E10002996B015461E4643
:105100000DDAA38913F0800F4FF000010CBF4FF4AC
:1051100080634023002031602B6016B070BD6A466A
:1051200000F058F80028ECDB019901F47041A1F57A
:105130000053594259414FF48063EBE78B8973B5B3
:105140009D0706460C4607D504F1470323602361FB
:105150000123636102B070BD01AB6A46FFF7C8FF6F
:10516000009905463046FFF735FA48B9B4F90C30D6
:105170009A05EFD423F0030343F00203A381E3E78E
:10518000A389206043F08003A381009B6361019B9E
:1051900020615BB1B4F90E10304600F02DF828B153
:1051A000A38923F0030343F00103A381A3891D43D3
:1051B000A581CFE738B5064D0023044608462B608D
:1051C000FBF7D9FF431C02D12B6803B1236038BD24
:1051D0008803002038B5074D0023044608461146D1
:1051E0002B60FBF7D4FF431C02D12B6803B1236073
:1051F00038BD00BF8803002038B5064D00230446A3
:1052000008462B60FBF7D3FF431C02D12B6803B188
:10521000236038BD8803002038B5074D0446084692
:10522000114600222A601A46FBF7CCFF431C02D12C
:105230002B6803B1236038BD8803002038B5074DC3
:1052400004460846114600222A601A46FBF776FFFC
:10525000431C02D12B6803B1236038BD88030020B2
:1052600038B5064D0023044608462B60FBF7B8FF0F
:10527000431C02D12B6803B1236038BD8803002092
:1052800038B5074D04460846114600222A601A46E2
:10529000FBF736FE431C02D12B6803B1236038BDF7
:1052A000880300200A44914200F1FF3300D1704787
:1052B00010B511F8014B03F8014F9142F9D110BD1F
:1052C0001FB514461A46094B1B680546D8684CB1F1
:1052D000074B0091CDE9013406492B4600F082F8D6
:1052E00000F09FF8044B1C46F3E700BF6400002069
:1052F0002F5800083C5800086A58000837B5A1FB31
:1053000002244CB911460192FFF764F9019A05464F
:1053100030B9284603B030BD0C2202600025F8E702
:105320002146FEF737F9F4E737B5002944D051F8A4
:10533000043C0190002BA1F10404B8BFE418FFF76E
:1053400077FA1E4A0198136833B96360146003B09A
:10535000BDE83040FFF772BAA34208D92568611949
:105360008B4201BF19685B6849192160EDE71A4655
:105370005B680BB1A342FAD911685518A5420BD14D
:10538000246821445418A3421160E0D11C685B6872
:1053900053600C441460DAE702D90C230360D6E7AB
:1053A000256861198B4204BF19685B68636004BF9C
:1053B000491921605460CAE703B030BD8003002062
:1053C00082B001B901A942B14BB113780B601278D8
:1053D000101E18BF012002B070471046FBE76FF0A7
:1053E0000100F8E70EB403B5014603AB054853F8D6
:1053F000042B00680193FEF7ABFF02B05DF804EBED
:1054000003B070476400002049B1FF2A85BF8A239A
:1054100003600A704FF0FF3098BF012070470846C4
:10542000704708B5062000F02BF80120FBF77CFE42
:105430001F2938B504460D4604D9162303604FF0E2
:10544000FF3038BDC26B12B152F821304BB9204643
:1054500000F030F82A4601462046BDE8384000F00A
:1054600017B8012B0AD0591C03D116230360012061
:10547000E7E7002442F82540284698470020E0E767
:10548000024B01461868FFF7D3BF00BF640000203D
:1054900038B5074D00230446084611462B60FBF73C
:1054A00033FE431C02D12B6803B1236038BD00BF1B
:1054B00088030020FBF720BEF8B500BFF8BC08BC8D
:1054C0009E467047F8B500BFF8BC08BC9E467047C2
:1054D00048656C6C6F2025642025660D0A0000006D
:1054E0000000000000000000010203040607080994
:1054F0000000000001020304494E4600696E660088
:105500004E414E006E616E00300030313233343522
:10551000363738394142434445460030313233341E
:10552000353637383961626364656600496E66698D
:105530006E697479004E614E005245454E54206D9F
:10554000616C6C6F6320737563636565646564008B
:105550002F6275696C642F676E752D746F6F6C7335
:105560002D666F722D73746D33325F31312E332E91
:1055700072656C312E32303233303931322D313662
:1055800030302F7372632F6E65776C69622F6E6592
:10559000776C69622F6C6962632F7374646C6962E3
:1055A0002F64746F612E630042616C6C6F632073B3
:1055B000756363656564656400232D302B20006886
:1055C0006C4C00656667454647002F6275696C64E0
:1055D0002F676E752D746F6F6C732D666F722D73E0
:1055E000746D33325F31312E332E72656C312E3251
:1055F000303233303931322D313630302F737263DF
:105600002F6E65776C69622F6E65776C69622F6C9F
:105610006962632F7374646C69622F6D7072656365
:105620002E630000000000000080E03779C3414392
:10563000176E05B5B5B89346F5F93FE9034F384DF8
:10564000321D30F94877825A3CBF737FDD4F1575A4
:10565000000000000000F03F0000000000002440B7
:1056600000000000000059400000000000408F4092
:10567000000000000088C34000000000006AF840FD
:105680000000000080842E4100000000D012634121
:105690000000000084D797410000000065CDCD4197
:1056A000000000205FA00242000000E87648374278
:1056B000000000A2941A6D42000040E59C30A24216
:1056C0000000901EC4BCD64200003426F56B0C438B
:1056D0000080E03779C3414300A0D8855734764332
:1056E00000C84E676DC1AB43003D9160E458E14393
:1056F000408CB5781DAF154450EFE2D6E41A4B4408
:1057000092D54D06CFF08044F64AE1C7022DB5444C
:10571000B49DD9794378EA440500000019000000DF
:105720007D0000004300504F534958002E000020D8
:105730002020202020202020282828282820202041
:1057400020202020202020202020202020202088F1
:105750001010101010101010101010101010100455
:1057600004040404040404040410101010101010A5
:105770004141414141410101010101010101010199
:1057800001010101010101010101101010101010AF
:105790004242424242420202020202020202020269
:1057A0000202020202020202020210101010200085
:1057B00000000000000000000000000000000000E9
:1057C00000000000000000000000000000000000D9
:1057D00000000000000000000000000000000000C9
:1057E00000000000000000000000000000000000B9
:1057F00000000000000000000000000000000000A9
:105800000000000000000000000000000000000098
:105810000000000000000000000000000000000088
:105820000000000000000000000000000000002C4C
:105830002066756E6374696F6E3A200061737365DC
:105840007274696F6E2022257322206661696C650F
:10585000643A2066696C6520222573222C206C69CD
:0C5860006E65202564257325730A000086
:08586C000CADFF7F01000000FC
:04587400B501000872
:045878009101000892
:10587C000024F400100000000100000000000000F3
:10588C000300000040020020000000004002002045
:10589C00A8020020100300200000000000000000FF
:1058AC0000000000000000000000000000000000EC
:1058BC0000000000000000000000000000000000DC
:1058CC0000000000000000000000000000000000CC
:1058DC000000000018000020430000000000000041
:1058EC0000000000000000000000000000000000AC
:1058FC000000000000000000430000000000000059
:10590C00000000000000000000000000000000008B
:10591C000000000000000000430000000000000038
:10592C00000000000000000000000000000000006B
:10593C000000000000000000430000000000000018
:10594C00000000000000000000000000000000004B
:10595C0000000000000000004300000000000000F8
:10596C00000000000000000000000000000000002B
:10597C0000000000000000004300000000000000D8
:10598C00000000000000000000000000000000000B
:10599C0000000000000000004300000000000000B8
:1059AC0000000000000000000000000000000000EB
:1059BC00000000000000000009540008C15300085A
:1059CC00000000002E5700082C5700086A580008E9
:1059DC006A5800086A5800086A5800086A58000893
:1059EC006A5800086A5800086A5800086A58000883
:1059FC00FFFFFFFFFFFFFFFFFFFFFFFFFFFF0000A9
:105A0C000100415343494900000000000000000020
:105A1C00000000000000000000000000000000007A
:105A2C000000415343494900000000000000000001
:105A3C00000000000000000000000000000000005A
:045A4C000000000056
:040000050800135587
:00000001FF
