:020000040800F2
:10000000000002204D0E0008850C00088B0C000833
:10001000910C0008970C00089D0C000800000000DF
:10002000000000000000000000000000A30C000819
:10003000B10C000800000000BF0C0008CD0C000847
:100040009D0E00089D0E00089D0E00089D0E0008E4
:100050009D0E00089D0E00089D0E00089D0E0008D4
:100060009D0E00089D0E00089D0E00089D0E0008C4
:100070009D0E00089D0E00089D0E00089D0E0008B4
:100080009D0E00089D0E00089D0E00089D0E0008A4
:100090009D0E00089D0E00089D0E00089D0E000894
:1000A0009D0E00089D0E00089D0E00089D0E000884
:1000B0009D0E00089D0E00089D0E00089D0E000874
:1000C0009D0E00089D0E00089D0E00089D0E000864
:1000D0009D0E00089D0E00089D0E00089D0E000854
:1000E0009D0E00089D0E00089D0E00089D0E000844
:1000F0009D0E00089D0E00089D0E00089D0E000834
:100100009D0E00089D0E00089D0E00089D0E000823
:100110009D0E00089D0E00089D0E00089D0E000813
:100120009D0E00089D0E00089D0E00089D0E000803
:100130009D0E00089D0E00089D0E00089D0E0008F3
:100140009D0E00089D0E00089D0E00089D0E0008E3
:100150009D0E00089D0E00089D0E00089D0E0008D3
:100160009D0E00089D0E00089D0E00089D0E0008C3
:100170009D0E00089D0E00089D0E00080000000066
:080180009D0E00089D0E000811
:1001900010B5054C237833B9044B13B10448AFF3C1
:1001A00000800123237010BD5C00002000000000CF
:1001B000042D000808B5034B1BB103490348AFF3F6
:1001C000008008BD0000000060000020042D000831
:1001D00053B94AB9002908BF00281CBF4FF0FF31AE
:1001E0004FF0FF3000F070B9ADF1080C6DE904CEAE
:1001F00000F006F8DDF804E0DDE9022304B0704702
:100200002DE9F047089E0D4604460F46002B4AD1C3
:100210008A42944665D9B2FA82F343B102FA03FCEA
:10022000C3F120029F4020FA02F217439C404FEA9C
:100230001C4E1FFA8CF5B7FBFEF1220C0EFB11775A
:1002400042EA074201FB05F090420AD91CEB020288
:1002500001F1FF3780F01C81904240F21981023990
:100260006244121AA4B2B2FBFEF00EFB102244EA62
:10027000024400FB05F5A5420AD91CEB040400F179
:10028000FF3280F00781A54240F2048164440238C5
:1002900040EA0140641B00211EB1DC400023C6E996
:1002A0000043BDE8F0878B4208D9002E00F0ED80B6
:1002B0000021C6E900050846BDE8F087B3FA83F1DE
:1002C000002949D1AB4202D3824200F2F880841A5D
:1002D00065EB030201201746002EE2D0C6E9004775
:1002E000DFE702B9FFDEB2FA82F3002B40F0908024
:1002F0008A1A4FEA1C471FFA8CFE0121B2FBF7F560
:1003000007FB1520220C42EA00420EFB05F090424A
:1003100008D91CEB020205F1FF3802D2904200F22C
:10032000CB804546121AA4B2B2FBF7F007FB1022AD
:1003300044EA02440EFB00FEA64508D91CEB040467
:1003400000F1FF3202D2A64500F2BB801046A4EBBA
:100350000E0440EA05409FE7C1F120078B4022FAD6
:1003600007FC4CEA030C05FA01F420FA07F3FD4000
:100370004FEA1C492343B5FBF9F81FFA8CFE09FB31
:1003800018551C0C44EA054408FB0EF5A54202FA78
:1003900001F200FA01F00BD91CEB040408F1FF3A5A
:1003A00080F08880A54240F28580A8F1020864446C
:1003B000641B9DB2B4FBF9F309FB134445EA044402
:1003C00003FB0EFEA64508D91CEB040403F1FF3520
:1003D0006CD2A6456AD9023B644443EA0843A3FBB6
:1003E0000295A4EB0E04AC42C846AE4656D353D099
:1003F00056B1B0EB080264EB0E0404FA07F7CA40EA
:10040000CC401743C6E9007418460021BDE8F087C8
:10041000C3F1200102FA03FC20FA01F225FA01F1EE
:100420009D402A434FEA1C471FFA8CFEB1FBF7F0B0
:1004300007FB1015110C41EA054100FB0EF58D423A
:1004400004FA03F408D91CEB010100F1FF382FD2A4
:100450008D422DD902386144491B92B2B1FBF7F5A8
:1004600007FB151142EA014205FB0EF1914208D942
:100470001CEB020205F1FF3816D2914214D9023D5D
:100480006244521A45EA004138E73146304608E7EF
:100490003946E6E61046FBE64845A9D2B9EB020824
:1004A00065EB0C0E013BA3E74546EAE72B4694E7D4
:1004B0004046D1E7D0467BE7023D624432E708463A
:1004C0000AE76444023842E7704700BF00000000BA
:1004D00001F0FF01102A2BDB10F0070F08D010F8F5
:1004E000013B013A8B422DD010F0070F42B3F6D1F9
:1004F000F0B441EA012141EA014122F007047FF012
:1005000000070023F0E80256083C85EA010586EA68
:10051000010685FA47F5A3FA87F586FA47F6A5FAA4
:1005200087F68EB9EED1F0BC01F0FF0102F00702B0
:1005300032B110F8013B013A83EA010313B1F8D15B
:100540000020704701387047002D06BF354603383C
:10055000073815F0010F07D1013015F4807F02BF75
:10056000013015F4C03F0130F0BC0138704700BFC6
:1005700080B586B000AF00233B60234B1B6B224A43
:1005800043F010031363204B1B6B03F010033B601D
:100590003B6801237B600123BB600023FB600023D9
:1005A0003B613B1D1946194800F060FD02237B604A
:1005B0003B1D1946154800F059FD04237B603B1D87
:1005C0001946124800F052FD10237B603B1D19466E
:1005D0000E4800F04BFD20237B603B1D19460B4865
:1005E00000F044FD40237B603B1D1946074800F0A6
:1005F0003DFD80237B603B1D1946044800F036FD1D
:1006000000BF1837BD4680BD0038024000100240D0
:1006100080B582B000AF0346FB7197F90730002B1D
:1006200004DA5F4B5B6943F0800303E05C4B5B697A
:1006300023F080035A4A5361FB7903F04003002BF7
:1006400004D0574B5B6943F0400303E0544B5B69B4
:1006500023F04003524A5361FB7903F02003002B3F
:1006600004D04F4B5B6943F0200303E04C4B5B69C4
:1006700023F020034A4A5361FB7903F01003002B57
:1006800004D0474B5B6943F0100303E0444B5B69C4
:1006900023F01003424A5361414B5B69404A23F007
:1006A000010353613E4B5B693D4A23F002035361F2
:1006B0003B4B5B693A4A23F004035361384B5B6957
:1006C000374A43F004035361354B5B69344A23F0E6
:1006D00004035361FB7903F00803002B04D0304B73
:1006E0005B6943F0800303E02D4B5B6923F08003DB
:1006F0002B4A5361FB7903F00403002B04D0284BF1
:100700005B6943F0400303E0254B5B6923F0400342
:10071000234A5361FB7903F00203002B04D0204BE2
:100720005B6943F0200303E01D4B5B6923F020036A
:100730001B4A5361FB7903F00103002B04D0184BD3
:100740005B6943F0100303E0154B5B6923F0100372
:10075000134A5361124B5B69114A23F00103536141
:100760000F4B5B690E4A23F0020353610C4B5B692C
:100770000B4A23F004035361094B5B69084A43F0B9
:1007800004035361064B5B69054A23F0040353617C
:10079000012001F0EFFD00BF0837BD4680BD00BF5E
:1007A0000010024080B582B000AF0346FB7197F99C
:1007B0000730002B04DA5F4B5B6943F0800303E0F2
:1007C0005C4B5B6923F080035A4A5361FB7903F069
:1007D0004003002B04D0574B5B6943F0400303E018
:1007E000544B5B6923F04003524A5361FB7903F099
:1007F0002003002B04D04F4B5B6943F0200303E040
:100800004C4B5B6923F020034A4A5361FB7903F0A8
:100810001003002B04D0474B5B6943F0100303E047
:10082000444B5B6923F01003424A5361414B5B69BF
:10083000404A43F0010353613E4B5B693D4A23F05C
:10084000020353613B4B5B693A4A23F00403536153
:10085000384B5B69374A43F004035361354B5B699E
:10086000344A23F004035361FB7903F00803002B9F
:1008700004D0304B5B6943F0800303E02D4B5B6990
:1008800023F080032B4A5361FB7903F00403002B10
:1008900004D0284B5B6943F0400303E0254B5B69C0
:1008A00023F04003234A5361FB7903F00203002B3A
:1008B00004D0204B5B6943F0200303E01D4B5B69D0
:1008C00023F020031B4A5361FB7903F00103002B43
:1008D00004D0184B5B6943F0100303E0154B5B69D0
:1008E00023F01003134A5361124B5B69114A43F022
:1008F000010353610F4B5B690E4A23F002035361FE
:100900000C4B5B690B4A23F004035361094B5B6991
:10091000084A43F004035361064B5B69054A23F020
:1009200004035361012001F025FD00BF0837BD46D7
:1009300080BD00BF0010024080B582B000AF03460A
:100940000A46FB711346BB71BB79002B02D0012B09
:1009500007D00DE0FB79803BDBB21846FFF758FE6D
:1009600006E0FB79403BDBB21846FFF751FE00BFC3
:1009700000BF0837BD4680BD80B584B000AF0346D8
:100980003A60FB710B46BB710023FB60BA79FB79BF
:1009900011461846FFF7D0FF3A68FB6813441B78EE
:1009A0001846FFF7FFFEFB680133FB603A68FB68FF
:1009B00013441B78002BEFD100BF00BF1037BD469A
:1009C00080BD80B500AF642001F0D4FC2820FFF783
:1009D0001FFE0A2001F0CEFC2820FFF719FE0A2096
:1009E00001F0C8FC0C20FFF713FE0620FFF710FEF5
:1009F0000220FFF70DFE0120FFF70AFE0120FFF79E
:100A000007FE00BF80BD80B500AF0120FFF700FEEC
:100A10000A2001F0AFFC00BF80BD000080B588B0A7
:100A200000AF07F10C0300221A605A609A60DA6086
:100A30001A610023BB60254B1B6B244A43F0100353
:100A40001363224B1B6B03F01003BB60BB680023D6
:100A50007B601E4B1B6B1D4A43F0800313631B4BD3
:100A60001B6B03F080037B607B6800233B60174BAC
:100A70001B6B164A43F008031363144B1B6B03F004
:100A800008033B603B680022E721114800F08AFC24
:100A9000E723FB6001233B6100237B610023BB61F3
:100AA00007F10C0319460A4800F0E0FA1023FB6036
:100AB00000233B6100237B6107F10C0319460448C6
:100AC00000F0D4FA00BF2037BD4680BD0038024098
:100AD0000010024080B586B000AF01F0D9FB00F0F5
:100AE00039F8FFF79BFF00F03FF9FFF741FDFFF7F3
:100AF00068FF144A00210020FFF73EFF124A01213F
:100B00000020FFF739FF114A01210620FFF734FFCB
:100B1000FFF779FF0023FB754FF47A7001F02AFC90
:100B2000FFF771FFFB7D5A1CFA751A463B460849D0
:100B3000184601F043FC3B461A4600210020FFF70F
:100B40001BFFE9E71C2D0008282D0008302D0008A8
:100B50003C2D000880B594B000AF07F1200330228F
:100B60000021184601F04AFC07F10C0300221A602C
:100B70005A609A60DA601A610023BB60284B1B6CD4
:100B8000274A43F080531364254B1B6C03F08053BA
:100B9000BB60BB6800237B60224B1B68214A43F487
:100BA000804313601F4B1B6803F480437B607B68AA
:100BB00001233B624FF480337B620223BB634FF41B
:100BC0008003FB6304233B64A8237B640223BB6490
:100BD0000423FB6407F12003184600F0FDFB0346E5
:100BE000002B01D000F020F80F23FB6002233B61B3
:100BF00000237B614FF4A053BB614FF48053FB6132
:100C000007F10C030521184600F05EFE0346002B99
:100C100001D000F009F800BF5037BD4680BD00BFCD
:100C2000003802400070004080B400AF72B600BFD0
:100C3000FEE7000080B483B000AF00237B60104B60
:100C40005B6C0F4A43F4804353640D4B5B6C03F4BD
:100C500080437B607B6800233B60094B1B6C084A28
:100C600043F080531364064B1B6C03F080533B60CE
:100C70003B6800BF0C37BD465DF8047B704700BF82
:100C80000038024080B400AFFEE780B400AFFEE75A
:100C900080B400AFFEE780B400AFFEE780B400AFE1
:100CA000FEE780B400AF00BFBD465DF8047B70472F
:100CB00080B400AF00BFBD465DF8047B704780B4D0
:100CC00000AF00BFBD465DF8047B704780B500AF44
:100CD00001F030FB00BF80BD80B586B000AF78600A
:100CE000144A154BD31A7B617B693B61134B1B681C
:100CF000002B02D1114B124A1A60104B1A687B6804
:100D000013443A699A4207D201F080FB03460C2251
:100D10001A604FF0FF3309E0084B1B68FB60074B7C
:100D20001A687B681344054A1360FB681846183735
:100D3000BD4680BD000002200004000078000020B5
:100D40001002002080B400AF064BD3F88830054A6B
:100D500043F47003C2F8883000BFBD465DF8047BE1
:100D6000704700BF00ED00E080B500AF114B124AA4
:100D70001A60104B4FF4E1325A600E4B00229A6019
:100D80000C4B0022DA600B4B00221A61094B0C223B
:100D90005A61084B00229A61064B0022DA6105482D
:100DA00000F0B2FF0346002B01D0FFF73DFF00BF6C
:100DB00080BD00BF7C0000200048004080B58AB0A4
:100DC00000AF786007F1140300221A605A609A603D
:100DD000DA601A617B681B68194A93422CD10023A0
:100DE0003B61184B1B6C174A43F480231364154B6B
:100DF0001B6C03F480233B613B690023FB60114BB8
:100E00001B6B104A43F0080313630E4B1B6B03F07C
:100E10000803FB60FB684FF440737B610223BB61F6
:100E20000023FB6103233B6207237B6207F114036A
:100E30001946054800F01AF900BF2837BD4680BDA5
:100E40000048004000380240000C0240DFF834D077
:100E5000FFF778FF0C480D490D4A002302E0D458F3
:100E6000C4500433C4188C42F9D30A4A0A4C0023F4
:100E700001E013600432A242FBD301F0CDFAFFF788
:100E800029FE704700000220000000205C000020C6
:100E90009C2D00085C00002010020020FEE70000EE
:100EA00080B485B000AF78607B6803F00703FB6017
:100EB0000C4BDB68BB60BA684FF6FF031340BB60A6
:100EC000FB681A02BB68134343F0BF6343F400336B
:100ED000BB60044ABB68D36000BF1437BD465DF8F1
:100EE000047B704700ED00E080B400AF044BDB688A
:100EF0001B0A03F007031846BD465DF8047B7047E4
:100F000000ED00E080B483B000AF03463960FB71B0
:100F100097F90730002B0ADB3B68DAB20C4997F9E6
:100F200007301201D2B20B4483F800230AE03B6879
:100F3000DAB20849FB7903F00F03043B1201D2B285
:100F40000B441A7600BF0C37BD465DF8047B704732
:100F500000E100E000ED00E080B489B000AFF8608F
:100F6000B9607A60FB6803F00703FB61FB69C3F1BA
:100F70000703042B28BF0423BB61FB690433062B42
:100F800002D9FB69033B00E000237B614FF0FF3295
:100F9000BB6902FA03F3DA43BB681A407B699A40E3
:100FA0004FF0FF317B6901FA03F3D9437B680B40B3
:100FB000134318462437BD465DF8047B7047000094
:100FC00080B582B000AF78607B68013BB3F1807F71
:100FD00001D301230FE00A4A7B68013B53600F21D4
:100FE0004FF0FF30FFF78EFF054B00229A60044B55
:100FF00007221A60002318460837BD4680BD00BF8F
:1010000010E000E080B582B000AF78607868FFF74C
:1010100047FF00BF0837BD4680BD80B586B000AF32
:101020000346B9607A60FB7300237B61FFF75CFFC6
:1010300078617A68B9687869FFF78EFF024697F998
:101040000F3011461846FFF75DFF00BF1837BD4649
:1010500080BD80B582B000AF78607868FFF7B0FFE0
:10106000034618460837BD4680BD000080B489B0ED
:1010700000AF7860396000237B6100233B6100236F
:10108000BB610023FB616BE10122FB6902FA03F300
:101090007B613B681B687A6913403B613A697B69F5
:1010A0009A4240F05A813B685B6803F00303012BCE
:1010B00005D03B685B6803F00303022B30D17B68EB
:1010C0009B68BB61FB695B00032202FA03F3DB430D
:1010D000BA691340BB613B68DA68FB695B0002FADE
:1010E00003F3BA691343BB617B68BA699A607B6892
:1010F0005B68BB610122FB6902FA03F3DB43BA6957
:101100001340BB613B685B681B0903F00102FB698C
:1011100002FA03F3BA691343BB617B68BA695A6088
:101120003B685B6803F00303032B17D07B68DB6825
:10113000BB61FB695B00032202FA03F3DB43BA697C
:101140001340BB613B689A68FB695B0002FA03F3DA
:10115000BA691343BB617B68BA69DA603B685B6854
:1011600003F00303022B23D1FB69DA087B68083202
:1011700053F82230BB61FB6903F007039B000F2289
:1011800002FA03F3DB43BA691340BB613B681A6997
:10119000FB6903F007039B0002FA03F3BA691343E8
:1011A000BB61FB69DA087B680832B96943F8221031
:1011B0007B681B68BB61FB695B00032202FA03F3D7
:1011C000DB43BA691340BB613B685B6803F0030211
:1011D000FB695B0002FA03F3BA691343BB617B68E6
:1011E000BA691A603B685B6803F44033002B00F077
:1011F000B4800023FB60604B5B6C5F4A43F4804328
:1012000053645D4B5B6C03F48043FB60FB685B4A9B
:10121000FB699B08023352F82330BB61FB6903F082
:1012200003039B000F2202FA03F3DB43BA69134066
:10123000BB617B68524A93422BD07B68514A9342F0
:1012400025D07B68504A93421FD07B684F4A934217
:1012500019D07B684E4A934213D07B684D4A934223
:101260000DD07B684C4A934207D07B684B4A93422F
:1012700001D107230EE008230CE006230AE0052332
:1012800008E0042306E0032304E0022302E0012334
:1012900000E00023FA6902F0030292009340BA6969
:1012A0001343BB613549FB699B080233BA6941F8B6
:1012B00023203B4B9B68BB613B69DB43BA6913400E
:1012C000BB613B685B6803F48013002B03D0BA69F1
:1012D0003B691343BB61324ABB699360304BDB68A7
:1012E000BB613B69DB43BA691340BB613B685B6828
:1012F00003F40013002B03D0BA693B691343BB61AD
:10130000274ABB69D360264B5B68BB613B69DB4303
:10131000BA691340BB613B685B6803F40033002B80
:1013200003D0BA693B691343BB611D4ABB69536073
:101330001B4B1B68BB613B69DB43BA691340BB6154
:101340003B685B6803F48033002B03D0BA693B69C8
:101350001343BB61124ABB691360FB690133FB6134
:10136000FB690F2B7FF690AE00BF00BF2437BD4650
:101370005DF8047B704700BF003802400038014030
:10138000000002400004024000080240000C02403D
:10139000001002400014024000180240001C0240ED
:1013A000003C014080B483B000AF78600B467B8086
:1013B00013467B707B78002B03D07A887B689A6118
:1013C00003E07B881A047B689A6100BF0C37BD4636
:1013D0005DF8047B7047000080B586B000AF786090
:1013E0007B68002B01D1012367E27B681B6803F057
:1013F0000103002B75D0884B9B6803F00C03042B72
:101400000CD0854B9B6803F00C03082B12D1824B48
:101410005B6803F48003B3F5800F0BD17E4B1B6830
:1014200003F40033002B5BD07B685B68002B57D143
:10143000012342E27B685B68B3F5803F06D1764BBF
:101440001B68754A43F4803313601DE07B685B685A
:10145000B3F5A02F0CD1704B1B686F4A43F4802367
:1014600013606D4B1B686C4A43F4803313600BE0D0
:10147000694B1B68684A23F480331360664B1B6812
:10148000654A23F4802313607B685B68002B13D0CC
:1014900000F064FF386108E000F060FF02463B693D
:1014A000D31A642B01D9032307E25B4B1B6803F4B7
:1014B0000033002BF0D014E000F050FF386108E05A
:1014C00000F04CFF02463B69D31A642B01D9032379
:1014D000F3E1514B1B6803F40033002BF0D100E023
:1014E00000BF7B681B6803F00203002B63D04A4BEC
:1014F0009B6803F00C03002B0BD0474B9B6803F059
:101500000C03082B1CD1444B5B6803F48003002BB5
:1015100016D1414B1B6803F00203002B05D07B68FA
:10152000DB68012B01D00123C7E13B4B1B6823F093
:10153000F8027B681B69DB00374913430B603AE014
:101540007B68DB68002B20D0344B01221A6000F04E
:1015500005FF386108E000F001FF02463B69D31A3D
:10156000022B01D90323A8E12B4B1B6803F00203D4
:10157000002BF0D0284B1B6823F0F8027B681B6916
:10158000DB00254913430B6015E0244B00221A6051
:1015900000F0E4FE386108E000F0E0FE02463B693E
:1015A000D31A022B01D9032387E11B4B1B6803F0DD
:1015B0000203002BF0D17B681B6803F00803002BAB
:1015C00036D07B685B69002B16D0154B01221A6060
:1015D00000F0C4FE386108E000F0C0FE02463B693E
:1015E000D31A022B01D9032367E10B4B5B6F03F086
:1015F0000203002BF0D01BE0094B00221A6000F020
:10160000ADFE38610EE000F0A9FE02463B69D31A38
:10161000022B07D9032350E1003802400000474263
:10162000800E4742884B5B6F03F00203002BEAD128
:101630007B681B6803F00403002B00F097800023F5
:10164000FB75814B1B6C03F08053002B0FD10023E3
:10165000BB607D4B1B6C7C4A43F0805313647A4B18
:101660001B6C03F08053BB60BB680123FB75774B99
:101670001B6803F48073002B18D1744B1B68734AEA
:1016800043F48073136000F069FE386108E000F0F5
:1016900065FE02463B69D31A022B01D903230CE1F4
:1016A0006A4B1B6803F48073002BF0D07B689B6847
:1016B000012B06D1644B1B6F634A43F00103136790
:1016C0001CE07B689B68052B0CD15F4B1B6F5E4A4F
:1016D00043F0040313675C4B1B6F5B4A43F0010349
:1016E00013670BE0584B1B6F574A23F00103136736
:1016F000554B1B6F544A23F0040313677B689B68A8
:10170000002B15D000F02AFE38610AE000F026FE1A
:1017100002463B69D31A41F28832934201D903232E
:10172000CBE0494B1B6F03F00203002BEED014E01B
:1017300000F014FE38610AE000F010FE02463B693A
:10174000D31A41F28832934201D90323B5E03E4BCC
:101750001B6F03F00203002BEED1FB7D012B05D1A3
:10176000394B1B6C384A23F0805313647B689B69A8
:10177000002B00F0A180344B9B6803F00C03082B76
:101780005CD07B689B69022B41D1314B00221A60EF
:1017900000F0E4FD386108E000F0E0FD02463B693E
:1017A000D31A022B01D9032387E0274B1B6803F0D0
:1017B0000073002BF0D17B68DA697B681B6A1A43DF
:1017C0007B685B6A9B011A437B689B6A5B08013BF1
:1017D0001B041A437B68DB6A1B061B4913434B60DF
:1017E0001B4B01221A6000F0B9FD386108E000F0DF
:1017F000B5FD02463B69D31A022B01D903235CE0F5
:10180000114B1B6803F00073002BF0D054E0104B19
:1018100000221A6000F0A2FD386108E000F09EFD91
:1018200002463B69D31A022B01D9032345E0064B3C
:101830001B6803F00073002BF0D13DE07B689B69CF
:10184000012B07D1012338E000380240007000402E
:10185000600047421B4B5B68FB607B689B69012B08
:1018600028D0FB6803F480027B68DB699A4221D1AF
:10187000FB6803F03F027B681B6A9A421AD1FA6840
:1018800047F6C07313407A68526A9201934211D1AD
:10189000FB6803F440327B689B6A5B08013B1B04D6
:1018A0009A4207D1FB6803F070627B68DB6A1B0613
:1018B0009A4201D0012300E0002318461837BD46A4
:1018C00080BD00BF0038024080B584B000AF7860B2
:1018D00039607B68002B01D10123CCE0684B1B6889
:1018E00003F007033A689A420CD9654B3A68D2B2C2
:1018F0001A70634B1B6803F007033A689A4201D0E1
:101900000123B8E07B681B6803F00203002B20D0A2
:101910007B681B6803F00403002B05D0594B9B68C0
:10192000584A43F4E05393607B681B6803F0080354
:10193000002B05D0534B9B68524A43F4604393609D
:10194000504B9B6823F0F0027B689B684D49134322
:101950008B607B681B6803F00103002B44D07B681D
:101960005B68012B07D1474B1B6803F40033002B46
:1019700019D101237FE07B685B68022B03D07B6871
:101980005B68032B07D13F4B1B6803F00073002BF0
:1019900009D101236FE03B4B1B6803F00203002BCE
:1019A00001D1012367E0374B9B6823F003027B687A
:1019B0005B68344913438B6000F0D0FCF8600AE0A8
:1019C00000F0CCFC0246FB68D31A41F28832934205
:1019D00001D903234FE02B4B9B6803F00C027B687B
:1019E0005B689B009A42EBD1254B1B6803F0070311
:1019F0003A689A420CD2224B3A68D2B21A70204B03
:101A00001B6803F007033A689A4201D0012332E0D1
:101A10007B681B6803F00403002B08D0194B9B68FC
:101A200023F4E0527B68DB68164913438B607B68C4
:101A30001B6803F00803002B09D0124B9B6823F4AA
:101A400060427B681B69DB000E4913438B6000F02A
:101A500021F802460B4B9B681B0903F00F030A4950
:101A6000CB5C22FA03F3094A1360094B1B68184642
:101A700000F030FC002318461037BD4680BD00BF83
:101A8000003C024000380240402D000800000020C9
:101A9000040000202DE9B04F94B000AF00237B6418
:101AA0000023FB6400233B640023BB64794B9B68E9
:101AB00003F00C03082B0DD0082B00F2E180002B63
:101AC00002D0042B03D0DBE0734BBB64DBE0734B31
:101AD000BB64D8E06F4B5B6803F03F037B646D4BE6
:101AE0005B6803F48003002B63D06A4B5B689B093F
:101AF0000022BB63FA63BB6BC3F308033B630023A1
:101B00007B63D7E90C4522462B464FF000004FF08F
:101B10000001590141EAD261500102460B462146BB
:101B2000511A3961294663EB01037B614FF00002D2
:101B30004FF00003D7E904AB59468B01514643EA05
:101B4000916351468A015146B2EB0108594663EB55
:101B500001094FF000024FF000034FEAC90343EAC6
:101B600058734FEAC80290469946234618EB030380
:101B7000BB602B4649EB0303FB604FF000024FF0C4
:101B80000003D7E9024529464B02214643EAD153D7
:101B900021464A02104619467B6C0022BB62FA625B
:101BA000D7E90A23FEF714FB02460B461346FB64F3
:101BB00058E0384B5B689B09002218461146C0F379
:101BC00008033B6200237B62D7E9088942464B4603
:101BD0004FF000004FF00001590141EAD26150017D
:101BE00002460B464146B2EB010A494663EB010B44
:101BF0004FF000024FF000034FEA8B1343EA9A6361
:101C00004FEA8A12B2EB0A0463EB0B054FF00002B5
:101C10004FF00003EB0043EA5473E20014461D4604
:101C20004346E3183B604B4645EB03037B604FF0B4
:101C300000024FF00003D7E9004529468B022146F8
:101C400043EA915321468A02104619467B6C0022D2
:101C5000BB61FA61D7E90623FEF7BAFA02460B46E2
:101C60001346FB640B4B5B681B0C03F0030301334F
:101C70005B003B64FA6C3B6CB2FBF3F3BB6402E0C9
:101C8000054BBB6400BFBB6C18465037BD46BDE872
:101C9000B08F00BF003802400024F40000127A0028
:101CA00080B400AF034B1B681846BD465DF8047B4B
:101CB000704700BF0000002080B500AFFFF7F0FFC5
:101CC0000246054B9B689B0A03F007030349CB5C64
:101CD00022FA03F3184680BD00380240502D000858
:101CE00080B500AFFFF7DCFF0246054B9B685B0B3E
:101CF00003F007030349CB5C22FA03F3184680BDC7
:101D000000380240502D000880B582B000AF7860E6
:101D10007B68002B01D1012342E07B6893F84130BE
:101D2000DBB2002B06D17B68002283F84020786864
:101D3000FFF744F87B68242283F841207B681B6806
:101D4000DA687B681B6822F40052DA60786800F079
:101D50002BF87B681B681A697B681B6822F4904229
:101D60001A617B681B685A697B681B6822F02A022B
:101D70005A617B681B68DA687B681B6842F4005212
:101D8000DA607B6800225A647B68202283F8412055
:101D90007B68202283F842207B6800225A6300235C
:101DA00018460837BD4680BD2DE9B04FC0B000AF22
:101DB000C7F8F400D7F8F4301B681B6923F44050CF
:101DC000D7F8F430D968D7F8F4301A6840EA01033C
:101DD0001361D7F8F4309A68D7F8F4301B691A43C6
:101DE000D7F8F4305B691A43D7F8F430DB69134352
:101DF000C7F8F830D7F8F4301B68DB6823F41641D5
:101E000021F00C01D7F8F4301A68D7F8F8300B43FA
:101E1000D360D7F8F4301B685B6923F44070D7F8BF
:101E2000F4309969D7F8F4301A6840EA0103536135
:101E3000D7F8F4301A688F4B9A4205D0D7F8F430AF
:101E40001A688D4B9A4204D1FFF74AFFC7F8FC008D
:101E500003E0FFF731FFC7F8FC00D7F8F430DB6987
:101E6000B3F5004F40F00C81D7F8FC300022C7F8E2
:101E7000E830C7F8EC20D7E93A4522462B469118BE
:101E8000B9655B41FB65D7E91623214612EB0108D2
:101E9000294643EB01094FF000024FF000034FEADF
:101EA000C90343EA58734FEAC8029046994623464D
:101EB00018EB0303C7F8E0302B4649EB0303C7F8E0
:101EC000E430D7F8F4305B680022C7F8D830C7F8A0
:101ED000DC20D7E936120B46DB183B65134642EB94
:101EE00003037B65D7E91423D7E93801FEF770F9BE
:101EF00002460B46614BA3FB02235B091C01D7F88A
:101F0000FC300022C7F8D030C7F8D420D7E9348994
:101F100042464B469118B9645B41FB64D7E91223F2
:101F2000414612EB010A494643EB010B4FF0000218
:101F30004FF000034FEACB0343EA5A734FEACA0259
:101F400092469B4643461AEB0303C7F8C8304B46FC
:101F50004BEB0303C7F8CC30D7F8F4305B680022B2
:101F6000C7F8C030C7F8C420D7E930120B46DB18D9
:101F70003B64134642EB03037B64D7E91023D7E9A4
:101F80003201FEF725F902460B4611463B4BA3FBF7
:101F900001235B09642202FB03F3CB1ADB0003F18C
:101FA0003202364BA3FB02235B095B0003F4F87398
:101FB0001C44D7F8FC300022C7F8B830C7F8BC2062
:101FC000D7E92E8942464B469118B9635B41FB63C2
:101FD000D7E90E2341465118396349464B417B638B
:101FE0004FF000024FF00003D7E90CAB5946CB008D
:101FF000514643EA51735146CA00104619460346FA
:1020000042469B18C7F8B0304B460A4642EB0303E2
:10201000C7F8B430D7F8F4305B680022C7F8A830AE
:10202000C7F8AC20D7E92A120B46DB18BB6213466F
:1020300042EB0303FB62D7E90A23D7E92C01FEF741
:10204000C7F802460B460D4BA3FB02135B09642144
:1020500001FB03F3D31ADB003233084AA2FB03234C
:102060005B0903F00702D7F8F4301B6822449A603A
:1020700006E100BF00100140001401401F85EB5134
:10208000D7F8FC300022C7F8A030C7F8A420D7E961
:10209000288942464B46911839625B417B62D7E9F9
:1020A000082341465418494643EB01054FF000020E
:1020B0004FF00003EB0043EA5473E20014461D4660
:1020C0004346E318C7F898304B4645EB0303C7F87F
:1020D0009C30D7F8F4305B680022C7F89030C7F81E
:1020E00094204FF000024FF00003D7E92445294621
:1020F0008B00214643EA917321468A00D7E92601E5
:10210000FEF766F802460B46604BA3FB02235B0911
:102110001C01D7F8FC300022C7F88830C7F88C20A3
:10212000D7E9228942464B469118B9615B41FB6170
:10213000D7E9062341465118396149464B417B6135
:102140004FF000024FF00003D7E904AB5946CB0033
:10215000514643EA51735146CA0010461946034698
:1021600042469B18C7F880304B460A4642EB0303B1
:10217000C7F88430D7F8F4305B680022BB67FA6791
:102180004FF000024FF00003D7E91E8949468B004B
:10219000414643EA917341468A00D7E92001FEF7A0
:1021A00017F802460B461146384BA3FB01235B0987
:1021B000642202FB03F3CB1A1B013233334AA2FB26
:1021C00003235B0903F0F0031C44D7F8FC30002222
:1021D0003B677A67D7E91C8942464B469118B9603C
:1021E0005B41FB60D7E902234146511839604946FB
:1021F0004B417B604FF000024FF00003D7E900AB8A
:102200005946CB00514643EA51735146CA00104625
:102210001946034642469B18BB664B460A4642EBAC
:102220000303FB66D7F8F4305B6800223B667A66EE
:102230004FF000024FF00003D7E9188949468B00A0
:10224000414643EA917341468A00D7E91A01FDF7F6
:10225000BFFF02460B460D4BA3FB02135B09642133
:1022600001FB03F3D31A1B013233084AA2FB0323F9
:102270005B0903F00F02D7F8F4301B6822449A6020
:1022800000BF07F58077BD46BDE8B08F1F85EB51D5
:1022900080B500AF0E4B1B680D4A43F4007313600A
:1022A0000B4B1B680A4A43F480631360084B1B689E
:1022B000074A43F4807313600320FEF7A3FE0F2048
:1022C00000F008F8FEF7B6FC0023184680BD00BFFA
:1022D000003C024080B582B000AF7860124B1A68B3
:1022E000124B1B7819464FF47A73B3FBF1F3B2FB30
:1022F000F3F31846FEF7ADFE0346002B01D0012391
:102300000EE07B680F2B0AD8002279684FF0FF306F
:10231000FEF783FE064A7B681360002300E001237A
:1023200018460837BD4680BD000000200800002088
:102330000400002080B400AF064B1B781A46064B01
:102340001B681344044A136000BFBD465DF8047B5C
:10235000704700BF08000020C400002080B400AF18
:10236000034B1B681846BD465DF8047B704700BFF1
:10237000C400002080B584B000AF7860FFF7EEFFA6
:10238000B8607B68FB60FB68B3F1FF3F05D00A4B88
:102390001B781A46FB681344FB6000BFFFF7DEFFA3
:1023A0000246BB68D31AFA689A42F7D800BF00BF4A
:1023B0001037BD4680BD00BF080000200EB400B538
:1023C0009CB01DAB029006906FF000410948079148
:1023D0000491094953F8042B05910068019302A95F
:1023E00000F09AF8029B00221A701CB05DF804EB12
:1023F00003B07047580000200802FFFF0244034664
:10240000934200D1704703F8011BF9E7014B1868AC
:10241000704700BF5800002070B50D4D0D4C641B77
:10242000A4100026A64209D10B4D0C4C00F06AFC0A
:10243000641BA4100026A64205D170BD55F8043BCC
:1024400098470136EEE755F8043B98470136F2E726
:10245000942D0008942D0008942D0008982D000854
:10246000704770472DE9F0478E681F46BE420B68E3
:1024700082460C4690462CD88A8912F4906F26D05A
:102480006569096905EB4505A3EB010905EBD57500
:102490007B1C4B446D109D4238BF1D46530527D50C
:1024A000294600F057F9064660B321694A4600F014
:1024B000C7FBA38923F4906343F08003A3812661C3
:1024C00065614E44A5EB09052660A5603E46BE4207
:1024D00000D93E4620683246414600F086FBA3689C
:1024E0009B1BA3602368334423600020BDE8F08772
:1024F0002A4600F04BFB06460028E0D121695046F1
:1025000000F0ACFB0C23CAF80030A38943F0400371
:10251000A3814FF0FF30E9E72DE9F04F98468B8912
:102520001B069DB007460D4614460ED50B6963B9D0
:10253000402100F00FF92860286120B90C233B608E
:102540004FF0FF30D0E040236B610023099320233C
:102550008DF82930CDF80C803023DFF8A4818DF878
:102560002A304FF0010923469A4613F8012B0AB18D
:10257000252AF9D1BAEB040B0BD05B46224629463B
:102580003846FFF76FFF013000F0A980099A5A44DE
:1025900009929AF80030002B00F0A18000234FF040
:1025A000FF32CDE905230AF1010A049307938DF860
:1025B00053301A935446052214F8011B5048FDF776
:1025C00087FF049AD8B9D00644BF20238DF8533032
:1025D000110744BF2B238DF853309AF800302A2B73
:1025E00015D0079A544600204FF00A0C214611F8E6
:1025F000013B303B092B4DD9B0B1079214E0A0EB61
:10260000080309FA03F313430493A246D2E7039B9A
:10261000191D1B680391002BBBBF5B4242F00202F5
:1026200007930793B8BF049223782E2B0CD16378BD
:102630002A2B34D1039B1A1D1B680392002BB8BFB1
:102640004FF0FF3302340593DFF8C4A02178032252
:102650005046FDF73DFF38B1049BA0EB0A00402235
:10266000824013430134049314F8011B25488DF86C
:1026700028100622FDF72CFF002838D0224B1BBB68
:10268000039B073323F0070308330393099B334469
:10269000099368E70CFB02320C460120A6E70023F1
:1026A0000134059319464FF00A0C204610F8012B0F
:1026B000303A092A03D9002BC6D00591C4E70CFB98
:1026C000012104460123F0E703AB00932A460F4B98
:1026D00004A93846AFF30080421C0646D6D1AB8928
:1026E0005B063FF52DAF09981DB0BDE8F08F03AB39
:1026F00000932A46054B04A9384600F019F9EBE788
:10270000582D0008622D0008000000006524000814
:102710005E2D000870B50E4E0C463168054611B9A5
:1027200000F07EFA30602146284600F079FA431C1A
:102730000AD0C41C24F00304A04207D0211A284662
:1027400000F06EFA013001D14FF0FF34204670BD29
:10275000080200202DE9F843CD1C25F003050835BB
:102760000C2D38BF0C25002D074601DBA94205D9E9
:102770000C233B6000263046BDE8F883DFF8D080AC
:1027800000F0F8F9D8F800301C465CBB2946384602
:10279000FFF7C0FF431C044655D1D8F80040264639
:1027A000002E45D1002C48D023683146384604EB32
:1027B000030900F035FA81453FD121686D1A294699
:1027C0003846FFF7A7FF013037D023682B4423603A
:1027D000D8F80030002B38D05A68A2422BD1002202
:1027E0005A600FE02268521B1FD40B2A17D96119B7
:1027F000A342256018BF5960636808BFC8F800107D
:1028000062514B60384604F10B0600F0B9F926F02E
:102810000706231DF21AAED09B1BA350ABE7A342C1
:102820006268DDD1C8F80020ECE723466468ACE7B5
:1028300034467668B4E71346CCE70C233B60384651
:1028400000F09EF997E72560DCE75B60FFDE00BFE4
:10285000040200202DE9F047164699468A680B6964
:10286000DDF820809342B8BF1346336091F84320CF
:1028700007460C460AB1013333602368990642BF0C
:10288000336802333360256815F0060506D104F17C
:10289000190AE36832689B1AAB4226DC94F843209D
:1028A000131E226818BF012392062BD404F14302A1
:1028B00049463846C04701301ED02368226903F0DC
:1028C0000603042B02BFE5683368ED1AA3680CBF4A
:1028D00025EAE57500259342C4BF9B1AED18002632
:1028E0001A34B5421AD1002008E001235246494665
:1028F0003846C047013003D14FF0FF30BDE8F087C4
:102900000135C6E7E1185A1C302081F84300224403
:1029100094F8451082F843100233C7E7012322469A
:1029200049463846C0470130E6D00136D9E70000B5
:102930002DE9FF470F7E0C9D782F914680460C466F
:102940009A4601F1430207D8622F0AD8002F00F0FF
:10295000D480582F00F0C08004F1420584F8427002
:102960003AE0A7F16303152BF6D801A151F823F043
:10297000C9290008DD29000859290008592900083B
:102980005929000859290008DD290008592900089B
:10299000592900085929000859290008E12A000886
:1029A000092A00089B2A000859290008592900080B
:1029B000032B000859290008092A00085929000892
:1029C00059290008A32A00082B681A1D1B682A60D1
:1029D00004F1420584F8423001239FE020682B680F
:1029E000070603F10401296001D51E6803E04606CD
:1029F000FBD5B3F90060002E03DA2D23764284F86C
:102A000043305A480A2312E02B682068191D2960B8
:102A1000050601D51E6802E04106FBD51E88534815
:102A20006F2F0CBF08230A23002184F84310656828
:102A3000A560002DA2BF216821F0040121600EB91C
:102A4000002D4BD01546B6FBF3F103FB1167C75DB4
:102A500005F8017D3746BB420E46F4D9082B0BD151
:102A60002368DE0708D5236961689942DEBF3023F9
:102A700005F8013C05F1FF35521B2261CDF800A09D
:102A80004B4603AA21464046FFF7E4FE01304AD1F7
:102A90004FF0FF3004B0BDE8F087236843F0200317
:102AA00023603348782784F84570236829681F0617
:102AB00051F8046B02D45F0648BFB6B2DF0748BFC7
:102AC00043F02003296048BF23601EB9236823F028
:102AD000200323601023A7E72448E4E71546BDE759
:102AE0002B6826686169181D286035061B6801D5AA
:102AF000196002E07006FBD519800023236115469A
:102B0000BCE72B681A1D2A601D68626800212846F0
:102B1000FDF7DEFC08B1401B6060636823610023A1
:102B200084F84330AAE723692A4649464046D047FD
:102B30000130ADD023689B0713D4E068039B984213
:102B4000B8BF1846A6E70123324649464046D0475B
:102B500001309DD00135E36803995B1AAB42F2DC8A
:102B6000EBE7002504F11906F5E700BF692D000821
:102B70007A2D00080148FFF773BC00BF0002002057
:102B80000148FFF76EBC00BF000200202DE9F041B4
:102B9000804614460E4621B9BDE8F0411146FFF7C4
:102BA000D9BD2AB900F05AF825462846BDE8F0817B
:102BB00000F0A0F88442074602D8B4EB500F12D8B8
:102BC00021464046FFF7C6FD05460028EDD0BC4231
:102BD0002246314628BF3A4600F032F83146404698
:102BE00000F03CF8E1E73546DFE7884210B501EB3D
:102BF000020402D98442234607D8431EA14208D0CA
:102C000011F8012B03F8012FF8E7024401468A422C
:102C100000D110BD13F8014D02F8014DF7E7000097
:102C200038B5064D0023044608462B60FEF754F8DD
:102C3000431C02D12B6803B1236038BD0C02002075
:102C40000A44914200F1FF3300D1704710B511F8EA
:102C5000014B03F8014F9142F9D110BD37B500295E
:102C600044D051F8043C0190002BA1F10404B8BFFA
:102C7000E418FFF77FFF1E4A0198136833B96360B9
:102C8000146003B0BDE83040FFF77ABFA34208D913
:102C9000256861198B4201BF19685B684919216079
:102CA000EDE71A465B680BB1A342FAD911685518D3
:102CB000A5420BD1246821445418A3421160E0D1ED
:102CC0001C685B6853600C441460DAE702D90C237B
:102CD0000360D6E7256861198B4204BF19685B68F9
:102CE000636004BF491921605460CAE703B030BD76
:102CF0000402002051F8043C181F002BBCBF0B58E5
:102D0000C0187047F8B500BFF8BC08BC9E467047B5
:0C2D1000F8B500BFF8BC08BC9E46704738
:102D1C0057656C636F6D6520746F000053544D33B1
:102D2C0032000000426F6F74696E672E2E2E000009
:102D3C0025640000000000000000000001020304F4
:102D4C00060708090000000001020304232D302BA4
:102D5C002000686C4C006566674546470030313290
:102D6C0033343536373839414243444546003031E7
:102D7C003233343536373839616263646566000046
:082D8C0074D4FF7F0100000078
:042D9400B50100087D
:042D9800910100089D
:102D9C000024F400100000000100000000000000FE
:102DAC00C800002030010020980100200000000025
:102DBC000000000000000000000000000000000007
:102DCC0000000000000000000000000000000000F7
:102DDC0000000000000000000000000000000000E7
:0C2DEC0000000000000000000C000020AF
:0400000508000E4D94
:00000001FF
